{
  "contractName": "Dummy",
  "abi": [
    {
      "inputs": [
        {
          "internalType": "uint256",
          "name": "x",
          "type": "uint256"
        }
      ],
      "name": "set",
      "outputs": [],
      "stateMutability": "nonpayable",
      "type": "function"
    },
    {
      "inputs": [],
      "name": "get",
      "outputs": [
        {
          "internalType": "uint256",
          "name": "",
          "type": "uint256"
        }
      ],
      "stateMutability": "view",
      "type": "function"
    },
    {
      "inputs": [
        {
          "internalType": "bytes4",
          "name": "interfaceId",
          "type": "bytes4"
        }
      ],
      "name": "supportsInterface",
      "outputs": [
        {
          "internalType": "bool",
          "name": "",
          "type": "bool"
        }
      ],
      "stateMutability": "pure",
      "type": "function"
    }
  ],
  "bytecode": "0x608060405234801561001057600080fd5b50610116806100206000396000f3fe6080604052348015600f57600080fd5b5060043610603c5760003560e01c806301ffc9a714604157806360fe47b11460775780636d4ce63c146089575b600080fd5b6062604c3660046099565b6001600160e01b031916635b5e139f60e01b1490565b60405190151581526020015b60405180910390f35b6087608236600460c8565b600055565b005b600054604051908152602001606e565b60006020828403121560aa57600080fd5b81356001600160e01b03198116811460c157600080fd5b9392505050565b60006020828403121560d957600080fd5b503591905056fea2646970667358221220f27765a874491757842895617766b9cf85e07404f2b034e7ebbd40d514e6c99d64736f6c63430008090033",
  "immutableReferences": {},
  "source": "// SPDX-License-Identifier: MIT\npragma solidity 0.8.9;\n\ncontract Dummy {\n    uint256 storedData;\n\n    function set(uint256 x) public {\n        storedData = x;\n    }\n\n    function get() public view returns (uint256) {\n        return storedData;\n    }\n\n    function supportsInterface(bytes4 interfaceId)\n        public\n        pure\n        returns (bool)\n    {\n        return interfaceId == 0x5b5e139f;\n    }\n}\n",
  "sourcePath": "/home/aelmanaa/playground/blockchain-developer-bootcamp-final-project/contracts/Dummy.sol",
  "compiler": {
    "name": "solc",
    "version": "0.8.9+commit.e5eed63a.Emscripten.clang"
  },
  "schemaVersion": "3.4.3",
  "updatedAt": "2021-10-22T16:27:18.140Z",
  "devdoc": {
    "kind": "dev",
    "methods": {},
    "version": 1
  },
  "userdoc": {
    "kind": "user",
    "methods": {},
    "version": 1
  }
}