{
  "contractName": "FarmerRole",
  "abi": [
    {
      "inputs": [],
      "stateMutability": "nonpayable",
      "type": "constructor"
    },
    {
      "anonymous": false,
      "inputs": [
        {
          "indexed": true,
          "internalType": "address",
          "name": "account",
          "type": "address"
        }
      ],
      "name": "FarmerAdded",
      "type": "event"
    },
    {
      "anonymous": false,
      "inputs": [
        {
          "indexed": true,
          "internalType": "address",
          "name": "account",
          "type": "address"
        }
      ],
      "name": "FarmerRemoved",
      "type": "event"
    },
    {
      "inputs": [
        {
          "internalType": "address",
          "name": "account",
          "type": "address"
        }
      ],
      "name": "isFarmer",
      "outputs": [
        {
          "internalType": "bool",
          "name": "",
          "type": "bool"
        }
      ],
      "stateMutability": "view",
      "type": "function"
    },
    {
      "inputs": [
        {
          "internalType": "address",
          "name": "account",
          "type": "address"
        }
      ],
      "name": "addFarmer",
      "outputs": [],
      "stateMutability": "nonpayable",
      "type": "function"
    },
    {
      "inputs": [
        {
          "internalType": "address",
          "name": "account",
          "type": "address"
        }
      ],
      "name": "removeFarmer",
      "outputs": [],
      "stateMutability": "nonpayable",
      "type": "function"
    }
  ],
  "bytecode": "0x608060405234801561001057600080fd5b50610705806100206000396000f3fe608060405234801561001057600080fd5b50600436106100415760003560e01c806380c3f96d14610046578063b942906914610062578063e6bf3fdc14610092575b600080fd5b610060600480360381019061005b91906104f1565b6100ae565b005b61007c600480360381019061007791906104f1565b6100ba565b6040516100899190610539565b60405180910390f35b6100ac60048036038101906100a791906104f1565b6100d7565b005b6100b7816100e3565b50565b60006100d082600061013d90919063ffffffff16565b9050919050565b6100e081610205565b50565b6100f781600061025f90919063ffffffff16565b8073ffffffffffffffffffffffffffffffffffffffff167f2e0ded4123377a3c2bc9a26f1717655a129e2f20752924d42e730ec89c83dbd060405160405180910390a250565b60008073ffffffffffffffffffffffffffffffffffffffff168273ffffffffffffffffffffffffffffffffffffffff1614156101ae576040517f08c379a00000000000000000000000000000000000000000000000000000000081526004016101a5906105b1565b60405180910390fd5b8260000160008373ffffffffffffffffffffffffffffffffffffffff1673ffffffffffffffffffffffffffffffffffffffff16815260200190815260200160002060009054906101000a900460ff16905092915050565b61021981600061037790919063ffffffff16565b8073ffffffffffffffffffffffffffffffffffffffff167fa5e0f060af304ab17dd418c7927e3da3ae7868189bf387aee09ab179ccc572f260405160405180910390a250565b600073ffffffffffffffffffffffffffffffffffffffff168173ffffffffffffffffffffffffffffffffffffffff1614156102cf576040517f08c379a00000000000000000000000000000000000000000000000000000000081526004016102c6906105b1565b60405180910390fd5b6102d9828261013d565b15610319576040517f08c379a00000000000000000000000000000000000000000000000000000000081526004016103109061061d565b60405180910390fd5b60018260000160008373ffffffffffffffffffffffffffffffffffffffff1673ffffffffffffffffffffffffffffffffffffffff16815260200190815260200160002060006101000a81548160ff0219169083151502179055505050565b600073ffffffffffffffffffffffffffffffffffffffff168173ffffffffffffffffffffffffffffffffffffffff1614156103e7576040517f08c379a00000000000000000000000000000000000000000000000000000000081526004016103de906105b1565b60405180910390fd5b6103f1828261013d565b610430576040517f08c379a0000000000000000000000000000000000000000000000000000000008152600401610427906106af565b60405180910390fd5b60008260000160008373ffffffffffffffffffffffffffffffffffffffff1673ffffffffffffffffffffffffffffffffffffffff16815260200190815260200160002060006101000a81548160ff0219169083151502179055505050565b600080fd5b600073ffffffffffffffffffffffffffffffffffffffff82169050919050565b60006104be82610493565b9050919050565b6104ce816104b3565b81146104d957600080fd5b50565b6000813590506104eb816104c5565b92915050565b6000602082840312156105075761050661048e565b5b6000610515848285016104dc565b91505092915050565b60008115159050919050565b6105338161051e565b82525050565b600060208201905061054e600083018461052a565b92915050565b600082825260208201905092915050565b7f4163636f756e74206973206e6f742076616c6964210000000000000000000000600082015250565b600061059b601583610554565b91506105a682610565565b602082019050919050565b600060208201905081810360008301526105ca8161058e565b9050919050565b7f48617320616c7265616479207468697320726f6c652100000000000000000000600082015250565b6000610607601683610554565b9150610612826105d1565b602082019050919050565b60006020820190508181036000830152610636816105fa565b9050919050565b7f526f6c65206e6f742061737369676e656420746f2074686973206163636f756e60008201527f7421000000000000000000000000000000000000000000000000000000000000602082015250565b6000610699602283610554565b91506106a48261063d565b604082019050919050565b600060208201905081810360008301526106c88161068c565b905091905056fea2646970667358221220526780b7c8ac62e33baef8a8bd8b9dcc43152aeba6f6d7056ba41022f6dda9ef64736f6c63430008080033",
  "immutableReferences": {},
  "source": "// SPDX-License-Identifier: MIT\npragma solidity ^0.8.8;\n\nimport \"./Roles.sol\";\n\ncontract FarmerRole {\n    using Roles for Roles.Role;\n\n    event FarmerAdded(address indexed account);\n    event FarmerRemoved(address indexed account);\n\n    Roles.Role private farmers;\n\n    constructor() {}\n\n    function isFarmer(address account) public view returns (bool) {\n        return farmers.has(account);\n    }\n\n    function addFarmer(address account) public {\n        _addFarmer(account);\n    }\n\n    function removeFarmer(address account) public {\n        _removeFarmer(account);\n    }\n\n    function _addFarmer(address account) private {\n        farmers.add(account);\n        emit FarmerAdded(account);\n    }\n\n    function _removeFarmer(address account) private {\n        farmers.remove(account);\n        emit FarmerRemoved(account);\n    }\n}\n",
  "sourcePath": "/home/aelmanaa/playground/blockchain-developer-bootcamp-final-project/contracts/accesscontrol/FarmerRole.sol",
  "compiler": {
    "name": "solc",
    "version": "0.8.8+commit.dddeac2f.Emscripten.clang"
  },
  "schemaVersion": "3.4.3",
  "updatedAt": "2021-09-28T09:15:44.929Z",
  "devdoc": {
    "kind": "dev",
    "methods": {},
    "version": 1
  },
  "userdoc": {
    "kind": "user",
    "methods": {},
    "version": 1
  }
}