{
  "contractName": "GateKeeper",
  "abi": [
    {
      "inputs": [],
      "stateMutability": "nonpayable",
      "type": "constructor"
    },
    {
      "anonymous": false,
      "inputs": [
        {
          "indexed": true,
          "internalType": "bytes32",
          "name": "roleId",
          "type": "bytes32"
        },
        {
          "indexed": true,
          "internalType": "address",
          "name": "account",
          "type": "address"
        },
        {
          "indexed": true,
          "internalType": "address",
          "name": "admin",
          "type": "address"
        }
      ],
      "name": "NewAssignment",
      "type": "event"
    },
    {
      "anonymous": false,
      "inputs": [
        {
          "indexed": true,
          "internalType": "bytes32",
          "name": "roleId",
          "type": "bytes32"
        },
        {
          "indexed": true,
          "internalType": "bytes32",
          "name": "adminRoleId",
          "type": "bytes32"
        },
        {
          "indexed": true,
          "internalType": "address",
          "name": "admin",
          "type": "address"
        }
      ],
      "name": "NewRole",
      "type": "event"
    },
    {
      "anonymous": false,
      "inputs": [
        {
          "indexed": true,
          "internalType": "bytes32",
          "name": "roleId",
          "type": "bytes32"
        },
        {
          "indexed": true,
          "internalType": "address",
          "name": "account",
          "type": "address"
        },
        {
          "indexed": true,
          "internalType": "address",
          "name": "admin",
          "type": "address"
        }
      ],
      "name": "RemoveAssignment",
      "type": "event"
    },
    {
      "anonymous": false,
      "inputs": [
        {
          "indexed": true,
          "internalType": "bytes32",
          "name": "roleId",
          "type": "bytes32"
        },
        {
          "indexed": true,
          "internalType": "address",
          "name": "admin",
          "type": "address"
        }
      ],
      "name": "RenounceAdministration",
      "type": "event"
    },
    {
      "anonymous": false,
      "inputs": [
        {
          "indexed": true,
          "internalType": "bytes32",
          "name": "role",
          "type": "bytes32"
        },
        {
          "indexed": true,
          "internalType": "bytes32",
          "name": "previousAdminRole",
          "type": "bytes32"
        },
        {
          "indexed": true,
          "internalType": "bytes32",
          "name": "newAdminRole",
          "type": "bytes32"
        }
      ],
      "name": "RoleAdminChanged",
      "type": "event"
    },
    {
      "anonymous": false,
      "inputs": [
        {
          "indexed": true,
          "internalType": "bytes32",
          "name": "role",
          "type": "bytes32"
        },
        {
          "indexed": true,
          "internalType": "address",
          "name": "account",
          "type": "address"
        },
        {
          "indexed": true,
          "internalType": "address",
          "name": "sender",
          "type": "address"
        }
      ],
      "name": "RoleGranted",
      "type": "event"
    },
    {
      "anonymous": false,
      "inputs": [
        {
          "indexed": true,
          "internalType": "bytes32",
          "name": "role",
          "type": "bytes32"
        },
        {
          "indexed": true,
          "internalType": "address",
          "name": "account",
          "type": "address"
        },
        {
          "indexed": true,
          "internalType": "address",
          "name": "sender",
          "type": "address"
        }
      ],
      "name": "RoleRevoked",
      "type": "event"
    },
    {
      "anonymous": false,
      "inputs": [
        {
          "indexed": true,
          "internalType": "bytes32",
          "name": "roleId",
          "type": "bytes32"
        },
        {
          "indexed": true,
          "internalType": "address",
          "name": "newAdmin",
          "type": "address"
        },
        {
          "indexed": true,
          "internalType": "address",
          "name": "admin",
          "type": "address"
        }
      ],
      "name": "newAdmin",
      "type": "event"
    },
    {
      "inputs": [],
      "name": "DEFAULT_ADMIN_ROLE",
      "outputs": [
        {
          "internalType": "bytes32",
          "name": "",
          "type": "bytes32"
        }
      ],
      "stateMutability": "view",
      "type": "function",
      "constant": true
    },
    {
      "inputs": [
        {
          "internalType": "bytes32",
          "name": "role",
          "type": "bytes32"
        }
      ],
      "name": "getRoleAdmin",
      "outputs": [
        {
          "internalType": "bytes32",
          "name": "",
          "type": "bytes32"
        }
      ],
      "stateMutability": "view",
      "type": "function",
      "constant": true
    },
    {
      "inputs": [
        {
          "internalType": "bytes32",
          "name": "role",
          "type": "bytes32"
        },
        {
          "internalType": "uint256",
          "name": "index",
          "type": "uint256"
        }
      ],
      "name": "getRoleMember",
      "outputs": [
        {
          "internalType": "address",
          "name": "",
          "type": "address"
        }
      ],
      "stateMutability": "view",
      "type": "function",
      "constant": true
    },
    {
      "inputs": [
        {
          "internalType": "bytes32",
          "name": "role",
          "type": "bytes32"
        }
      ],
      "name": "getRoleMemberCount",
      "outputs": [
        {
          "internalType": "uint256",
          "name": "",
          "type": "uint256"
        }
      ],
      "stateMutability": "view",
      "type": "function",
      "constant": true
    },
    {
      "inputs": [
        {
          "internalType": "bytes32",
          "name": "role",
          "type": "bytes32"
        },
        {
          "internalType": "address",
          "name": "account",
          "type": "address"
        }
      ],
      "name": "grantRole",
      "outputs": [],
      "stateMutability": "nonpayable",
      "type": "function"
    },
    {
      "inputs": [
        {
          "internalType": "bytes32",
          "name": "role",
          "type": "bytes32"
        },
        {
          "internalType": "address",
          "name": "account",
          "type": "address"
        }
      ],
      "name": "hasRole",
      "outputs": [
        {
          "internalType": "bool",
          "name": "",
          "type": "bool"
        }
      ],
      "stateMutability": "view",
      "type": "function",
      "constant": true
    },
    {
      "inputs": [
        {
          "internalType": "bytes32",
          "name": "role",
          "type": "bytes32"
        },
        {
          "internalType": "address",
          "name": "account",
          "type": "address"
        }
      ],
      "name": "renounceRole",
      "outputs": [],
      "stateMutability": "nonpayable",
      "type": "function"
    },
    {
      "inputs": [
        {
          "internalType": "bytes32",
          "name": "role",
          "type": "bytes32"
        },
        {
          "internalType": "address",
          "name": "account",
          "type": "address"
        }
      ],
      "name": "revokeRole",
      "outputs": [],
      "stateMutability": "nonpayable",
      "type": "function"
    },
    {
      "inputs": [
        {
          "internalType": "bytes32",
          "name": "roleId",
          "type": "bytes32"
        },
        {
          "internalType": "address",
          "name": "account",
          "type": "address"
        }
      ],
      "name": "addAdmin",
      "outputs": [],
      "stateMutability": "nonpayable",
      "type": "function"
    },
    {
      "inputs": [
        {
          "internalType": "bytes32",
          "name": "roleId",
          "type": "bytes32"
        },
        {
          "internalType": "address",
          "name": "account",
          "type": "address"
        }
      ],
      "name": "addAssignment",
      "outputs": [],
      "stateMutability": "nonpayable",
      "type": "function"
    },
    {
      "inputs": [
        {
          "internalType": "bytes32",
          "name": "roleId",
          "type": "bytes32"
        },
        {
          "internalType": "bytes32",
          "name": "adminRoleId",
          "type": "bytes32"
        }
      ],
      "name": "addRole",
      "outputs": [],
      "stateMutability": "nonpayable",
      "type": "function"
    },
    {
      "inputs": [
        {
          "internalType": "bytes32",
          "name": "roleId",
          "type": "bytes32"
        },
        {
          "internalType": "uint256",
          "name": "index",
          "type": "uint256"
        }
      ],
      "name": "getAssigneeAt",
      "outputs": [
        {
          "internalType": "address",
          "name": "",
          "type": "address"
        }
      ],
      "stateMutability": "view",
      "type": "function",
      "constant": true
    },
    {
      "inputs": [
        {
          "internalType": "bytes32",
          "name": "roleId",
          "type": "bytes32"
        }
      ],
      "name": "getAssigneesCount",
      "outputs": [
        {
          "internalType": "uint256",
          "name": "",
          "type": "uint256"
        }
      ],
      "stateMutability": "view",
      "type": "function",
      "constant": true
    },
    {
      "inputs": [
        {
          "internalType": "bytes32",
          "name": "roleId",
          "type": "bytes32"
        },
        {
          "internalType": "address",
          "name": "account",
          "type": "address"
        }
      ],
      "name": "isAdmin",
      "outputs": [
        {
          "internalType": "bool",
          "name": "",
          "type": "bool"
        }
      ],
      "stateMutability": "view",
      "type": "function",
      "constant": true
    },
    {
      "inputs": [
        {
          "internalType": "bytes32",
          "name": "roleId",
          "type": "bytes32"
        },
        {
          "internalType": "address",
          "name": "account",
          "type": "address"
        }
      ],
      "name": "isAssigned",
      "outputs": [
        {
          "internalType": "bool",
          "name": "",
          "type": "bool"
        }
      ],
      "stateMutability": "view",
      "type": "function",
      "constant": true
    },
    {
      "inputs": [
        {
          "internalType": "bytes32",
          "name": "roleId",
          "type": "bytes32"
        },
        {
          "internalType": "address",
          "name": "account",
          "type": "address"
        }
      ],
      "name": "removeAssignment",
      "outputs": [],
      "stateMutability": "nonpayable",
      "type": "function"
    },
    {
      "inputs": [
        {
          "internalType": "bytes32",
          "name": "roleId",
          "type": "bytes32"
        }
      ],
      "name": "renounceAdmin",
      "outputs": [],
      "stateMutability": "nonpayable",
      "type": "function"
    },
    {
      "inputs": [
        {
          "internalType": "bytes4",
          "name": "interfaceId",
          "type": "bytes4"
        }
      ],
      "name": "supportsInterface",
      "outputs": [
        {
          "internalType": "bool",
          "name": "",
          "type": "bool"
        }
      ],
      "stateMutability": "pure",
      "type": "function",
      "constant": true
    }
  ],
  "bytecode": "0x60806040523480156200001157600080fd5b50620000276000801b336200002d60201b60201c565b620002c3565b6200004482826200007560201b6200097f1760201c565b6200007081600160008581526020019081526020016000206200008b60201b6200098d1790919060201c565b505050565b620000878282620000c360201b60201c565b5050565b6000620000bb836000018373ffffffffffffffffffffffffffffffffffffffff1660001b620001b460201b60201c565b905092915050565b620000d582826200022e60201b60201c565b620001b057600160008084815260200190815260200160002060000160008373ffffffffffffffffffffffffffffffffffffffff1673ffffffffffffffffffffffffffffffffffffffff16815260200190815260200160002060006101000a81548160ff021916908315150217905550620001556200029860201b60201c565b73ffffffffffffffffffffffffffffffffffffffff168173ffffffffffffffffffffffffffffffffffffffff16837f2f8788117e7eff1d82e926ec794901d17c78024a50270940304540a733656f0d60405160405180910390a45b5050565b6000620001c88383620002a060201b60201c565b6200022357826000018290806001815401808255809150506001900390600052602060002001600090919091909150558260000180549050836001016000848152602001908152602001600020819055506001905062000228565b600090505b92915050565b600080600084815260200190815260200160002060000160008373ffffffffffffffffffffffffffffffffffffffff1673ffffffffffffffffffffffffffffffffffffffff16815260200190815260200160002060009054906101000a900460ff16905092915050565b600033905090565b600080836001016000848152602001908152602001600020541415905092915050565b611a6580620002d36000396000f3fe608060405234801561001057600080fd5b50600436106101165760003560e01c80636da0b7e6116100a2578063af01fb6211610071578063af01fb6214610301578063b75dbb8e14610331578063ca15c87314610361578063cd13df1814610391578063d547741f146103ad57610116565b80636da0b7e6146102535780639010d07c1461028357806391d14854146102b3578063a217fddf146102e357610116565b80632f2ff15d116100e95780632f2ff15d146101c757806336568abe146101e35780634fa3ed14146101ff5780636419bcdb1461021b578063665a05b01461023757610116565b806301ffc9a71461011b57806306323f8d1461014b5780631d47e8ec14610167578063248a9ca314610197575b600080fd5b6101356004803603810190610130919061122e565b6103c9565b6040516101429190611276565b60405180910390f35b610165600480360381019061016091906112c7565b610433565b005b610181600480360381019061017c9190611307565b6104d1565b60405161018e919061134d565b60405180910390f35b6101b160048036038101906101ac9190611307565b6104e3565b6040516101be9190611377565b60405180910390f35b6101e160048036038101906101dc91906113f0565b610502565b005b6101fd60048036038101906101f891906113f0565b610536565b005b61021960048036038101906102149190611307565b61056a565b005b610235600480360381019061023091906113f0565b610614565b005b610251600480360381019061024c91906113f0565b6106d6565b005b61026d600480360381019061026891906113f0565b61078a565b60405161027a9190611276565b60405180910390f35b61029d6004803603810190610298919061145c565b61079e565b6040516102aa91906114ab565b60405180910390f35b6102cd60048036038101906102c891906113f0565b6107cd565b6040516102da9190611276565b60405180910390f35b6102eb610837565b6040516102f89190611377565b60405180910390f35b61031b6004803603810190610316919061145c565b61083e565b60405161032891906114ab565b60405180910390f35b61034b600480360381019061034691906113f0565b610852565b6040516103589190611276565b60405180910390f35b61037b60048036038101906103769190611307565b610873565b604051610388919061134d565b60405180910390f35b6103ab60048036038101906103a691906113f0565b610897565b005b6103c760048036038101906103c291906113f0565b61094b565b005b60007fee7aab0c000000000000000000000000000000000000000000000000000000007bffffffffffffffffffffffffffffffffffffffffffffffffffffffff1916827bffffffffffffffffffffffffffffffffffffffffffffffffffffffff1916149050919050565b8061043e813361078a565b61047d576040517f08c379a000000000000000000000000000000000000000000000000000000000815260040161047490611523565b60405180910390fd5b61048783836109bd565b3373ffffffffffffffffffffffffffffffffffffffff1682847fd2dcb27a03e827807943efcecec28edb2f953c5bfef9d1322cea52c5af9117d260405160405180910390a4505050565b60006104dc82610873565b9050919050565b6000806000838152602001908152602001600020600101549050919050565b61050c8282610a18565b610531816001600085815260200190815260200160002061098d90919063ffffffff16565b505050565b6105408282610a41565b6105658160016000858152602001908152602001600020610ac490919063ffffffff16565b505050565b806105758133610852565b6105b4576040517f08c379a00000000000000000000000000000000000000000000000000000000081526004016105ab9061158f565b60405180910390fd5b60006105bf836104e3565b90506105cb8133610536565b3373ffffffffffffffffffffffffffffffffffffffff16837f01913a82f12a940fd200d767b6a10da87635c1c3f5a76228a93184637d249a7f60405160405180910390a3505050565b8161061f8133610852565b61065e576040517f08c379a00000000000000000000000000000000000000000000000000000000081526004016106559061158f565b60405180910390fd5b6000610669846104e3565b90506106758184610502565b3373ffffffffffffffffffffffffffffffffffffffff168373ffffffffffffffffffffffffffffffffffffffff16857f9dc801773b8be0018f488fe9fa71b32881616079d04f10c7c71ab0ab36d546ad60405160405180910390a450505050565b816106e18133610852565b610720576040517f08c379a00000000000000000000000000000000000000000000000000000000081526004016107179061158f565b60405180910390fd5b61072a8383610502565b3373ffffffffffffffffffffffffffffffffffffffff168273ffffffffffffffffffffffffffffffffffffffff16847f90e60bbb25c602c47ed55339d0e5c9f33a0f554964c7dc72aae88ea373061aaf60405160405180910390a4505050565b600061079683836107cd565b905092915050565b60006107c58260016000868152602001908152602001600020610af490919063ffffffff16565b905092915050565b600080600084815260200190815260200160002060000160008373ffffffffffffffffffffffffffffffffffffffff1673ffffffffffffffffffffffffffffffffffffffff16815260200190815260200160002060009054906101000a900460ff16905092915050565b6000801b81565b600061084a838361079e565b905092915050565b60008061085e846104e3565b905061086a81846107cd565b91505092915050565b600061089060016000848152602001908152602001600020610b0e565b9050919050565b816108a28133610852565b6108e1576040517f08c379a00000000000000000000000000000000000000000000000000000000081526004016108d89061158f565b60405180910390fd5b6108eb838361094b565b3373ffffffffffffffffffffffffffffffffffffffff168273ffffffffffffffffffffffffffffffffffffffff16847f7d7d4bf6a2112fe35d363ab60ee54f27884819194ce20a6ecd59b27a8075001860405160405180910390a4505050565b6109558282610b23565b61097a8160016000858152602001908152602001600020610ac490919063ffffffff16565b505050565b6109898282610b4c565b5050565b60006109b5836000018373ffffffffffffffffffffffffffffffffffffffff1660001b610c2c565b905092915050565b60006109c8836104e3565b905081600080858152602001908152602001600020600101819055508181847fbd79b86ffe0ab8e8776151514217cd7cacd52c909f66475c3af44e129f0b00ff60405160405180910390a4505050565b610a21826104e3565b610a3281610a2d610c9c565b610ca4565b610a3c8383610b4c565b505050565b610a49610c9c565b73ffffffffffffffffffffffffffffffffffffffff168173ffffffffffffffffffffffffffffffffffffffff1614610ab6576040517f08c379a0000000000000000000000000000000000000000000000000000000008152600401610aad90611621565b60405180910390fd5b610ac08282610d41565b5050565b6000610aec836000018373ffffffffffffffffffffffffffffffffffffffff1660001b610e22565b905092915050565b6000610b038360000183610f36565b60001c905092915050565b6000610b1c82600001610f61565b9050919050565b610b2c826104e3565b610b3d81610b38610c9c565b610ca4565b610b478383610d41565b505050565b610b5682826107cd565b610c2857600160008084815260200190815260200160002060000160008373ffffffffffffffffffffffffffffffffffffffff1673ffffffffffffffffffffffffffffffffffffffff16815260200190815260200160002060006101000a81548160ff021916908315150217905550610bcd610c9c565b73ffffffffffffffffffffffffffffffffffffffff168173ffffffffffffffffffffffffffffffffffffffff16837f2f8788117e7eff1d82e926ec794901d17c78024a50270940304540a733656f0d60405160405180910390a45b5050565b6000610c388383610f72565b610c91578260000182908060018154018082558091505060019003906000526020600020016000909190919091505582600001805490508360010160008481526020019081526020016000208190555060019050610c96565b600090505b92915050565b600033905090565b610cae82826107cd565b610d3d57610cd38173ffffffffffffffffffffffffffffffffffffffff166014610f95565b610ce18360001c6020610f95565b604051602001610cf2929190611753565b6040516020818303038152906040526040517f08c379a0000000000000000000000000000000000000000000000000000000008152600401610d3491906117d7565b60405180910390fd5b5050565b610d4b82826107cd565b15610e1e57600080600084815260200190815260200160002060000160008373ffffffffffffffffffffffffffffffffffffffff1673ffffffffffffffffffffffffffffffffffffffff16815260200190815260200160002060006101000a81548160ff021916908315150217905550610dc3610c9c565b73ffffffffffffffffffffffffffffffffffffffff168173ffffffffffffffffffffffffffffffffffffffff16837ff6391f5c32d9c69d2a47ea670b442974b53935d1edc7fd64eb21e047a839171b60405160405180910390a45b5050565b60008083600101600084815260200190815260200160002054905060008114610f2a576000600182610e549190611828565b9050600060018660000180549050610e6c9190611828565b9050818114610edb576000866000018281548110610e8d57610e8c61185c565b5b9060005260206000200154905080876000018481548110610eb157610eb061185c565b5b90600052602060002001819055508387600101600083815260200190815260200160002081905550505b85600001805480610eef57610eee61188b565b5b600190038181906000526020600020016000905590558560010160008681526020019081526020016000206000905560019350505050610f30565b60009150505b92915050565b6000826000018281548110610f4e57610f4d61185c565b5b9060005260206000200154905092915050565b600081600001805490509050919050565b600080836001016000848152602001908152602001600020541415905092915050565b606060006002836002610fa891906118ba565b610fb29190611914565b67ffffffffffffffff811115610fcb57610fca61196a565b5b6040519080825280601f01601f191660200182016040528015610ffd5781602001600182028036833780820191505090505b5090507f3000000000000000000000000000000000000000000000000000000000000000816000815181106110355761103461185c565b5b60200101907effffffffffffffffffffffffffffffffffffffffffffffffffffffffffffff1916908160001a9053507f7800000000000000000000000000000000000000000000000000000000000000816001815181106110995761109861185c565b5b60200101907effffffffffffffffffffffffffffffffffffffffffffffffffffffffffffff1916908160001a905350600060018460026110d991906118ba565b6110e39190611914565b90505b6001811115611183577f3031323334353637383961626364656600000000000000000000000000000000600f8616601081106111255761112461185c565b5b1a60f81b82828151811061113c5761113b61185c565b5b60200101907effffffffffffffffffffffffffffffffffffffffffffffffffffffffffffff1916908160001a905350600485901c94508061117c90611999565b90506110e6565b50600084146111c7576040517f08c379a00000000000000000000000000000000000000000000000000000000081526004016111be90611a0f565b60405180910390fd5b8091505092915050565b600080fd5b60007fffffffff0000000000000000000000000000000000000000000000000000000082169050919050565b61120b816111d6565b811461121657600080fd5b50565b60008135905061122881611202565b92915050565b600060208284031215611244576112436111d1565b5b600061125284828501611219565b91505092915050565b60008115159050919050565b6112708161125b565b82525050565b600060208201905061128b6000830184611267565b92915050565b6000819050919050565b6112a481611291565b81146112af57600080fd5b50565b6000813590506112c18161129b565b92915050565b600080604083850312156112de576112dd6111d1565b5b60006112ec858286016112b2565b92505060206112fd858286016112b2565b9150509250929050565b60006020828403121561131d5761131c6111d1565b5b600061132b848285016112b2565b91505092915050565b6000819050919050565b61134781611334565b82525050565b6000602082019050611362600083018461133e565b92915050565b61137181611291565b82525050565b600060208201905061138c6000830184611368565b92915050565b600073ffffffffffffffffffffffffffffffffffffffff82169050919050565b60006113bd82611392565b9050919050565b6113cd816113b2565b81146113d857600080fd5b50565b6000813590506113ea816113c4565b92915050565b60008060408385031215611407576114066111d1565b5b6000611415858286016112b2565b9250506020611426858286016113db565b9150509250929050565b61143981611334565b811461144457600080fd5b50565b60008135905061145681611430565b92915050565b60008060408385031215611473576114726111d1565b5b6000611481858286016112b2565b925050602061149285828601611447565b9150509250929050565b6114a5816113b2565b82525050565b60006020820190506114c0600083018461149c565b92915050565b600082825260208201905092915050565b7f5265737472696374656420746f206d656d626572732e00000000000000000000600082015250565b600061150d6016836114c6565b9150611518826114d7565b602082019050919050565b6000602082019050818103600083015261153c81611500565b9050919050565b7f5265737472696374656420746f2061646d696e732e0000000000000000000000600082015250565b60006115796015836114c6565b915061158482611543565b602082019050919050565b600060208201905081810360008301526115a88161156c565b9050919050565b7f416363657373436f6e74726f6c3a2063616e206f6e6c792072656e6f756e636560008201527f20726f6c657320666f722073656c660000000000000000000000000000000000602082015250565b600061160b602f836114c6565b9150611616826115af565b604082019050919050565b6000602082019050818103600083015261163a816115fe565b9050919050565b600081905092915050565b7f416363657373436f6e74726f6c3a206163636f756e7420000000000000000000600082015250565b6000611682601783611641565b915061168d8261164c565b601782019050919050565b600081519050919050565b60005b838110156116c15780820151818401526020810190506116a6565b838111156116d0576000848401525b50505050565b60006116e182611698565b6116eb8185611641565b93506116fb8185602086016116a3565b80840191505092915050565b7f206973206d697373696e6720726f6c6520000000000000000000000000000000600082015250565b600061173d601183611641565b915061174882611707565b601182019050919050565b600061175e82611675565b915061176a82856116d6565b915061177582611730565b915061178182846116d6565b91508190509392505050565b6000601f19601f8301169050919050565b60006117a982611698565b6117b381856114c6565b93506117c38185602086016116a3565b6117cc8161178d565b840191505092915050565b600060208201905081810360008301526117f1818461179e565b905092915050565b7f4e487b7100000000000000000000000000000000000000000000000000000000600052601160045260246000fd5b600061183382611334565b915061183e83611334565b925082821015611851576118506117f9565b5b828203905092915050565b7f4e487b7100000000000000000000000000000000000000000000000000000000600052603260045260246000fd5b7f4e487b7100000000000000000000000000000000000000000000000000000000600052603160045260246000fd5b60006118c582611334565b91506118d083611334565b9250817fffffffffffffffffffffffffffffffffffffffffffffffffffffffffffffffff0483118215151615611909576119086117f9565b5b828202905092915050565b600061191f82611334565b915061192a83611334565b9250827fffffffffffffffffffffffffffffffffffffffffffffffffffffffffffffffff0382111561195f5761195e6117f9565b5b828201905092915050565b7f4e487b7100000000000000000000000000000000000000000000000000000000600052604160045260246000fd5b60006119a482611334565b915060008214156119b8576119b76117f9565b5b600182039050919050565b7f537472696e67733a20686578206c656e67746820696e73756666696369656e74600082015250565b60006119f96020836114c6565b9150611a04826119c3565b602082019050919050565b60006020820190508181036000830152611a28816119ec565b905091905056fea264697066735822122029db57ad128a482ae9f4092f57a4a96bbff0dea0d86fc68ea680852737a2825664736f6c63430008090033",
  "immutableReferences": {},
  "source": "// SPDX-License-Identifier: MIT\r\npragma solidity ^0.8.9;\r\n\r\nimport \"./IGateKeeper.sol\";\r\nimport \"@openzeppelin/contracts/access/AccessControlEnumerable.sol\";\r\n\r\n/**\r\n * @title Access Control contract\r\n * @dev Contract module that implements Openzeppelin access control contract\r\n * {AccessControlEnumerable}. It also implement {IGateKeeper} interface to provide\r\n * generic functionalities\r\n *\r\n * ERC165 `supportsInterface` method is implemented in order to allow the callers to verify\r\n * that GateKeeper implements {IGateKeeper} interface\r\n * Roles are referred to by their `bytes32` identifier. The roles are unique. It is expected\r\n * from callers to hash their roles using keccak256 before calling functions of the contract.\r\n */\r\ncontract GateKeeper is IGateKeeper, AccessControlEnumerable {\r\n    /**\r\n     * @dev Grants `DEFAULT_ADMIN_ROLE` to `msg.sender`.\r\n     *\r\n     * When deploying the contract, the deployer `msg.sender` is granted  the default admin role\r\n     * by calling OpenZeppelin {AccessControl} `_setupRole` method. This method is only called once\r\n     * during the creation of the contract\r\n     */\r\n    constructor() {\r\n        _setupRole(DEFAULT_ADMIN_ROLE, msg.sender);\r\n    }\r\n\r\n    /// @dev Restricted to members of the admin role.\r\n    modifier onlyAdmin(bytes32 roleId) {\r\n        require(isAdmin(roleId, msg.sender), \"Restricted to admins.\");\r\n        _;\r\n    }\r\n    /// @dev Restricted to members of the role passed as a parameter.\r\n    modifier onlyMember(bytes32 roleId) {\r\n        require(isAssigned(roleId, msg.sender), \"Restricted to members.\");\r\n        _;\r\n    }\r\n\r\n    /**\r\n     * @inheritdoc IGateKeeper\r\n     */\r\n    function addAdmin(bytes32 roleId, address account)\r\n        external\r\n        onlyAdmin(roleId)\r\n    {\r\n        bytes32 adminRoleId = getRoleAdmin(roleId);\r\n        grantRole(adminRoleId, account);\r\n        emit newAdmin(roleId, account, msg.sender);\r\n    }\r\n\r\n    /**\r\n     * @inheritdoc IGateKeeper\r\n     */\r\n    function addAssignment(bytes32 roleId, address account)\r\n        external\r\n        onlyAdmin(roleId)\r\n    {\r\n        grantRole(roleId, account);\r\n        emit NewAssignment(roleId, account, msg.sender);\r\n    }\r\n\r\n    /**\r\n     * @inheritdoc IGateKeeper\r\n     */\r\n    function addRole(bytes32 roleId, bytes32 adminRoleId)\r\n        external\r\n        onlyMember(adminRoleId)\r\n    {\r\n        _setRoleAdmin(roleId, adminRoleId);\r\n        emit NewRole(roleId, adminRoleId, msg.sender);\r\n    }\r\n\r\n    /**\r\n     * @inheritdoc IGateKeeper\r\n     */\r\n    function getAssigneeAt(bytes32 roleId, uint256 index)\r\n        external\r\n        view\r\n        returns (address)\r\n    {\r\n        return getRoleMember(roleId, index);\r\n    }\r\n\r\n    /**\r\n     * @inheritdoc IGateKeeper\r\n     */\r\n    function getAssigneesCount(bytes32 roleId) external view returns (uint256) {\r\n        return getRoleMemberCount(roleId);\r\n    }\r\n\r\n    /**\r\n     * @inheritdoc IGateKeeper\r\n     *\r\n     * @notice retrieve first the `roleId`'s admin role by calling `getRoleAdmin` of {AccessControl}\r\n     */\r\n    function isAdmin(bytes32 roleId, address account)\r\n        public\r\n        view\r\n        returns (bool)\r\n    {\r\n        bytes32 adminRoleId = getRoleAdmin(roleId);\r\n        return hasRole(adminRoleId, account);\r\n    }\r\n\r\n    /**\r\n     * @inheritdoc IGateKeeper\r\n     */\r\n    function isAssigned(bytes32 roleId, address account)\r\n        public\r\n        view\r\n        returns (bool)\r\n    {\r\n        return hasRole(roleId, account);\r\n    }\r\n\r\n    /**\r\n     * @inheritdoc IGateKeeper\r\n     */\r\n    function removeAssignment(bytes32 roleId, address account)\r\n        external\r\n        onlyAdmin(roleId)\r\n    {\r\n        revokeRole(roleId, account);\r\n        emit RemoveAssignment(roleId, account, msg.sender);\r\n    }\r\n\r\n    /**\r\n     * @inheritdoc IGateKeeper\r\n     */\r\n    function renounceAdmin(bytes32 roleId) external onlyAdmin(roleId) {\r\n        bytes32 adminRoleId = getRoleAdmin(roleId);\r\n        renounceRole(adminRoleId, msg.sender);\r\n        emit RenounceAdministration(roleId, msg.sender);\r\n    }\r\n\r\n    /**\r\n     * @dev See {IERC165-supportsInterface}.\r\n     */\r\n    function supportsInterface(bytes4 interfaceId)\r\n        public\r\n        pure\r\n        override\r\n        returns (bool)\r\n    {\r\n        return interfaceId == type(IGateKeeper).interfaceId;\r\n    }\r\n}\r\n",
  "sourcePath": "/home/aelmanaa/playground/blockchain-developer-bootcamp-final-project/contracts/access/GateKeeper.sol",
  "compiler": {
    "name": "solc",
    "version": "0.8.9+commit.e5eed63a.Emscripten.clang"
  },
  "schemaVersion": "3.4.3",
  "updatedAt": "2021-09-30T12:34:22.977Z",
  "networkType": "ethereum",
  "devdoc": {
    "details": "Contract module that implements Openzeppelin access control contract {AccessControlEnumerable}. It also implement {IGateKeeper} interface to provide generic functionalities ERC165 `supportsInterface` method is implemented in order to allow the callers to verify that GateKeeper implements {IGateKeeper} interface Roles are referred to by their `bytes32` identifier. The roles are unique. It is expected from callers to hash their roles using keccak256 before calling functions of the contract.",
    "kind": "dev",
    "methods": {
      "addAdmin(bytes32,address)": {
        "details": "Assign `roleId`'s admin role to `account`. Emits a {NewAdmin} event. Requirements: - the caller must have `roleId`'s admin role.",
        "params": {
          "account": "additional administrator of roleId",
          "roleId": "unique 32-byte word representation of a role"
        }
      },
      "addAssignment(bytes32,address)": {
        "details": "Assign `roleId` to `account`. Emits a {NewAssignment} event. Requirements: - the caller must have `roleId`'s admin role.",
        "params": {
          "account": "new members of roleId.",
          "roleId": "unique 32-byte word representation of a role."
        }
      },
      "addRole(bytes32,bytes32)": {
        "details": "Create new `roleId` with `adminRoleId` as admin role. Emits a {NewRole} event. Requirements: - the caller must be assigned `adminRoleId`.",
        "params": {
          "adminRoleId": "roleId's administrator role.",
          "roleId": "unique 32-byte word representation of a role."
        }
      },
      "constructor": {
        "details": "Grants `DEFAULT_ADMIN_ROLE` to `msg.sender`. When deploying the contract, the deployer `msg.sender` is granted  the default admin role by calling OpenZeppelin {AccessControl} `_setupRole` method. This method is only called once during the creation of the contract"
      },
      "getAssigneeAt(bytes32,uint256)": {
        "details": "Get the account assigned the `roleId` at `index`.",
        "params": {
          "index": "since role is assgned to an array of assignees, index is the position in the assignees array.",
          "roleId": "unique 32-byte word representation of a role."
        },
        "returns": {
          "_0": "address address of the roleId's assignee at index."
        }
      },
      "getAssigneesCount(bytes32)": {
        "details": "Get number of accounts assigned the `roleId`.",
        "params": {
          "roleId": "unique 32-byte word representation of a role."
        },
        "returns": {
          "_0": "number of roleId's assignees."
        }
      },
      "getRoleAdmin(bytes32)": {
        "details": "Returns the admin role that controls `role`. See {grantRole} and {revokeRole}. To change a role's admin, use {_setRoleAdmin}."
      },
      "getRoleMember(bytes32,uint256)": {
        "details": "Returns one of the accounts that have `role`. `index` must be a value between 0 and {getRoleMemberCount}, non-inclusive. Role bearers are not sorted in any particular way, and their ordering may change at any point. WARNING: When using {getRoleMember} and {getRoleMemberCount}, make sure you perform all queries on the same block. See the following https://forum.openzeppelin.com/t/iterating-over-elements-on-enumerableset-in-openzeppelin-contracts/2296[forum post] for more information."
      },
      "getRoleMemberCount(bytes32)": {
        "details": "Returns the number of accounts that have `role`. Can be used together with {getRoleMember} to enumerate all bearers of a role."
      },
      "grantRole(bytes32,address)": {
        "details": "Overload {grantRole} to track enumerable memberships"
      },
      "hasRole(bytes32,address)": {
        "details": "Returns `true` if `account` has been granted `role`."
      },
      "isAdmin(bytes32,address)": {
        "details": "Returns `true` if `account` is admin of `roleId`.",
        "params": {
          "account": "roleId's administrator account.",
          "roleId": "unique 32-byte word representation of a role."
        },
        "returns": {
          "_0": "bool `true` if `account` is admin of `roleId`."
        }
      },
      "isAssigned(bytes32,address)": {
        "details": "Returns `true` if `account` is granted `roleId`.",
        "params": {
          "account": "roleId's assignee.",
          "roleId": "unique 32-byte word representation of a role."
        },
        "returns": {
          "_0": "bool `true` if `account` is granted `roleId`."
        }
      },
      "removeAssignment(bytes32,address)": {
        "details": "Revokes `roleId` from `account`. If `account` had been granted `roleId`, emits a {RemoveAssignment} event. Requirements: - the caller must have `roleId`'s admin role.",
        "params": {
          "account": "roleId's assignee.",
          "roleId": "unique 32-byte word representation of a role."
        }
      },
      "renounceAdmin(bytes32)": {
        "details": "Renounce administration of `roleId`. If the caller is administator of `roleId`, emits a {RenounceAdministration} event. Requirements: - the caller must have `roleId`'s admin role.",
        "params": {
          "roleId": "unique 32-byte word representation of a role."
        }
      },
      "renounceRole(bytes32,address)": {
        "details": "Overload {renounceRole} to track enumerable memberships"
      },
      "revokeRole(bytes32,address)": {
        "details": "Overload {revokeRole} to track enumerable memberships"
      },
      "supportsInterface(bytes4)": {
        "details": "See {IERC165-supportsInterface}."
      }
    },
    "title": "Access Control contract",
    "version": 1
  },
  "userdoc": {
    "kind": "user",
    "methods": {
      "isAdmin(bytes32,address)": {
        "notice": "retrieve first the `roleId`'s admin role by calling `getRoleAdmin` of {AccessControl}"
      }
    },
    "version": 1
  }
}