{
  "contractName": "GateKeeper",
  "abi": [
    {
      "inputs": [],
      "stateMutability": "nonpayable",
      "type": "constructor"
    },
    {
      "anonymous": false,
      "inputs": [
        {
          "indexed": true,
          "internalType": "address",
          "name": "rootAdmin",
          "type": "address"
        }
      ],
      "name": "ContractOff",
      "type": "event"
    },
    {
      "anonymous": false,
      "inputs": [
        {
          "indexed": true,
          "internalType": "address",
          "name": "rootAdmin",
          "type": "address"
        }
      ],
      "name": "ContractOn",
      "type": "event"
    },
    {
      "anonymous": false,
      "inputs": [
        {
          "indexed": true,
          "internalType": "bytes32",
          "name": "roleId",
          "type": "bytes32"
        },
        {
          "indexed": true,
          "internalType": "address",
          "name": "account",
          "type": "address"
        },
        {
          "indexed": true,
          "internalType": "address",
          "name": "admin",
          "type": "address"
        }
      ],
      "name": "NewAssignment",
      "type": "event"
    },
    {
      "anonymous": false,
      "inputs": [
        {
          "indexed": true,
          "internalType": "bytes32",
          "name": "roleId",
          "type": "bytes32"
        },
        {
          "indexed": true,
          "internalType": "bytes32",
          "name": "adminRoleId",
          "type": "bytes32"
        },
        {
          "indexed": true,
          "internalType": "address",
          "name": "admin",
          "type": "address"
        }
      ],
      "name": "NewRole",
      "type": "event"
    },
    {
      "anonymous": false,
      "inputs": [
        {
          "indexed": true,
          "internalType": "bytes32",
          "name": "roleId",
          "type": "bytes32"
        },
        {
          "indexed": true,
          "internalType": "address",
          "name": "account",
          "type": "address"
        },
        {
          "indexed": true,
          "internalType": "address",
          "name": "admin",
          "type": "address"
        }
      ],
      "name": "RemoveAssignment",
      "type": "event"
    },
    {
      "anonymous": false,
      "inputs": [
        {
          "indexed": true,
          "internalType": "bytes32",
          "name": "roleId",
          "type": "bytes32"
        },
        {
          "indexed": true,
          "internalType": "address",
          "name": "admin",
          "type": "address"
        }
      ],
      "name": "RenounceAdministration",
      "type": "event"
    },
    {
      "anonymous": false,
      "inputs": [
        {
          "indexed": true,
          "internalType": "bytes32",
          "name": "role",
          "type": "bytes32"
        },
        {
          "indexed": true,
          "internalType": "bytes32",
          "name": "previousAdminRole",
          "type": "bytes32"
        },
        {
          "indexed": true,
          "internalType": "bytes32",
          "name": "newAdminRole",
          "type": "bytes32"
        }
      ],
      "name": "RoleAdminChanged",
      "type": "event"
    },
    {
      "anonymous": false,
      "inputs": [
        {
          "indexed": true,
          "internalType": "bytes32",
          "name": "role",
          "type": "bytes32"
        },
        {
          "indexed": true,
          "internalType": "address",
          "name": "account",
          "type": "address"
        },
        {
          "indexed": true,
          "internalType": "address",
          "name": "sender",
          "type": "address"
        }
      ],
      "name": "RoleGranted",
      "type": "event"
    },
    {
      "anonymous": false,
      "inputs": [
        {
          "indexed": true,
          "internalType": "bytes32",
          "name": "role",
          "type": "bytes32"
        },
        {
          "indexed": true,
          "internalType": "address",
          "name": "account",
          "type": "address"
        },
        {
          "indexed": true,
          "internalType": "address",
          "name": "sender",
          "type": "address"
        }
      ],
      "name": "RoleRevoked",
      "type": "event"
    },
    {
      "inputs": [],
      "name": "DEFAULT_ADMIN_ROLE",
      "outputs": [
        {
          "internalType": "bytes32",
          "name": "",
          "type": "bytes32"
        }
      ],
      "stateMutability": "view",
      "type": "function",
      "constant": true
    },
    {
      "inputs": [
        {
          "internalType": "bytes32",
          "name": "role",
          "type": "bytes32"
        }
      ],
      "name": "getRoleAdmin",
      "outputs": [
        {
          "internalType": "bytes32",
          "name": "",
          "type": "bytes32"
        }
      ],
      "stateMutability": "view",
      "type": "function",
      "constant": true
    },
    {
      "inputs": [
        {
          "internalType": "bytes32",
          "name": "role",
          "type": "bytes32"
        },
        {
          "internalType": "uint256",
          "name": "index",
          "type": "uint256"
        }
      ],
      "name": "getRoleMember",
      "outputs": [
        {
          "internalType": "address",
          "name": "",
          "type": "address"
        }
      ],
      "stateMutability": "view",
      "type": "function",
      "constant": true
    },
    {
      "inputs": [
        {
          "internalType": "bytes32",
          "name": "role",
          "type": "bytes32"
        }
      ],
      "name": "getRoleMemberCount",
      "outputs": [
        {
          "internalType": "uint256",
          "name": "",
          "type": "uint256"
        }
      ],
      "stateMutability": "view",
      "type": "function",
      "constant": true
    },
    {
      "inputs": [
        {
          "internalType": "bytes32",
          "name": "role",
          "type": "bytes32"
        },
        {
          "internalType": "address",
          "name": "account",
          "type": "address"
        }
      ],
      "name": "grantRole",
      "outputs": [],
      "stateMutability": "nonpayable",
      "type": "function"
    },
    {
      "inputs": [
        {
          "internalType": "bytes32",
          "name": "role",
          "type": "bytes32"
        },
        {
          "internalType": "address",
          "name": "account",
          "type": "address"
        }
      ],
      "name": "hasRole",
      "outputs": [
        {
          "internalType": "bool",
          "name": "",
          "type": "bool"
        }
      ],
      "stateMutability": "view",
      "type": "function",
      "constant": true
    },
    {
      "inputs": [
        {
          "internalType": "bytes32",
          "name": "role",
          "type": "bytes32"
        },
        {
          "internalType": "address",
          "name": "account",
          "type": "address"
        }
      ],
      "name": "renounceRole",
      "outputs": [],
      "stateMutability": "nonpayable",
      "type": "function"
    },
    {
      "inputs": [
        {
          "internalType": "bytes32",
          "name": "role",
          "type": "bytes32"
        },
        {
          "internalType": "address",
          "name": "account",
          "type": "address"
        }
      ],
      "name": "revokeRole",
      "outputs": [],
      "stateMutability": "nonpayable",
      "type": "function"
    },
    {
      "inputs": [
        {
          "internalType": "bytes32",
          "name": "roleId",
          "type": "bytes32"
        },
        {
          "internalType": "address",
          "name": "account",
          "type": "address"
        }
      ],
      "name": "addAssignment",
      "outputs": [],
      "stateMutability": "nonpayable",
      "type": "function"
    },
    {
      "inputs": [
        {
          "internalType": "bytes32",
          "name": "roleId",
          "type": "bytes32"
        },
        {
          "internalType": "bytes32",
          "name": "adminRoleId",
          "type": "bytes32"
        }
      ],
      "name": "addRole",
      "outputs": [],
      "stateMutability": "nonpayable",
      "type": "function"
    },
    {
      "inputs": [
        {
          "internalType": "bytes32",
          "name": "roleId",
          "type": "bytes32"
        },
        {
          "internalType": "uint256",
          "name": "index",
          "type": "uint256"
        }
      ],
      "name": "getAssigneeAt",
      "outputs": [
        {
          "internalType": "address",
          "name": "",
          "type": "address"
        }
      ],
      "stateMutability": "view",
      "type": "function",
      "constant": true
    },
    {
      "inputs": [
        {
          "internalType": "bytes32",
          "name": "roleId",
          "type": "bytes32"
        }
      ],
      "name": "getAssigneesCount",
      "outputs": [
        {
          "internalType": "uint256",
          "name": "",
          "type": "uint256"
        }
      ],
      "stateMutability": "view",
      "type": "function",
      "constant": true
    },
    {
      "inputs": [
        {
          "internalType": "bytes32",
          "name": "roleId",
          "type": "bytes32"
        },
        {
          "internalType": "address",
          "name": "account",
          "type": "address"
        }
      ],
      "name": "isAdmin",
      "outputs": [
        {
          "internalType": "bool",
          "name": "",
          "type": "bool"
        }
      ],
      "stateMutability": "view",
      "type": "function",
      "constant": true
    },
    {
      "inputs": [
        {
          "internalType": "bytes32",
          "name": "roleId",
          "type": "bytes32"
        },
        {
          "internalType": "address",
          "name": "account",
          "type": "address"
        }
      ],
      "name": "isAssigned",
      "outputs": [
        {
          "internalType": "bool",
          "name": "",
          "type": "bool"
        }
      ],
      "stateMutability": "view",
      "type": "function",
      "constant": true
    },
    {
      "inputs": [],
      "name": "isContractActive",
      "outputs": [
        {
          "internalType": "bool",
          "name": "",
          "type": "bool"
        }
      ],
      "stateMutability": "view",
      "type": "function",
      "constant": true
    },
    {
      "inputs": [
        {
          "internalType": "bytes32",
          "name": "roleId",
          "type": "bytes32"
        },
        {
          "internalType": "address",
          "name": "account",
          "type": "address"
        }
      ],
      "name": "removeAssignment",
      "outputs": [],
      "stateMutability": "nonpayable",
      "type": "function"
    },
    {
      "inputs": [
        {
          "internalType": "bytes32",
          "name": "roleId",
          "type": "bytes32"
        }
      ],
      "name": "renounceAdmin",
      "outputs": [],
      "stateMutability": "nonpayable",
      "type": "function"
    },
    {
      "inputs": [
        {
          "internalType": "bytes4",
          "name": "interfaceId",
          "type": "bytes4"
        }
      ],
      "name": "supportsInterface",
      "outputs": [
        {
          "internalType": "bool",
          "name": "",
          "type": "bool"
        }
      ],
      "stateMutability": "pure",
      "type": "function",
      "constant": true
    },
    {
      "inputs": [],
      "name": "switchContractOn",
      "outputs": [],
      "stateMutability": "nonpayable",
      "type": "function"
    },
    {
      "inputs": [],
      "name": "switchContractOff",
      "outputs": [],
      "stateMutability": "nonpayable",
      "type": "function"
    }
  ],
  "bytecode": "0x60806040526002805460ff191690553480156200001b57600080fd5b50620000296000336200002f565b62000194565b6200004682826200007260201b6200078b1760201c565b60008281526001602090815260409091206200006d9183906200079962000082821b17901c565b505050565b6200007e8282620000a2565b5050565b600062000099836001600160a01b03841662000142565b90505b92915050565b6000828152602081815260408083206001600160a01b038516845290915290205460ff166200007e576000828152602081815260408083206001600160a01b03851684529091529020805460ff19166001179055620000fe3390565b6001600160a01b0316816001600160a01b0316837f2f8788117e7eff1d82e926ec794901d17c78024a50270940304540a733656f0d60405160405180910390a45050565b60008181526001830160205260408120546200018b575081546001818101845560008481526020808220909301849055845484825282860190935260409020919091556200009c565b5060006200009c565b61100f80620001a46000396000f3fe608060405234801561001057600080fd5b506004361061012c5760003560e01c80638f5949f9116100ad578063b75dbb8e11610071578063b75dbb8e1461028f578063ca15c873146102a2578063cd13df18146102b5578063d547741f146102c8578063f57eed28146102db57600080fd5b80638f5949f91461022a5780639010d07c1461023657806391d1485414610261578063a217fddf14610274578063af01fb621461027c57600080fd5b806336568abe116100f457806336568abe146101d6578063453dda69146101e95780634fa3ed14146101f1578063665a05b0146102045780636da0b7e61461021757600080fd5b806301ffc9a71461013157806306323f8d1461016a5780631d47e8ec1461017f578063248a9ca3146101a05780632f2ff15d146101c3575b600080fd5b61015561013f366004610d3f565b6001600160e01b03191663b579696f60e01b1490565b60405190151581526020015b60405180910390f35b61017d610178366004610d69565b6102e3565b005b61019261018d366004610d8b565b61039d565b604051908152602001610161565b6101926101ae366004610d8b565b60009081526020819052604090206001015490565b61017d6101d1366004610da4565b6103ae565b61017d6101e4366004610da4565b6103d5565b61017d6103f7565b61017d6101ff366004610d8b565b610493565b61017d610212366004610da4565b61052b565b610155610225366004610da4565b6105bc565b60025460ff1615610155565b610249610244366004610d69565b6105cf565b6040516001600160a01b039091168152602001610161565b61015561026f366004610da4565b6105e7565b610192600081565b61024961028a366004610d69565b610610565b61015561029d366004610da4565b61061c565b6101926102b0366004610d8b565b610640565b61017d6102c3366004610da4565b610657565b61017d6102d6366004610da4565b6106e8565b61017d6106f2565b60025460ff161561030f5760405162461bcd60e51b815260040161030690610de0565b60405180910390fd5b8061031a81336105bc565b61035f5760405162461bcd60e51b81526020600482015260166024820152752932b9ba3934b1ba32b2103a379036b2b6b132b9399760511b6044820152606401610306565b61036983836107ae565b6040513390839085907fd2dcb27a03e827807943efcecec28edb2f953c5bfef9d1322cea52c5af9117d290600090a4505050565b60006103a882610640565b92915050565b6103b882826107f9565b60008281526001602052604090206103d09082610799565b505050565b6103df828261081f565b60008281526001602052604090206103d09082610899565b6104026000336105bc565b61044e5760405162461bcd60e51b815260206004820152601a60248201527f5265737472696374656420746f20726f6f742061646d696e732e0000000000006044820152606401610306565b60025460ff16610491576002805460ff1916600117905560405133907f2c8df3a57558c1da625dac0822756afc39aa81f22772ae7a5b6b37e70feedc9290600090a25b565b60025460ff16156104b65760405162461bcd60e51b815260040161030690610de0565b806104c1813361061c565b6104dd5760405162461bcd60e51b815260040161030690610e15565b6000828152602081905260409020600101546104f981336103d5565b604051339084907f01913a82f12a940fd200d767b6a10da87635c1c3f5a76228a93184637d249a7f90600090a3505050565b60025460ff161561054e5760405162461bcd60e51b815260040161030690610de0565b81610559813361061c565b6105755760405162461bcd60e51b815260040161030690610e15565b61057f83836103ae565b60405133906001600160a01b0384169085907f90e60bbb25c602c47ed55339d0e5c9f33a0f554964c7dc72aae88ea373061aaf90600090a4505050565b60006105c883836105e7565b9392505050565b60008281526001602052604081206105c890836108ae565b6000918252602082815260408084206001600160a01b0393909316845291905290205460ff1690565b60006105c883836105cf565b60008281526020819052604081206001015461063881846105e7565b949350505050565b60008181526001602052604081206103a8906108ba565b60025460ff161561067a5760405162461bcd60e51b815260040161030690610de0565b81610685813361061c565b6106a15760405162461bcd60e51b815260040161030690610e15565b6106ab83836106e8565b60405133906001600160a01b0384169085907f7d7d4bf6a2112fe35d363ab60ee54f27884819194ce20a6ecd59b27a8075001890600090a4505050565b6103df82826108c4565b6106fd6000336105bc565b6107495760405162461bcd60e51b815260206004820152601a60248201527f5265737472696374656420746f20726f6f742061646d696e732e0000000000006044820152606401610306565b60025460ff1615610491576002805460ff1916905560405133907f52defe2736efa030a55e6dec8f4a0eef68bd16c5fe46e817f2ae941919dba3a190600090a2565b61079582826108ea565b5050565b60006105c8836001600160a01b03841661096e565b600082815260208190526040808220600101805490849055905190918391839186917fbd79b86ffe0ab8e8776151514217cd7cacd52c909f66475c3af44e129f0b00ff9190a4505050565b60008281526020819052604090206001015461081581336109bd565b6103d083836108ea565b6001600160a01b038116331461088f5760405162461bcd60e51b815260206004820152602f60248201527f416363657373436f6e74726f6c3a2063616e206f6e6c792072656e6f756e636560448201526e103937b632b9903337b91039b2b63360891b6064820152608401610306565b6107958282610a21565b60006105c8836001600160a01b038416610a86565b60006105c88383610b79565b60006103a8825490565b6000828152602081905260409020600101546108e081336109bd565b6103d08383610a21565b6108f482826105e7565b610795576000828152602081815260408083206001600160a01b03851684529091529020805460ff1916600117905561092a3390565b6001600160a01b0316816001600160a01b0316837f2f8788117e7eff1d82e926ec794901d17c78024a50270940304540a733656f0d60405160405180910390a45050565b60008181526001830160205260408120546109b5575081546001818101845560008481526020808220909301849055845484825282860190935260409020919091556103a8565b5060006103a8565b6109c782826105e7565b610795576109df816001600160a01b03166014610ba3565b6109ea836020610ba3565b6040516020016109fb929190610e74565b60408051601f198184030181529082905262461bcd60e51b825261030691600401610ee9565b610a2b82826105e7565b15610795576000828152602081815260408083206001600160a01b0385168085529252808320805460ff1916905551339285917ff6391f5c32d9c69d2a47ea670b442974b53935d1edc7fd64eb21e047a839171b9190a45050565b60008181526001830160205260408120548015610b6f576000610aaa600183610f32565b8554909150600090610abe90600190610f32565b9050818114610b23576000866000018281548110610ade57610ade610f49565b9060005260206000200154905080876000018481548110610b0157610b01610f49565b6000918252602080832090910192909255918252600188019052604090208390555b8554869080610b3457610b34610f5f565b6001900381819060005260206000200160009055905585600101600086815260200190815260200160002060009055600193505050506103a8565b60009150506103a8565b6000826000018281548110610b9057610b90610f49565b9060005260206000200154905092915050565b60606000610bb2836002610f75565b610bbd906002610f94565b67ffffffffffffffff811115610bd557610bd5610fac565b6040519080825280601f01601f191660200182016040528015610bff576020820181803683370190505b509050600360fc1b81600081518110610c1a57610c1a610f49565b60200101906001600160f81b031916908160001a905350600f60fb1b81600181518110610c4957610c49610f49565b60200101906001600160f81b031916908160001a9053506000610c6d846002610f75565b610c78906001610f94565b90505b6001811115610cf0576f181899199a1a9b1b9c1cb0b131b232b360811b85600f1660108110610cac57610cac610f49565b1a60f81b828281518110610cc257610cc2610f49565b60200101906001600160f81b031916908160001a90535060049490941c93610ce981610fc2565b9050610c7b565b5083156105c85760405162461bcd60e51b815260206004820181905260248201527f537472696e67733a20686578206c656e67746820696e73756666696369656e746044820152606401610306565b600060208284031215610d5157600080fd5b81356001600160e01b0319811681146105c857600080fd5b60008060408385031215610d7c57600080fd5b50508035926020909101359150565b600060208284031215610d9d57600080fd5b5035919050565b60008060408385031215610db757600080fd5b8235915060208301356001600160a01b0381168114610dd557600080fd5b809150509250929050565b6020808252818101527f436f6e74726163742069732063757272656e746c792073757370656e6465642e604082015260600190565b6020808252601590820152742932b9ba3934b1ba32b2103a379030b236b4b7399760591b604082015260600190565b60005b83811015610e5f578181015183820152602001610e47565b83811115610e6e576000848401525b50505050565b7f416363657373436f6e74726f6c3a206163636f756e7420000000000000000000815260008351610eac816017850160208801610e44565b7001034b99036b4b9b9b4b733903937b6329607d1b6017918401918201528351610edd816028840160208801610e44565b01602801949350505050565b6020815260008251806020840152610f08816040850160208701610e44565b601f01601f19169190910160400192915050565b634e487b7160e01b600052601160045260246000fd5b600082821015610f4457610f44610f1c565b500390565b634e487b7160e01b600052603260045260246000fd5b634e487b7160e01b600052603160045260246000fd5b6000816000190483118215151615610f8f57610f8f610f1c565b500290565b60008219821115610fa757610fa7610f1c565b500190565b634e487b7160e01b600052604160045260246000fd5b600081610fd157610fd1610f1c565b50600019019056fea264697066735822122028dac38d0e72c4bb06d05a9abd2a8c85b2222fbaa960a55b640f88c82303388664736f6c63430008090033",
  "immutableReferences": {},
  "source": "// SPDX-License-Identifier: MIT\r\npragma solidity 0.8.9;\r\n\r\nimport \"./IGateKeeper.sol\";\r\nimport \"@openzeppelin/contracts/access/AccessControlEnumerable.sol\";\r\n\r\n/**\r\n * @title Access Control contract\r\n * @dev Contract module that implements Openzeppelin access control contract\r\n * {AccessControlEnumerable}. It also implement {IGateKeeper} interface to provide\r\n * generic functionalities\r\n *\r\n * ERC165 `supportsInterface` method is implemented in order to allow the callers to verify\r\n * that GateKeeper implements {IGateKeeper} interface\r\n * Roles are referred to by their `bytes32` identifier. The roles are unique. It is expected\r\n * from callers to hash their roles using keccak256 before calling functions of the contract.\r\n */\r\ncontract GateKeeper is IGateKeeper, AccessControlEnumerable {\r\n    bool private stopped = false;\r\n\r\n    /**\r\n     * @dev Grants `DEFAULT_ADMIN_ROLE` to `msg.sender`.\r\n     *\r\n     * When deploying the contract, the deployer `msg.sender` is granted  the default admin role\r\n     * by calling OpenZeppelin {AccessControl} `_setupRole` method. This method is only called once\r\n     * during the creation of the contract\r\n     */\r\n    constructor() {\r\n        _setupRole(DEFAULT_ADMIN_ROLE, msg.sender);\r\n    }\r\n\r\n    /// @dev circuit breaker. call some functionalities only if stopped is equal to false\r\n    modifier onlyActive() {\r\n        require(!stopped, \"Contract is currently suspended.\");\r\n        _;\r\n    }\r\n\r\n    /// @dev Restricted to members of the admin role.\r\n    modifier onlyAdmin(bytes32 roleId) {\r\n        require(isAdmin(roleId, msg.sender), \"Restricted to admins.\");\r\n        _;\r\n    }\r\n    /// @dev Restricted to members of the role passed as a parameter.\r\n    modifier onlyMember(bytes32 roleId) {\r\n        require(isAssigned(roleId, msg.sender), \"Restricted to members.\");\r\n        _;\r\n    }\r\n\r\n    /// @dev Restricted to members of DEFAULT_ADMIN_ROLE\r\n    modifier onlyRootAdmin() {\r\n        require(\r\n            isAssigned(DEFAULT_ADMIN_ROLE, msg.sender),\r\n            \"Restricted to root admins.\"\r\n        );\r\n        _;\r\n    }\r\n\r\n    /**\r\n     * @inheritdoc IGateKeeper\r\n     */\r\n    function addAssignment(bytes32 roleId, address account)\r\n        external\r\n        onlyActive\r\n        onlyAdmin(roleId)\r\n    {\r\n        grantRole(roleId, account);\r\n        emit NewAssignment(roleId, account, msg.sender);\r\n    }\r\n\r\n    /**\r\n     * @inheritdoc IGateKeeper\r\n     */\r\n    function addRole(bytes32 roleId, bytes32 adminRoleId)\r\n        external\r\n        onlyActive\r\n        onlyMember(adminRoleId)\r\n    {\r\n        _setRoleAdmin(roleId, adminRoleId);\r\n        emit NewRole(roleId, adminRoleId, msg.sender);\r\n    }\r\n\r\n    /**\r\n     * @inheritdoc IGateKeeper\r\n     */\r\n    function getAssigneeAt(bytes32 roleId, uint256 index)\r\n        external\r\n        view\r\n        returns (address)\r\n    {\r\n        return getRoleMember(roleId, index);\r\n    }\r\n\r\n    /**\r\n     * @inheritdoc IGateKeeper\r\n     */\r\n    function getAssigneesCount(bytes32 roleId) external view returns (uint256) {\r\n        return getRoleMemberCount(roleId);\r\n    }\r\n\r\n    /**\r\n     * @inheritdoc IGateKeeper\r\n     *\r\n     * @notice retrieve first the `roleId`'s admin role by calling `getRoleAdmin` of {AccessControl}\r\n     */\r\n    function isAdmin(bytes32 roleId, address account)\r\n        public\r\n        view\r\n        returns (bool)\r\n    {\r\n        bytes32 adminRoleId = getRoleAdmin(roleId);\r\n        return hasRole(adminRoleId, account);\r\n    }\r\n\r\n    /**\r\n     * @inheritdoc IGateKeeper\r\n     */\r\n    function isAssigned(bytes32 roleId, address account)\r\n        public\r\n        view\r\n        returns (bool)\r\n    {\r\n        return hasRole(roleId, account);\r\n    }\r\n\r\n    /**\r\n     * @inheritdoc IGateKeeper\r\n     */\r\n    function isContractActive() public view returns (bool) {\r\n        return !stopped;\r\n    }\r\n\r\n    /**\r\n     * @inheritdoc IGateKeeper\r\n     */\r\n    function removeAssignment(bytes32 roleId, address account)\r\n        external\r\n        onlyActive\r\n        onlyAdmin(roleId)\r\n    {\r\n        revokeRole(roleId, account);\r\n        emit RemoveAssignment(roleId, account, msg.sender);\r\n    }\r\n\r\n    /**\r\n     * @inheritdoc IGateKeeper\r\n     */\r\n    function renounceAdmin(bytes32 roleId)\r\n        external\r\n        onlyActive\r\n        onlyAdmin(roleId)\r\n    {\r\n        bytes32 adminRoleId = getRoleAdmin(roleId);\r\n        renounceRole(adminRoleId, msg.sender);\r\n        emit RenounceAdministration(roleId, msg.sender);\r\n    }\r\n\r\n    /**\r\n     * @dev See {IERC165-supportsInterface}.\r\n     */\r\n    function supportsInterface(bytes4 interfaceId)\r\n        public\r\n        pure\r\n        override\r\n        returns (bool)\r\n    {\r\n        return interfaceId == type(IGateKeeper).interfaceId;\r\n    }\r\n\r\n    /**\r\n     * @inheritdoc IGateKeeper\r\n     */\r\n    function switchContractOn() public onlyRootAdmin {\r\n        if (stopped) {\r\n            stopped = false;\r\n            emit ContractOn(msg.sender);\r\n        }\r\n    }\r\n\r\n    /**\r\n     * @inheritdoc IGateKeeper\r\n     */\r\n    function switchContractOff() public onlyRootAdmin {\r\n        if (!stopped) {\r\n            stopped = true;\r\n            emit ContractOff(msg.sender);\r\n        }\r\n    }\r\n}\r\n",
  "sourcePath": "/home/aelmanaa/playground/blockchain-developer-bootcamp-final-project/contracts/access/GateKeeper.sol",
  "compiler": {
    "name": "solc",
    "version": "0.8.9+commit.e5eed63a.Emscripten.clang"
  },
  "schemaVersion": "3.4.3",
  "updatedAt": "2021-11-01T21:03:42.427Z",
  "networkType": "ethereum",
  "devdoc": {
    "details": "Contract module that implements Openzeppelin access control contract {AccessControlEnumerable}. It also implement {IGateKeeper} interface to provide generic functionalities ERC165 `supportsInterface` method is implemented in order to allow the callers to verify that GateKeeper implements {IGateKeeper} interface Roles are referred to by their `bytes32` identifier. The roles are unique. It is expected from callers to hash their roles using keccak256 before calling functions of the contract.",
    "kind": "dev",
    "methods": {
      "addAssignment(bytes32,address)": {
        "details": "Assign `roleId` to `account`. Emits a {NewAssignment} event. Requirements: - the caller must have `roleId`'s admin role.",
        "params": {
          "account": "new members of roleId.",
          "roleId": "unique 32-byte word representation of a role."
        }
      },
      "addRole(bytes32,bytes32)": {
        "details": "Create new `roleId` with `adminRoleId` as admin role. Emits a {NewRole} event. Requirements: - the caller must be assigned `adminRoleId`.",
        "params": {
          "adminRoleId": "roleId's administrator role.",
          "roleId": "unique 32-byte word representation of a role."
        }
      },
      "constructor": {
        "details": "Grants `DEFAULT_ADMIN_ROLE` to `msg.sender`. When deploying the contract, the deployer `msg.sender` is granted  the default admin role by calling OpenZeppelin {AccessControl} `_setupRole` method. This method is only called once during the creation of the contract"
      },
      "getAssigneeAt(bytes32,uint256)": {
        "details": "Get the account assigned the `roleId` at `index`.",
        "params": {
          "index": "since role is assgned to an array of assignees, index is the position in the assignees array.",
          "roleId": "unique 32-byte word representation of a role."
        },
        "returns": {
          "_0": "address address of the roleId's assignee at index."
        }
      },
      "getAssigneesCount(bytes32)": {
        "details": "Get number of accounts assigned the `roleId`.",
        "params": {
          "roleId": "unique 32-byte word representation of a role."
        },
        "returns": {
          "_0": "number of roleId's assignees."
        }
      },
      "getRoleAdmin(bytes32)": {
        "details": "Returns the admin role that controls `role`. See {grantRole} and {revokeRole}. To change a role's admin, use {_setRoleAdmin}."
      },
      "getRoleMember(bytes32,uint256)": {
        "details": "Returns one of the accounts that have `role`. `index` must be a value between 0 and {getRoleMemberCount}, non-inclusive. Role bearers are not sorted in any particular way, and their ordering may change at any point. WARNING: When using {getRoleMember} and {getRoleMemberCount}, make sure you perform all queries on the same block. See the following https://forum.openzeppelin.com/t/iterating-over-elements-on-enumerableset-in-openzeppelin-contracts/2296[forum post] for more information."
      },
      "getRoleMemberCount(bytes32)": {
        "details": "Returns the number of accounts that have `role`. Can be used together with {getRoleMember} to enumerate all bearers of a role."
      },
      "grantRole(bytes32,address)": {
        "details": "Overload {grantRole} to track enumerable memberships"
      },
      "hasRole(bytes32,address)": {
        "details": "Returns `true` if `account` has been granted `role`."
      },
      "isAdmin(bytes32,address)": {
        "details": "Returns `true` if `account` is admin of `roleId`.",
        "params": {
          "account": "roleId's administrator account.",
          "roleId": "unique 32-byte word representation of a role."
        },
        "returns": {
          "_0": "bool `true` if `account` is admin of `roleId`."
        }
      },
      "isAssigned(bytes32,address)": {
        "details": "Returns `true` if `account` is granted `roleId`.",
        "params": {
          "account": "roleId's assignee.",
          "roleId": "unique 32-byte word representation of a role."
        },
        "returns": {
          "_0": "bool `true` if `account` is granted `roleId`."
        }
      },
      "isContractActive()": {
        "details": "Returns `true` if contract is active (circuit-breaker).",
        "returns": {
          "_0": "bool `true` if contract is active."
        }
      },
      "removeAssignment(bytes32,address)": {
        "details": "Revokes `roleId` from `account`. If `account` had been granted `roleId`, emits a {RemoveAssignment} event. Requirements: - the caller must have `roleId`'s admin role.",
        "params": {
          "account": "roleId's assignee.",
          "roleId": "unique 32-byte word representation of a role."
        }
      },
      "renounceAdmin(bytes32)": {
        "details": "Renounce administration of `roleId`. If the caller is administator of `roleId`, emits a {RenounceAdministration} event. Requirements: - the caller must have `roleId`'s admin role.",
        "params": {
          "roleId": "unique 32-byte word representation of a role."
        }
      },
      "renounceRole(bytes32,address)": {
        "details": "Overload {renounceRole} to track enumerable memberships"
      },
      "revokeRole(bytes32,address)": {
        "details": "Overload {revokeRole} to track enumerable memberships"
      },
      "supportsInterface(bytes4)": {
        "details": "See {IERC165-supportsInterface}."
      }
    },
    "title": "Access Control contract",
    "version": 1
  },
  "userdoc": {
    "kind": "user",
    "methods": {
      "isAdmin(bytes32,address)": {
        "notice": "retrieve first the `roleId`'s admin role by calling `getRoleAdmin` of {AccessControl}"
      },
      "switchContractOff()": {
        "notice": "If the contract is active then stop it and emit a {ContractOff} event. Requirements: - the caller must be root admin."
      },
      "switchContractOn()": {
        "notice": "If the contract is stopped then active it and emit a {ContractOn} event. Requirements: - the caller must be root admin."
      }
    },
    "version": 1
  }
}