{
  "contractName": "GateKeeper",
  "abi": [
    {
      "inputs": [],
      "stateMutability": "nonpayable",
      "type": "constructor"
    },
    {
      "anonymous": false,
      "inputs": [
        {
          "indexed": true,
          "internalType": "bytes32",
          "name": "roleId",
          "type": "bytes32"
        },
        {
          "indexed": true,
          "internalType": "address",
          "name": "newAdmin",
          "type": "address"
        },
        {
          "indexed": true,
          "internalType": "address",
          "name": "admin",
          "type": "address"
        }
      ],
      "name": "NewAdmin",
      "type": "event"
    },
    {
      "anonymous": false,
      "inputs": [
        {
          "indexed": true,
          "internalType": "bytes32",
          "name": "roleId",
          "type": "bytes32"
        },
        {
          "indexed": true,
          "internalType": "address",
          "name": "account",
          "type": "address"
        },
        {
          "indexed": true,
          "internalType": "address",
          "name": "admin",
          "type": "address"
        }
      ],
      "name": "NewAssignment",
      "type": "event"
    },
    {
      "anonymous": false,
      "inputs": [
        {
          "indexed": true,
          "internalType": "bytes32",
          "name": "roleId",
          "type": "bytes32"
        },
        {
          "indexed": true,
          "internalType": "bytes32",
          "name": "adminRoleId",
          "type": "bytes32"
        },
        {
          "indexed": true,
          "internalType": "address",
          "name": "admin",
          "type": "address"
        }
      ],
      "name": "NewRole",
      "type": "event"
    },
    {
      "anonymous": false,
      "inputs": [
        {
          "indexed": true,
          "internalType": "bytes32",
          "name": "roleId",
          "type": "bytes32"
        },
        {
          "indexed": true,
          "internalType": "address",
          "name": "account",
          "type": "address"
        },
        {
          "indexed": true,
          "internalType": "address",
          "name": "admin",
          "type": "address"
        }
      ],
      "name": "RemoveAssignment",
      "type": "event"
    },
    {
      "anonymous": false,
      "inputs": [
        {
          "indexed": true,
          "internalType": "bytes32",
          "name": "roleId",
          "type": "bytes32"
        },
        {
          "indexed": true,
          "internalType": "address",
          "name": "admin",
          "type": "address"
        }
      ],
      "name": "RenounceAdministration",
      "type": "event"
    },
    {
      "anonymous": false,
      "inputs": [
        {
          "indexed": true,
          "internalType": "bytes32",
          "name": "role",
          "type": "bytes32"
        },
        {
          "indexed": true,
          "internalType": "bytes32",
          "name": "previousAdminRole",
          "type": "bytes32"
        },
        {
          "indexed": true,
          "internalType": "bytes32",
          "name": "newAdminRole",
          "type": "bytes32"
        }
      ],
      "name": "RoleAdminChanged",
      "type": "event"
    },
    {
      "anonymous": false,
      "inputs": [
        {
          "indexed": true,
          "internalType": "bytes32",
          "name": "role",
          "type": "bytes32"
        },
        {
          "indexed": true,
          "internalType": "address",
          "name": "account",
          "type": "address"
        },
        {
          "indexed": true,
          "internalType": "address",
          "name": "sender",
          "type": "address"
        }
      ],
      "name": "RoleGranted",
      "type": "event"
    },
    {
      "anonymous": false,
      "inputs": [
        {
          "indexed": true,
          "internalType": "bytes32",
          "name": "role",
          "type": "bytes32"
        },
        {
          "indexed": true,
          "internalType": "address",
          "name": "account",
          "type": "address"
        },
        {
          "indexed": true,
          "internalType": "address",
          "name": "sender",
          "type": "address"
        }
      ],
      "name": "RoleRevoked",
      "type": "event"
    },
    {
      "inputs": [],
      "name": "DEFAULT_ADMIN_ROLE",
      "outputs": [
        {
          "internalType": "bytes32",
          "name": "",
          "type": "bytes32"
        }
      ],
      "stateMutability": "view",
      "type": "function"
    },
    {
      "inputs": [
        {
          "internalType": "bytes32",
          "name": "role",
          "type": "bytes32"
        }
      ],
      "name": "getRoleAdmin",
      "outputs": [
        {
          "internalType": "bytes32",
          "name": "",
          "type": "bytes32"
        }
      ],
      "stateMutability": "view",
      "type": "function"
    },
    {
      "inputs": [
        {
          "internalType": "bytes32",
          "name": "role",
          "type": "bytes32"
        },
        {
          "internalType": "uint256",
          "name": "index",
          "type": "uint256"
        }
      ],
      "name": "getRoleMember",
      "outputs": [
        {
          "internalType": "address",
          "name": "",
          "type": "address"
        }
      ],
      "stateMutability": "view",
      "type": "function"
    },
    {
      "inputs": [
        {
          "internalType": "bytes32",
          "name": "role",
          "type": "bytes32"
        }
      ],
      "name": "getRoleMemberCount",
      "outputs": [
        {
          "internalType": "uint256",
          "name": "",
          "type": "uint256"
        }
      ],
      "stateMutability": "view",
      "type": "function"
    },
    {
      "inputs": [
        {
          "internalType": "bytes32",
          "name": "role",
          "type": "bytes32"
        },
        {
          "internalType": "address",
          "name": "account",
          "type": "address"
        }
      ],
      "name": "grantRole",
      "outputs": [],
      "stateMutability": "nonpayable",
      "type": "function"
    },
    {
      "inputs": [
        {
          "internalType": "bytes32",
          "name": "role",
          "type": "bytes32"
        },
        {
          "internalType": "address",
          "name": "account",
          "type": "address"
        }
      ],
      "name": "hasRole",
      "outputs": [
        {
          "internalType": "bool",
          "name": "",
          "type": "bool"
        }
      ],
      "stateMutability": "view",
      "type": "function"
    },
    {
      "inputs": [
        {
          "internalType": "bytes32",
          "name": "role",
          "type": "bytes32"
        },
        {
          "internalType": "address",
          "name": "account",
          "type": "address"
        }
      ],
      "name": "renounceRole",
      "outputs": [],
      "stateMutability": "nonpayable",
      "type": "function"
    },
    {
      "inputs": [
        {
          "internalType": "bytes32",
          "name": "role",
          "type": "bytes32"
        },
        {
          "internalType": "address",
          "name": "account",
          "type": "address"
        }
      ],
      "name": "revokeRole",
      "outputs": [],
      "stateMutability": "nonpayable",
      "type": "function"
    },
    {
      "inputs": [
        {
          "internalType": "bytes32",
          "name": "roleId",
          "type": "bytes32"
        },
        {
          "internalType": "address",
          "name": "account",
          "type": "address"
        }
      ],
      "name": "addAdmin",
      "outputs": [],
      "stateMutability": "nonpayable",
      "type": "function"
    },
    {
      "inputs": [
        {
          "internalType": "bytes32",
          "name": "roleId",
          "type": "bytes32"
        },
        {
          "internalType": "address",
          "name": "account",
          "type": "address"
        }
      ],
      "name": "addAssignment",
      "outputs": [],
      "stateMutability": "nonpayable",
      "type": "function"
    },
    {
      "inputs": [
        {
          "internalType": "bytes32",
          "name": "roleId",
          "type": "bytes32"
        },
        {
          "internalType": "bytes32",
          "name": "adminRoleId",
          "type": "bytes32"
        }
      ],
      "name": "addRole",
      "outputs": [],
      "stateMutability": "nonpayable",
      "type": "function"
    },
    {
      "inputs": [
        {
          "internalType": "bytes32",
          "name": "roleId",
          "type": "bytes32"
        },
        {
          "internalType": "uint256",
          "name": "index",
          "type": "uint256"
        }
      ],
      "name": "getAssigneeAt",
      "outputs": [
        {
          "internalType": "address",
          "name": "",
          "type": "address"
        }
      ],
      "stateMutability": "view",
      "type": "function"
    },
    {
      "inputs": [
        {
          "internalType": "bytes32",
          "name": "roleId",
          "type": "bytes32"
        }
      ],
      "name": "getAssigneesCount",
      "outputs": [
        {
          "internalType": "uint256",
          "name": "",
          "type": "uint256"
        }
      ],
      "stateMutability": "view",
      "type": "function"
    },
    {
      "inputs": [
        {
          "internalType": "bytes32",
          "name": "roleId",
          "type": "bytes32"
        },
        {
          "internalType": "address",
          "name": "account",
          "type": "address"
        }
      ],
      "name": "isAdmin",
      "outputs": [
        {
          "internalType": "bool",
          "name": "",
          "type": "bool"
        }
      ],
      "stateMutability": "view",
      "type": "function"
    },
    {
      "inputs": [
        {
          "internalType": "bytes32",
          "name": "roleId",
          "type": "bytes32"
        },
        {
          "internalType": "address",
          "name": "account",
          "type": "address"
        }
      ],
      "name": "isAssigned",
      "outputs": [
        {
          "internalType": "bool",
          "name": "",
          "type": "bool"
        }
      ],
      "stateMutability": "view",
      "type": "function"
    },
    {
      "inputs": [
        {
          "internalType": "bytes32",
          "name": "roleId",
          "type": "bytes32"
        },
        {
          "internalType": "address",
          "name": "account",
          "type": "address"
        }
      ],
      "name": "removeAssignment",
      "outputs": [],
      "stateMutability": "nonpayable",
      "type": "function"
    },
    {
      "inputs": [
        {
          "internalType": "bytes32",
          "name": "roleId",
          "type": "bytes32"
        }
      ],
      "name": "renounceAdmin",
      "outputs": [],
      "stateMutability": "nonpayable",
      "type": "function"
    },
    {
      "inputs": [
        {
          "internalType": "bytes4",
          "name": "interfaceId",
          "type": "bytes4"
        }
      ],
      "name": "supportsInterface",
      "outputs": [
        {
          "internalType": "bool",
          "name": "",
          "type": "bool"
        }
      ],
      "stateMutability": "pure",
      "type": "function"
    }
  ],
  "bytecode": "0x60806040523480156200001157600080fd5b506200001f60003362000025565b6200018a565b6200003c82826200006860201b620006281760201c565b6000828152600160209081526040909120620000639183906200063662000078821b17901c565b505050565b62000074828262000098565b5050565b60006200008f836001600160a01b03841662000138565b90505b92915050565b6000828152602081815260408083206001600160a01b038516845290915290205460ff1662000074576000828152602081815260408083206001600160a01b03851684529091529020805460ff19166001179055620000f43390565b6001600160a01b0316816001600160a01b0316837f2f8788117e7eff1d82e926ec794901d17c78024a50270940304540a733656f0d60405160405180910390a45050565b6000818152600183016020526040812054620001815750815460018181018455600084815260208082209093018490558454848252828601909352604090209190915562000092565b50600062000092565b610e77806200019a6000396000f3fe608060405234801561001057600080fd5b50600436106101165760003560e01c80636da0b7e6116100a2578063af01fb6211610071578063af01fb6214610265578063b75dbb8e14610278578063ca15c8731461028b578063cd13df181461029e578063d547741f146102b157600080fd5b80636da0b7e61461020c5780639010d07c1461021f57806391d148541461024a578063a217fddf1461025d57600080fd5b80632f2ff15d116100e95780632f2ff15d146101ad57806336568abe146101c05780634fa3ed14146101d35780636419bcdb146101e6578063665a05b0146101f957600080fd5b806301ffc9a71461011b57806306323f8d146101545780631d47e8ec14610169578063248a9ca31461018a575b600080fd5b61013f610129366004610bdc565b6001600160e01b031916633b9eaac360e21b1490565b60405190151581526020015b60405180910390f35b610167610162366004610c06565b6102c4565b005b61017c610177366004610c28565b610357565b60405190815260200161014b565b61017c610198366004610c28565b60009081526020819052604090206001015490565b6101676101bb366004610c41565b610368565b6101676101ce366004610c41565b61038f565b6101676101e1366004610c28565b6103b1565b6101676101f4366004610c41565b610426565b610167610207366004610c41565b6104a7565b61013f61021a366004610c41565b610515565b61023261022d366004610c06565b610528565b6040516001600160a01b03909116815260200161014b565b61013f610258366004610c41565b610540565b61017c600081565b610232610273366004610c06565b610569565b61013f610286366004610c41565b610575565b61017c610299366004610c28565b610599565b6101676102ac366004610c41565b6105b0565b6101676102bf366004610c41565b61061e565b806102cf8133610515565b6103195760405162461bcd60e51b81526020600482015260166024820152752932b9ba3934b1ba32b2103a379036b2b6b132b9399760511b60448201526064015b60405180910390fd5b610323838361064b565b6040513390839085907fd2dcb27a03e827807943efcecec28edb2f953c5bfef9d1322cea52c5af9117d290600090a4505050565b600061036282610599565b92915050565b6103728282610696565b600082815260016020526040902061038a9082610636565b505050565b61039982826106bc565b600082815260016020526040902061038a9082610736565b806103bc8133610575565b6103d85760405162461bcd60e51b815260040161031090610c7d565b6000828152602081905260409020600101546103f4813361038f565b604051339084907f01913a82f12a940fd200d767b6a10da87635c1c3f5a76228a93184637d249a7f90600090a3505050565b816104318133610575565b61044d5760405162461bcd60e51b815260040161031090610c7d565b6000838152602081905260409020600101546104698184610368565b60405133906001600160a01b0385169086907f3e269b9722c7dd7e4931c8ef665e21f93b5f923c134d8cb57a7dafc99d40859590600090a450505050565b816104b28133610575565b6104ce5760405162461bcd60e51b815260040161031090610c7d565b6104d88383610368565b60405133906001600160a01b0384169085907f90e60bbb25c602c47ed55339d0e5c9f33a0f554964c7dc72aae88ea373061aaf90600090a4505050565b60006105218383610540565b9392505050565b6000828152600160205260408120610521908361074b565b6000918252602082815260408084206001600160a01b0393909316845291905290205460ff1690565b60006105218383610528565b6000828152602081905260408120600101546105918184610540565b949350505050565b600081815260016020526040812061036290610757565b816105bb8133610575565b6105d75760405162461bcd60e51b815260040161031090610c7d565b6105e1838361061e565b60405133906001600160a01b0384169085907f7d7d4bf6a2112fe35d363ab60ee54f27884819194ce20a6ecd59b27a8075001890600090a4505050565b6103998282610761565b6106328282610787565b5050565b6000610521836001600160a01b03841661080b565b600082815260208190526040808220600101805490849055905190918391839186917fbd79b86ffe0ab8e8776151514217cd7cacd52c909f66475c3af44e129f0b00ff9190a4505050565b6000828152602081905260409020600101546106b2813361085a565b61038a8383610787565b6001600160a01b038116331461072c5760405162461bcd60e51b815260206004820152602f60248201527f416363657373436f6e74726f6c3a2063616e206f6e6c792072656e6f756e636560448201526e103937b632b9903337b91039b2b63360891b6064820152608401610310565b61063282826108be565b6000610521836001600160a01b038416610923565b60006105218383610a16565b6000610362825490565b60008281526020819052604090206001015461077d813361085a565b61038a83836108be565b6107918282610540565b610632576000828152602081815260408083206001600160a01b03851684529091529020805460ff191660011790556107c73390565b6001600160a01b0316816001600160a01b0316837f2f8788117e7eff1d82e926ec794901d17c78024a50270940304540a733656f0d60405160405180910390a45050565b600081815260018301602052604081205461085257508154600181810184556000848152602080822090930184905584548482528286019093526040902091909155610362565b506000610362565b6108648282610540565b6106325761087c816001600160a01b03166014610a40565b610887836020610a40565b604051602001610898929190610cdc565b60408051601f198184030181529082905262461bcd60e51b825261031091600401610d51565b6108c88282610540565b15610632576000828152602081815260408083206001600160a01b0385168085529252808320805460ff1916905551339285917ff6391f5c32d9c69d2a47ea670b442974b53935d1edc7fd64eb21e047a839171b9190a45050565b60008181526001830160205260408120548015610a0c576000610947600183610d9a565b855490915060009061095b90600190610d9a565b90508181146109c057600086600001828154811061097b5761097b610db1565b906000526020600020015490508087600001848154811061099e5761099e610db1565b6000918252602080832090910192909255918252600188019052604090208390555b85548690806109d1576109d1610dc7565b600190038181906000526020600020016000905590558560010160008681526020019081526020016000206000905560019350505050610362565b6000915050610362565b6000826000018281548110610a2d57610a2d610db1565b9060005260206000200154905092915050565b60606000610a4f836002610ddd565b610a5a906002610dfc565b67ffffffffffffffff811115610a7257610a72610e14565b6040519080825280601f01601f191660200182016040528015610a9c576020820181803683370190505b509050600360fc1b81600081518110610ab757610ab7610db1565b60200101906001600160f81b031916908160001a905350600f60fb1b81600181518110610ae657610ae6610db1565b60200101906001600160f81b031916908160001a9053506000610b0a846002610ddd565b610b15906001610dfc565b90505b6001811115610b8d576f181899199a1a9b1b9c1cb0b131b232b360811b85600f1660108110610b4957610b49610db1565b1a60f81b828281518110610b5f57610b5f610db1565b60200101906001600160f81b031916908160001a90535060049490941c93610b8681610e2a565b9050610b18565b5083156105215760405162461bcd60e51b815260206004820181905260248201527f537472696e67733a20686578206c656e67746820696e73756666696369656e746044820152606401610310565b600060208284031215610bee57600080fd5b81356001600160e01b03198116811461052157600080fd5b60008060408385031215610c1957600080fd5b50508035926020909101359150565b600060208284031215610c3a57600080fd5b5035919050565b60008060408385031215610c5457600080fd5b8235915060208301356001600160a01b0381168114610c7257600080fd5b809150509250929050565b6020808252601590820152742932b9ba3934b1ba32b2103a379030b236b4b7399760591b604082015260600190565b60005b83811015610cc7578181015183820152602001610caf565b83811115610cd6576000848401525b50505050565b7f416363657373436f6e74726f6c3a206163636f756e7420000000000000000000815260008351610d14816017850160208801610cac565b7001034b99036b4b9b9b4b733903937b6329607d1b6017918401918201528351610d45816028840160208801610cac565b01602801949350505050565b6020815260008251806020840152610d70816040850160208701610cac565b601f01601f19169190910160400192915050565b634e487b7160e01b600052601160045260246000fd5b600082821015610dac57610dac610d84565b500390565b634e487b7160e01b600052603260045260246000fd5b634e487b7160e01b600052603160045260246000fd5b6000816000190483118215151615610df757610df7610d84565b500290565b60008219821115610e0f57610e0f610d84565b500190565b634e487b7160e01b600052604160045260246000fd5b600081610e3957610e39610d84565b50600019019056fea2646970667358221220bc78ae80785e29e7367598aab0c72be6afb37c522dc31c511dc09f9debdffb3b64736f6c63430008090033",
  "immutableReferences": {},
  "source": "// SPDX-License-Identifier: MIT\r\npragma solidity ^0.8.9;\r\n\r\nimport \"./IGateKeeper.sol\";\r\nimport \"@openzeppelin/contracts/access/AccessControlEnumerable.sol\";\r\n\r\n/**\r\n * @title Access Control contract\r\n * @dev Contract module that implements Openzeppelin access control contract\r\n * {AccessControlEnumerable}. It also implement {IGateKeeper} interface to provide\r\n * generic functionalities\r\n *\r\n * ERC165 `supportsInterface` method is implemented in order to allow the callers to verify\r\n * that GateKeeper implements {IGateKeeper} interface\r\n * Roles are referred to by their `bytes32` identifier. The roles are unique. It is expected\r\n * from callers to hash their roles using keccak256 before calling functions of the contract.\r\n */\r\ncontract GateKeeper is IGateKeeper, AccessControlEnumerable {\r\n    /**\r\n     * @dev Grants `DEFAULT_ADMIN_ROLE` to `msg.sender`.\r\n     *\r\n     * When deploying the contract, the deployer `msg.sender` is granted  the default admin role\r\n     * by calling OpenZeppelin {AccessControl} `_setupRole` method. This method is only called once\r\n     * during the creation of the contract\r\n     */\r\n    constructor() {\r\n        _setupRole(DEFAULT_ADMIN_ROLE, msg.sender);\r\n    }\r\n\r\n    /// @dev Restricted to members of the admin role.\r\n    modifier onlyAdmin(bytes32 roleId) {\r\n        require(isAdmin(roleId, msg.sender), \"Restricted to admins.\");\r\n        _;\r\n    }\r\n    /// @dev Restricted to members of the role passed as a parameter.\r\n    modifier onlyMember(bytes32 roleId) {\r\n        require(isAssigned(roleId, msg.sender), \"Restricted to members.\");\r\n        _;\r\n    }\r\n\r\n    /**\r\n     * @inheritdoc IGateKeeper\r\n     */\r\n    function addAdmin(bytes32 roleId, address account)\r\n        external\r\n        onlyAdmin(roleId)\r\n    {\r\n        bytes32 adminRoleId = getRoleAdmin(roleId);\r\n        grantRole(adminRoleId, account);\r\n        emit NewAdmin(roleId, account, msg.sender);\r\n    }\r\n\r\n    /**\r\n     * @inheritdoc IGateKeeper\r\n     */\r\n    function addAssignment(bytes32 roleId, address account)\r\n        external\r\n        onlyAdmin(roleId)\r\n    {\r\n        grantRole(roleId, account);\r\n        emit NewAssignment(roleId, account, msg.sender);\r\n    }\r\n\r\n    /**\r\n     * @inheritdoc IGateKeeper\r\n     */\r\n    function addRole(bytes32 roleId, bytes32 adminRoleId)\r\n        external\r\n        onlyMember(adminRoleId)\r\n    {\r\n        _setRoleAdmin(roleId, adminRoleId);\r\n        emit NewRole(roleId, adminRoleId, msg.sender);\r\n    }\r\n\r\n    /**\r\n     * @inheritdoc IGateKeeper\r\n     */\r\n    function getAssigneeAt(bytes32 roleId, uint256 index)\r\n        external\r\n        view\r\n        returns (address)\r\n    {\r\n        return getRoleMember(roleId, index);\r\n    }\r\n\r\n    /**\r\n     * @inheritdoc IGateKeeper\r\n     */\r\n    function getAssigneesCount(bytes32 roleId) external view returns (uint256) {\r\n        return getRoleMemberCount(roleId);\r\n    }\r\n\r\n    /**\r\n     * @inheritdoc IGateKeeper\r\n     *\r\n     * @notice retrieve first the `roleId`'s admin role by calling `getRoleAdmin` of {AccessControl}\r\n     */\r\n    function isAdmin(bytes32 roleId, address account)\r\n        public\r\n        view\r\n        returns (bool)\r\n    {\r\n        bytes32 adminRoleId = getRoleAdmin(roleId);\r\n        return hasRole(adminRoleId, account);\r\n    }\r\n\r\n    /**\r\n     * @inheritdoc IGateKeeper\r\n     */\r\n    function isAssigned(bytes32 roleId, address account)\r\n        public\r\n        view\r\n        returns (bool)\r\n    {\r\n        return hasRole(roleId, account);\r\n    }\r\n\r\n    /**\r\n     * @inheritdoc IGateKeeper\r\n     */\r\n    function removeAssignment(bytes32 roleId, address account)\r\n        external\r\n        onlyAdmin(roleId)\r\n    {\r\n        revokeRole(roleId, account);\r\n        emit RemoveAssignment(roleId, account, msg.sender);\r\n    }\r\n\r\n    /**\r\n     * @inheritdoc IGateKeeper\r\n     */\r\n    function renounceAdmin(bytes32 roleId) external onlyAdmin(roleId) {\r\n        bytes32 adminRoleId = getRoleAdmin(roleId);\r\n        renounceRole(adminRoleId, msg.sender);\r\n        emit RenounceAdministration(roleId, msg.sender);\r\n    }\r\n\r\n    /**\r\n     * @dev See {IERC165-supportsInterface}.\r\n     */\r\n    function supportsInterface(bytes4 interfaceId)\r\n        public\r\n        pure\r\n        override\r\n        returns (bool)\r\n    {\r\n        return interfaceId == type(IGateKeeper).interfaceId;\r\n    }\r\n}\r\n",
  "sourcePath": "/home/aelmanaa/playground/blockchain-developer-bootcamp-final-project/contracts/access/GateKeeper.sol",
  "compiler": {
    "name": "solc",
    "version": "0.8.9+commit.e5eed63a.Emscripten.clang"
  },
  "schemaVersion": "3.4.3",
  "updatedAt": "2021-10-02T10:26:30.712Z",
  "devdoc": {
    "details": "Contract module that implements Openzeppelin access control contract {AccessControlEnumerable}. It also implement {IGateKeeper} interface to provide generic functionalities ERC165 `supportsInterface` method is implemented in order to allow the callers to verify that GateKeeper implements {IGateKeeper} interface Roles are referred to by their `bytes32` identifier. The roles are unique. It is expected from callers to hash their roles using keccak256 before calling functions of the contract.",
    "kind": "dev",
    "methods": {
      "addAdmin(bytes32,address)": {
        "details": "Assign `roleId`'s admin role to `account`. Emits a {NewAdmin} event. Requirements: - the caller must have `roleId`'s admin role.",
        "params": {
          "account": "additional administrator of roleId",
          "roleId": "unique 32-byte word representation of a role"
        }
      },
      "addAssignment(bytes32,address)": {
        "details": "Assign `roleId` to `account`. Emits a {NewAssignment} event. Requirements: - the caller must have `roleId`'s admin role.",
        "params": {
          "account": "new members of roleId.",
          "roleId": "unique 32-byte word representation of a role."
        }
      },
      "addRole(bytes32,bytes32)": {
        "details": "Create new `roleId` with `adminRoleId` as admin role. Emits a {NewRole} event. Requirements: - the caller must be assigned `adminRoleId`.",
        "params": {
          "adminRoleId": "roleId's administrator role.",
          "roleId": "unique 32-byte word representation of a role."
        }
      },
      "constructor": {
        "details": "Grants `DEFAULT_ADMIN_ROLE` to `msg.sender`. When deploying the contract, the deployer `msg.sender` is granted  the default admin role by calling OpenZeppelin {AccessControl} `_setupRole` method. This method is only called once during the creation of the contract"
      },
      "getAssigneeAt(bytes32,uint256)": {
        "details": "Get the account assigned the `roleId` at `index`.",
        "params": {
          "index": "since role is assgned to an array of assignees, index is the position in the assignees array.",
          "roleId": "unique 32-byte word representation of a role."
        },
        "returns": {
          "_0": "address address of the roleId's assignee at index."
        }
      },
      "getAssigneesCount(bytes32)": {
        "details": "Get number of accounts assigned the `roleId`.",
        "params": {
          "roleId": "unique 32-byte word representation of a role."
        },
        "returns": {
          "_0": "number of roleId's assignees."
        }
      },
      "getRoleAdmin(bytes32)": {
        "details": "Returns the admin role that controls `role`. See {grantRole} and {revokeRole}. To change a role's admin, use {_setRoleAdmin}."
      },
      "getRoleMember(bytes32,uint256)": {
        "details": "Returns one of the accounts that have `role`. `index` must be a value between 0 and {getRoleMemberCount}, non-inclusive. Role bearers are not sorted in any particular way, and their ordering may change at any point. WARNING: When using {getRoleMember} and {getRoleMemberCount}, make sure you perform all queries on the same block. See the following https://forum.openzeppelin.com/t/iterating-over-elements-on-enumerableset-in-openzeppelin-contracts/2296[forum post] for more information."
      },
      "getRoleMemberCount(bytes32)": {
        "details": "Returns the number of accounts that have `role`. Can be used together with {getRoleMember} to enumerate all bearers of a role."
      },
      "grantRole(bytes32,address)": {
        "details": "Overload {grantRole} to track enumerable memberships"
      },
      "hasRole(bytes32,address)": {
        "details": "Returns `true` if `account` has been granted `role`."
      },
      "isAdmin(bytes32,address)": {
        "details": "Returns `true` if `account` is admin of `roleId`.",
        "params": {
          "account": "roleId's administrator account.",
          "roleId": "unique 32-byte word representation of a role."
        },
        "returns": {
          "_0": "bool `true` if `account` is admin of `roleId`."
        }
      },
      "isAssigned(bytes32,address)": {
        "details": "Returns `true` if `account` is granted `roleId`.",
        "params": {
          "account": "roleId's assignee.",
          "roleId": "unique 32-byte word representation of a role."
        },
        "returns": {
          "_0": "bool `true` if `account` is granted `roleId`."
        }
      },
      "removeAssignment(bytes32,address)": {
        "details": "Revokes `roleId` from `account`. If `account` had been granted `roleId`, emits a {RemoveAssignment} event. Requirements: - the caller must have `roleId`'s admin role.",
        "params": {
          "account": "roleId's assignee.",
          "roleId": "unique 32-byte word representation of a role."
        }
      },
      "renounceAdmin(bytes32)": {
        "details": "Renounce administration of `roleId`. If the caller is administator of `roleId`, emits a {RenounceAdministration} event. Requirements: - the caller must have `roleId`'s admin role.",
        "params": {
          "roleId": "unique 32-byte word representation of a role."
        }
      },
      "renounceRole(bytes32,address)": {
        "details": "Overload {renounceRole} to track enumerable memberships"
      },
      "revokeRole(bytes32,address)": {
        "details": "Overload {revokeRole} to track enumerable memberships"
      },
      "supportsInterface(bytes4)": {
        "details": "See {IERC165-supportsInterface}."
      }
    },
    "title": "Access Control contract",
    "version": 1
  },
  "userdoc": {
    "kind": "user",
    "methods": {
      "isAdmin(bytes32,address)": {
        "notice": "retrieve first the `roleId`'s admin role by calling `getRoleAdmin` of {AccessControl}"
      }
    },
    "version": 1
  }
}