{
  "contractName": "Insurance",
  "abi": [
    {
      "inputs": [
        {
          "internalType": "address",
          "name": "_gatekeeper",
          "type": "address"
        },
        {
          "internalType": "address",
          "name": "_oracleFacade",
          "type": "address"
        }
      ],
      "stateMutability": "nonpayable",
      "type": "constructor"
    },
    {
      "anonymous": false,
      "inputs": [
        {
          "indexed": true,
          "internalType": "address",
          "name": "rootAdmin",
          "type": "address"
        }
      ],
      "name": "ContractOff",
      "type": "event"
    },
    {
      "anonymous": false,
      "inputs": [
        {
          "indexed": true,
          "internalType": "address",
          "name": "rootAdmin",
          "type": "address"
        }
      ],
      "name": "ContractOn",
      "type": "event"
    },
    {
      "anonymous": false,
      "inputs": [
        {
          "indexed": true,
          "internalType": "uint16",
          "name": "season",
          "type": "uint16"
        },
        {
          "indexed": false,
          "internalType": "bytes32",
          "name": "region",
          "type": "bytes32"
        },
        {
          "indexed": false,
          "internalType": "bytes32",
          "name": "farmID",
          "type": "bytes32"
        },
        {
          "indexed": true,
          "internalType": "address",
          "name": "insurer",
          "type": "address"
        },
        {
          "indexed": false,
          "internalType": "bytes32",
          "name": "key",
          "type": "bytes32"
        }
      ],
      "name": "InsuranceActivated",
      "type": "event"
    },
    {
      "anonymous": false,
      "inputs": [
        {
          "indexed": true,
          "internalType": "uint16",
          "name": "season",
          "type": "uint16"
        },
        {
          "indexed": false,
          "internalType": "bytes32",
          "name": "region",
          "type": "bytes32"
        },
        {
          "indexed": false,
          "internalType": "bytes32",
          "name": "farmID",
          "type": "bytes32"
        },
        {
          "indexed": false,
          "internalType": "uint256",
          "name": "size",
          "type": "uint256"
        },
        {
          "indexed": true,
          "internalType": "address",
          "name": "farmer",
          "type": "address"
        },
        {
          "indexed": true,
          "internalType": "address",
          "name": "insurer",
          "type": "address"
        },
        {
          "indexed": false,
          "internalType": "address",
          "name": "government",
          "type": "address"
        },
        {
          "indexed": false,
          "internalType": "uint256",
          "name": "totalStaked",
          "type": "uint256"
        },
        {
          "indexed": false,
          "internalType": "uint256",
          "name": "compensation",
          "type": "uint256"
        },
        {
          "indexed": false,
          "internalType": "uint256",
          "name": "changeGovernment",
          "type": "uint256"
        },
        {
          "indexed": false,
          "internalType": "enum Common.Severity",
          "name": "severity",
          "type": "uint8"
        },
        {
          "indexed": false,
          "internalType": "bytes32",
          "name": "key",
          "type": "bytes32"
        }
      ],
      "name": "InsuranceClosed",
      "type": "event"
    },
    {
      "anonymous": false,
      "inputs": [
        {
          "indexed": true,
          "internalType": "uint16",
          "name": "season",
          "type": "uint16"
        },
        {
          "indexed": false,
          "internalType": "bytes32",
          "name": "region",
          "type": "bytes32"
        },
        {
          "indexed": false,
          "internalType": "bytes32",
          "name": "farmID",
          "type": "bytes32"
        },
        {
          "indexed": false,
          "internalType": "uint256",
          "name": "size",
          "type": "uint256"
        },
        {
          "indexed": true,
          "internalType": "address",
          "name": "farmer",
          "type": "address"
        },
        {
          "indexed": true,
          "internalType": "address",
          "name": "insurer",
          "type": "address"
        },
        {
          "indexed": false,
          "internalType": "address",
          "name": "government",
          "type": "address"
        },
        {
          "indexed": false,
          "internalType": "uint256",
          "name": "totalStaked",
          "type": "uint256"
        },
        {
          "indexed": false,
          "internalType": "uint256",
          "name": "compensation",
          "type": "uint256"
        },
        {
          "indexed": false,
          "internalType": "enum Common.Severity",
          "name": "severity",
          "type": "uint8"
        },
        {
          "indexed": false,
          "internalType": "bytes32",
          "name": "key",
          "type": "bytes32"
        }
      ],
      "name": "InsuranceCompensated",
      "type": "event"
    },
    {
      "anonymous": false,
      "inputs": [
        {
          "indexed": true,
          "internalType": "uint16",
          "name": "season",
          "type": "uint16"
        },
        {
          "indexed": false,
          "internalType": "bytes32",
          "name": "region",
          "type": "bytes32"
        },
        {
          "indexed": false,
          "internalType": "bytes32",
          "name": "farmID",
          "type": "bytes32"
        },
        {
          "indexed": false,
          "internalType": "uint256",
          "name": "size",
          "type": "uint256"
        },
        {
          "indexed": false,
          "internalType": "uint256",
          "name": "fee",
          "type": "uint256"
        },
        {
          "indexed": true,
          "internalType": "address",
          "name": "farmer",
          "type": "address"
        },
        {
          "indexed": false,
          "internalType": "bytes32",
          "name": "key",
          "type": "bytes32"
        }
      ],
      "name": "InsuranceRequested",
      "type": "event"
    },
    {
      "anonymous": false,
      "inputs": [
        {
          "indexed": true,
          "internalType": "uint16",
          "name": "season",
          "type": "uint16"
        },
        {
          "indexed": false,
          "internalType": "bytes32",
          "name": "region",
          "type": "bytes32"
        },
        {
          "indexed": false,
          "internalType": "bytes32",
          "name": "farmID",
          "type": "bytes32"
        },
        {
          "indexed": false,
          "internalType": "uint256",
          "name": "totalStaked",
          "type": "uint256"
        },
        {
          "indexed": true,
          "internalType": "address",
          "name": "government",
          "type": "address"
        },
        {
          "indexed": false,
          "internalType": "bytes32",
          "name": "key",
          "type": "bytes32"
        }
      ],
      "name": "InsuranceValidated",
      "type": "event"
    },
    {
      "anonymous": false,
      "inputs": [
        {
          "indexed": true,
          "internalType": "address",
          "name": "oldGateKeeper",
          "type": "address"
        },
        {
          "indexed": true,
          "internalType": "address",
          "name": "newGateKeeper",
          "type": "address"
        }
      ],
      "name": "NewGateKeeper",
      "type": "event"
    },
    {
      "anonymous": false,
      "inputs": [
        {
          "indexed": true,
          "internalType": "address",
          "name": "previousOwner",
          "type": "address"
        },
        {
          "indexed": true,
          "internalType": "address",
          "name": "newOwner",
          "type": "address"
        }
      ],
      "name": "OwnershipTransferred",
      "type": "event"
    },
    {
      "anonymous": false,
      "inputs": [
        {
          "indexed": false,
          "internalType": "uint256",
          "name": "value",
          "type": "uint256"
        },
        {
          "indexed": false,
          "internalType": "uint256",
          "name": "balance",
          "type": "uint256"
        },
        {
          "indexed": true,
          "internalType": "address",
          "name": "sender",
          "type": "address"
        }
      ],
      "name": "ReceivedETH",
      "type": "event"
    },
    {
      "anonymous": false,
      "inputs": [
        {
          "indexed": true,
          "internalType": "address",
          "name": "insurer",
          "type": "address"
        },
        {
          "indexed": false,
          "internalType": "uint256",
          "name": "amount",
          "type": "uint256"
        },
        {
          "indexed": false,
          "internalType": "uint256",
          "name": "balance",
          "type": "uint256"
        }
      ],
      "name": "WithdrawInsurer",
      "type": "event"
    },
    {
      "inputs": [],
      "name": "ADMIN_ROLE",
      "outputs": [
        {
          "internalType": "bytes32",
          "name": "",
          "type": "bytes32"
        }
      ],
      "stateMutability": "view",
      "type": "function",
      "constant": true
    },
    {
      "inputs": [],
      "name": "DEFAULT_ADMIN_ROLE",
      "outputs": [
        {
          "internalType": "bytes32",
          "name": "",
          "type": "bytes32"
        }
      ],
      "stateMutability": "view",
      "type": "function",
      "constant": true
    },
    {
      "inputs": [],
      "name": "FARMER_ROLE",
      "outputs": [
        {
          "internalType": "bytes32",
          "name": "",
          "type": "bytes32"
        }
      ],
      "stateMutability": "view",
      "type": "function",
      "constant": true
    },
    {
      "inputs": [],
      "name": "GOVERNMENT_ROLE",
      "outputs": [
        {
          "internalType": "bytes32",
          "name": "",
          "type": "bytes32"
        }
      ],
      "stateMutability": "view",
      "type": "function",
      "constant": true
    },
    {
      "inputs": [],
      "name": "HALF_PERMIUM_PER_HA",
      "outputs": [
        {
          "internalType": "uint256",
          "name": "",
          "type": "uint256"
        }
      ],
      "stateMutability": "view",
      "type": "function",
      "constant": true
    },
    {
      "inputs": [],
      "name": "INSURER_ROLE",
      "outputs": [
        {
          "internalType": "bytes32",
          "name": "",
          "type": "bytes32"
        }
      ],
      "stateMutability": "view",
      "type": "function",
      "constant": true
    },
    {
      "inputs": [],
      "name": "KEEPER_FEE",
      "outputs": [
        {
          "internalType": "uint256",
          "name": "",
          "type": "uint256"
        }
      ],
      "stateMutability": "view",
      "type": "function",
      "constant": true
    },
    {
      "inputs": [],
      "name": "KEEPER_ROLE",
      "outputs": [
        {
          "internalType": "bytes32",
          "name": "",
          "type": "bytes32"
        }
      ],
      "stateMutability": "view",
      "type": "function",
      "constant": true
    },
    {
      "inputs": [],
      "name": "ORACLE_ROLE",
      "outputs": [
        {
          "internalType": "bytes32",
          "name": "",
          "type": "bytes32"
        }
      ],
      "stateMutability": "view",
      "type": "function",
      "constant": true
    },
    {
      "inputs": [],
      "name": "PERMIUM_PER_HA",
      "outputs": [
        {
          "internalType": "uint256",
          "name": "",
          "type": "uint256"
        }
      ],
      "stateMutability": "view",
      "type": "function",
      "constant": true
    },
    {
      "inputs": [
        {
          "internalType": "address",
          "name": "payee",
          "type": "address"
        }
      ],
      "name": "depositsOf",
      "outputs": [
        {
          "internalType": "uint256",
          "name": "",
          "type": "uint256"
        }
      ],
      "stateMutability": "view",
      "type": "function",
      "constant": true
    },
    {
      "inputs": [],
      "name": "getBalance",
      "outputs": [
        {
          "internalType": "uint256",
          "name": "",
          "type": "uint256"
        }
      ],
      "stateMutability": "view",
      "type": "function",
      "constant": true
    },
    {
      "inputs": [],
      "name": "getEscrow",
      "outputs": [
        {
          "internalType": "address",
          "name": "",
          "type": "address"
        }
      ],
      "stateMutability": "view",
      "type": "function",
      "constant": true
    },
    {
      "inputs": [],
      "name": "getGateKeeper",
      "outputs": [
        {
          "internalType": "address",
          "name": "",
          "type": "address"
        }
      ],
      "stateMutability": "view",
      "type": "function",
      "constant": true
    },
    {
      "inputs": [],
      "name": "getGateKeeperSupportedInterface",
      "outputs": [
        {
          "internalType": "bytes4",
          "name": "",
          "type": "bytes4"
        }
      ],
      "stateMutability": "pure",
      "type": "function",
      "constant": true
    },
    {
      "inputs": [],
      "name": "isContractActive",
      "outputs": [
        {
          "internalType": "bool",
          "name": "",
          "type": "bool"
        }
      ],
      "stateMutability": "view",
      "type": "function",
      "constant": true
    },
    {
      "inputs": [],
      "name": "owner",
      "outputs": [
        {
          "internalType": "address",
          "name": "",
          "type": "address"
        }
      ],
      "stateMutability": "view",
      "type": "function",
      "constant": true
    },
    {
      "inputs": [],
      "name": "renounceOwnership",
      "outputs": [],
      "stateMutability": "nonpayable",
      "type": "function"
    },
    {
      "inputs": [
        {
          "internalType": "address",
          "name": "_gateKeeper",
          "type": "address"
        }
      ],
      "name": "setGateKeeper",
      "outputs": [],
      "stateMutability": "nonpayable",
      "type": "function"
    },
    {
      "inputs": [],
      "name": "switchContractOff",
      "outputs": [],
      "stateMutability": "nonpayable",
      "type": "function"
    },
    {
      "inputs": [],
      "name": "switchContractOn",
      "outputs": [],
      "stateMutability": "nonpayable",
      "type": "function"
    },
    {
      "inputs": [],
      "name": "totalOpenContracts",
      "outputs": [
        {
          "internalType": "uint256",
          "name": "",
          "type": "uint256"
        }
      ],
      "stateMutability": "view",
      "type": "function",
      "constant": true
    },
    {
      "inputs": [],
      "name": "totalOpenSize",
      "outputs": [
        {
          "internalType": "uint256",
          "name": "",
          "type": "uint256"
        }
      ],
      "stateMutability": "view",
      "type": "function",
      "constant": true
    },
    {
      "inputs": [
        {
          "internalType": "address",
          "name": "newOwner",
          "type": "address"
        }
      ],
      "name": "transferOwnership",
      "outputs": [],
      "stateMutability": "nonpayable",
      "type": "function"
    },
    {
      "inputs": [],
      "name": "withdraw",
      "outputs": [],
      "stateMutability": "nonpayable",
      "type": "function"
    },
    {
      "stateMutability": "payable",
      "type": "receive",
      "payable": true
    },
    {
      "inputs": [
        {
          "internalType": "bytes32",
          "name": "_key",
          "type": "bytes32"
        }
      ],
      "name": "getContract1",
      "outputs": [
        {
          "internalType": "bytes32",
          "name": "key",
          "type": "bytes32"
        },
        {
          "internalType": "bytes32",
          "name": "farmID",
          "type": "bytes32"
        },
        {
          "internalType": "enum Insurance.ContractState",
          "name": "state",
          "type": "uint8"
        },
        {
          "internalType": "address",
          "name": "farmer",
          "type": "address"
        },
        {
          "internalType": "address",
          "name": "government",
          "type": "address"
        },
        {
          "internalType": "address",
          "name": "insurer",
          "type": "address"
        },
        {
          "internalType": "uint256",
          "name": "size",
          "type": "uint256"
        }
      ],
      "stateMutability": "view",
      "type": "function",
      "constant": true
    },
    {
      "inputs": [
        {
          "internalType": "bytes32",
          "name": "_key",
          "type": "bytes32"
        }
      ],
      "name": "getContract2",
      "outputs": [
        {
          "internalType": "bytes32",
          "name": "region",
          "type": "bytes32"
        },
        {
          "internalType": "uint16",
          "name": "season",
          "type": "uint16"
        },
        {
          "internalType": "uint256",
          "name": "totalStaked",
          "type": "uint256"
        },
        {
          "internalType": "uint256",
          "name": "compensation",
          "type": "uint256"
        },
        {
          "internalType": "uint256",
          "name": "changeGovernment",
          "type": "uint256"
        },
        {
          "internalType": "enum Common.Severity",
          "name": "severity",
          "type": "uint8"
        }
      ],
      "stateMutability": "view",
      "type": "function",
      "constant": true
    },
    {
      "inputs": [
        {
          "internalType": "uint16",
          "name": "_season",
          "type": "uint16"
        },
        {
          "internalType": "bytes32",
          "name": "_region",
          "type": "bytes32"
        },
        {
          "internalType": "bytes32",
          "name": "_farmID",
          "type": "bytes32"
        }
      ],
      "name": "getContractData1",
      "outputs": [
        {
          "internalType": "bytes32",
          "name": "key",
          "type": "bytes32"
        },
        {
          "internalType": "bytes32",
          "name": "farmID",
          "type": "bytes32"
        },
        {
          "internalType": "enum Insurance.ContractState",
          "name": "state",
          "type": "uint8"
        },
        {
          "internalType": "address",
          "name": "farmer",
          "type": "address"
        },
        {
          "internalType": "address",
          "name": "government",
          "type": "address"
        },
        {
          "internalType": "address",
          "name": "insurer",
          "type": "address"
        },
        {
          "internalType": "uint256",
          "name": "size",
          "type": "uint256"
        }
      ],
      "stateMutability": "view",
      "type": "function",
      "constant": true
    },
    {
      "inputs": [
        {
          "internalType": "uint16",
          "name": "_season",
          "type": "uint16"
        },
        {
          "internalType": "bytes32",
          "name": "_region",
          "type": "bytes32"
        },
        {
          "internalType": "bytes32",
          "name": "_farmID",
          "type": "bytes32"
        }
      ],
      "name": "getContractData2",
      "outputs": [
        {
          "internalType": "bytes32",
          "name": "region",
          "type": "bytes32"
        },
        {
          "internalType": "uint16",
          "name": "season",
          "type": "uint16"
        },
        {
          "internalType": "uint256",
          "name": "totalStaked",
          "type": "uint256"
        },
        {
          "internalType": "uint256",
          "name": "compensation",
          "type": "uint256"
        },
        {
          "internalType": "uint256",
          "name": "changeGovernment",
          "type": "uint256"
        },
        {
          "internalType": "enum Common.Severity",
          "name": "severity",
          "type": "uint8"
        }
      ],
      "stateMutability": "view",
      "type": "function",
      "constant": true
    },
    {
      "inputs": [
        {
          "internalType": "bytes32",
          "name": "key",
          "type": "bytes32"
        }
      ],
      "name": "getNumberClosedContractsByKey",
      "outputs": [
        {
          "internalType": "uint256",
          "name": "",
          "type": "uint256"
        }
      ],
      "stateMutability": "view",
      "type": "function",
      "constant": true
    },
    {
      "inputs": [
        {
          "internalType": "uint16",
          "name": "season",
          "type": "uint16"
        },
        {
          "internalType": "bytes32",
          "name": "region",
          "type": "bytes32"
        }
      ],
      "name": "getNumberClosedContracts",
      "outputs": [
        {
          "internalType": "uint256",
          "name": "",
          "type": "uint256"
        }
      ],
      "stateMutability": "view",
      "type": "function",
      "constant": true
    },
    {
      "inputs": [
        {
          "internalType": "bytes32",
          "name": "key",
          "type": "bytes32"
        },
        {
          "internalType": "uint256",
          "name": "index",
          "type": "uint256"
        }
      ],
      "name": "getClosedContractsAtByKey",
      "outputs": [
        {
          "internalType": "bytes32",
          "name": "",
          "type": "bytes32"
        }
      ],
      "stateMutability": "view",
      "type": "function",
      "constant": true
    },
    {
      "inputs": [
        {
          "internalType": "uint16",
          "name": "season",
          "type": "uint16"
        },
        {
          "internalType": "bytes32",
          "name": "region",
          "type": "bytes32"
        },
        {
          "internalType": "uint256",
          "name": "index",
          "type": "uint256"
        }
      ],
      "name": "getClosedContractsAt",
      "outputs": [
        {
          "internalType": "bytes32",
          "name": "",
          "type": "bytes32"
        }
      ],
      "stateMutability": "view",
      "type": "function",
      "constant": true
    },
    {
      "inputs": [
        {
          "internalType": "uint16",
          "name": "season",
          "type": "uint16"
        },
        {
          "internalType": "bytes32",
          "name": "region",
          "type": "bytes32"
        },
        {
          "internalType": "bytes32",
          "name": "farmID",
          "type": "bytes32"
        }
      ],
      "name": "getContractKey",
      "outputs": [
        {
          "internalType": "bytes32",
          "name": "",
          "type": "bytes32"
        }
      ],
      "stateMutability": "pure",
      "type": "function",
      "constant": true
    },
    {
      "inputs": [
        {
          "internalType": "uint16",
          "name": "season",
          "type": "uint16"
        },
        {
          "internalType": "bytes32",
          "name": "region",
          "type": "bytes32"
        }
      ],
      "name": "getSeasonRegionKey",
      "outputs": [
        {
          "internalType": "bytes32",
          "name": "",
          "type": "bytes32"
        }
      ],
      "stateMutability": "pure",
      "type": "function",
      "constant": true
    },
    {
      "inputs": [
        {
          "internalType": "bytes32",
          "name": "key",
          "type": "bytes32"
        }
      ],
      "name": "getNumberOpenContractsByKey",
      "outputs": [
        {
          "internalType": "uint256",
          "name": "",
          "type": "uint256"
        }
      ],
      "stateMutability": "view",
      "type": "function",
      "constant": true
    },
    {
      "inputs": [
        {
          "internalType": "uint16",
          "name": "season",
          "type": "uint16"
        },
        {
          "internalType": "bytes32",
          "name": "region",
          "type": "bytes32"
        }
      ],
      "name": "getNumberOpenContracts",
      "outputs": [
        {
          "internalType": "uint256",
          "name": "",
          "type": "uint256"
        }
      ],
      "stateMutability": "view",
      "type": "function",
      "constant": true
    },
    {
      "inputs": [
        {
          "internalType": "bytes32",
          "name": "key",
          "type": "bytes32"
        },
        {
          "internalType": "uint256",
          "name": "index",
          "type": "uint256"
        }
      ],
      "name": "getOpenContractsAtByKey",
      "outputs": [
        {
          "internalType": "bytes32",
          "name": "",
          "type": "bytes32"
        }
      ],
      "stateMutability": "view",
      "type": "function",
      "constant": true
    },
    {
      "inputs": [
        {
          "internalType": "uint16",
          "name": "season",
          "type": "uint16"
        },
        {
          "internalType": "bytes32",
          "name": "region",
          "type": "bytes32"
        },
        {
          "internalType": "uint256",
          "name": "index",
          "type": "uint256"
        }
      ],
      "name": "getOpenContractsAt",
      "outputs": [
        {
          "internalType": "bytes32",
          "name": "",
          "type": "bytes32"
        }
      ],
      "stateMutability": "view",
      "type": "function",
      "constant": true
    },
    {
      "inputs": [
        {
          "internalType": "uint16",
          "name": "season",
          "type": "uint16"
        },
        {
          "internalType": "bytes32",
          "name": "region",
          "type": "bytes32"
        },
        {
          "internalType": "bytes32",
          "name": "farmID",
          "type": "bytes32"
        }
      ],
      "name": "activate",
      "outputs": [],
      "stateMutability": "nonpayable",
      "type": "function"
    },
    {
      "inputs": [],
      "name": "minimumAmount",
      "outputs": [
        {
          "internalType": "uint256",
          "name": "",
          "type": "uint256"
        }
      ],
      "stateMutability": "view",
      "type": "function",
      "constant": true
    },
    {
      "inputs": [
        {
          "internalType": "uint16",
          "name": "season",
          "type": "uint16"
        },
        {
          "internalType": "bytes32",
          "name": "region",
          "type": "bytes32"
        },
        {
          "internalType": "bytes32",
          "name": "farmID",
          "type": "bytes32"
        },
        {
          "internalType": "uint256",
          "name": "size",
          "type": "uint256"
        }
      ],
      "name": "register",
      "outputs": [
        {
          "internalType": "bytes32",
          "name": "",
          "type": "bytes32"
        }
      ],
      "stateMutability": "payable",
      "type": "function",
      "payable": true
    },
    {
      "inputs": [
        {
          "internalType": "uint16",
          "name": "season",
          "type": "uint16"
        },
        {
          "internalType": "bytes32",
          "name": "region",
          "type": "bytes32"
        },
        {
          "internalType": "bytes32",
          "name": "farmID",
          "type": "bytes32"
        }
      ],
      "name": "validate",
      "outputs": [],
      "stateMutability": "payable",
      "type": "function",
      "payable": true
    },
    {
      "inputs": [
        {
          "internalType": "uint16",
          "name": "season",
          "type": "uint16"
        },
        {
          "internalType": "bytes32",
          "name": "region",
          "type": "bytes32"
        }
      ],
      "name": "process",
      "outputs": [],
      "stateMutability": "nonpayable",
      "type": "function"
    },
    {
      "inputs": [
        {
          "internalType": "uint256",
          "name": "amount",
          "type": "uint256"
        }
      ],
      "name": "withdrawInsurer",
      "outputs": [],
      "stateMutability": "nonpayable",
      "type": "function"
    },
    {
      "inputs": [],
      "name": "withdrawableInsurer",
      "outputs": [
        {
          "internalType": "uint256",
          "name": "",
          "type": "uint256"
        }
      ],
      "stateMutability": "view",
      "type": "function",
      "constant": true
    }
  ],
  "bytecode": "0x60806040526003805460ff60a01b191690553480156200001e57600080fd5b50604051620049ff380380620049ff83398101604081905262000041916200060e565b816200004d33620001a7565b600180556200005c81620001f7565b6040516200006a90620005e3565b604051809103906000f08015801562000087573d6000803e3d6000fd5b50600380546001600160a01b039283166001600160a01b031991821617909155600a60208190527fbbc70db1b6c7afd11e79c0fb0051300458f1a3acb8ee9789d9b6b26c61ad9bc7805460ff199081169091557fbff4442b8ed600beeb8e26b1279a0f0d14c6edfaec26d968ee13c86f7d4c2ba88054821660059081179091557fa856840544dc26124927add067d799967eac11be13e14d82cc281ea46fa39759805483169093179092557fe1eb2b2161a492c07c5a334e48012567cba93ec021043f53c1955516a3c5a8418054821660141790556000919091527ff35035bc2b01d44bd35a1dcdc552315cffb73da35cfd60570b7b777f98036f9f80549091166019179055600480549490921693169290921790915550620008169050565b600080546001600160a01b038381166001600160a01b0319831681178455604051919092169283917f8be0079c531659141344cd1fd0a4f28419497f9722a3daafe3b4186f6b6457e09190a35050565b6000546001600160a01b03163314620002575760405162461bcd60e51b815260206004820181905260248201527f4f776e61626c653a2063616c6c6572206973206e6f7420746865206f776e657260448201526064015b60405180910390fd5b60026001541415620002ac5760405162461bcd60e51b815260206004820152601f60248201527f5265656e7472616e637947756172643a207265656e7472616e742063616c6c0060448201526064016200024e565b60026001556040516301ffc9a760e01b815263b579696f60e01b600482015281906001600160a01b038216906301ffc9a79060240160206040518083038186803b158015620002fa57600080fd5b505afa1580156200030f573d6000803e3d6000fd5b505050506040513d601f19601f8201168201806040525081019062000335919062000646565b62000356826001600160a01b031660146200042360201b6200305a1760201c565b6200037e63b579696f60e01b60e01c63ffffffff1660046200042360201b6200305a1760201c565b604051602001620003919291906200069d565b60405160208183030381529060405290620003c15760405162461bcd60e51b81526004016200024e919062000748565b506002546040516001600160a01b038085169216907f8777fa7924fda0bcb032966b349f02744e9fd68c26dc0f80675b86f7a1fdeae190600090a350600280546001600160a01b0319166001600160a01b039290921691909117905560018055565b606060006200043483600262000793565b62000441906002620007b5565b6001600160401b038111156200045b576200045b620007d0565b6040519080825280601f01601f19166020018201604052801562000486576020820181803683370190505b509050600360fc1b81600081518110620004a457620004a4620007e6565b60200101906001600160f81b031916908160001a905350600f60fb1b81600181518110620004d657620004d6620007e6565b60200101906001600160f81b031916908160001a9053506000620004fc84600262000793565b62000509906001620007b5565b90505b60018111156200058b576f181899199a1a9b1b9c1cb0b131b232b360811b85600f1660108110620005415762000541620007e6565b1a60f81b8282815181106200055a576200055a620007e6565b60200101906001600160f81b031916908160001a90535060049490941c936200058381620007fc565b90506200050c565b508315620005dc5760405162461bcd60e51b815260206004820181905260248201527f537472696e67733a20686578206c656e67746820696e73756666696369656e7460448201526064016200024e565b9392505050565b6105f2806200440d83390190565b80516001600160a01b03811681146200060957600080fd5b919050565b600080604083850312156200062257600080fd5b6200062d83620005f1565b91506200063d60208401620005f1565b90509250929050565b6000602082840312156200065957600080fd5b81518015158114620005dc57600080fd5b60005b83811015620006875781810151838201526020016200066d565b8381111562000697576000848401525b50505050565b7f50726f766964656420676174656b656570657220616464726573732000000000815260008351620006d781601c8501602088016200066a565b7f20646f6573206e6f7420696d706c656d656e742049476174654b656570657220601c918401918201527f696e7465726661636520776869636820696e7465726661636549442069732000603c82015283516200073c81605b8401602088016200066a565b01605b01949350505050565b6020815260008251806020840152620007698160408501602087016200066a565b601f01601f19169190910160400192915050565b634e487b7160e01b600052601160045260246000fd5b6000816000190483118215151615620007b057620007b06200077d565b500290565b60008219821115620007cb57620007cb6200077d565b500190565b634e487b7160e01b600052604160045260246000fd5b634e487b7160e01b600052603260045260246000fd5b6000816200080e576200080e6200077d565b506000190190565b613be780620008266000396000f3fe6080604052600436106102815760003560e01c8063849af09a1161014f578063c05bc41f116100c1578063ebf2f7ee1161007a578063ebf2f7ee146108e6578063f2821b3b14610906578063f2fde38b1461091c578063f39439701461093c578063f4887f1514610970578063f57eed281461099057600080fd5b8063c05bc41f1461083b578063c2930e441461085b578063c68dd0371461086e578063d13e566814610890578063d2f34e11146108b0578063e3a9db1a146108c657600080fd5b80639cbed582116101135780639cbed5821461078c5780639ea37a3d146107c0578063a208ae38146107e0578063a217fddf146107fe578063bb0c829814610813578063bef0e77e1461082857600080fd5b8063849af09a146106d65780638a7449f5146106f65780638da5cb5b146107235780638f5949f9146107415780639be7a88a1461076c57600080fd5b8063462c9356116101f35780636a7d943c116101ac5780636a7d943c146105e95780636f5136a31461061b5780636fbea9841461063b578063715018a61461065b57806375b238fc146106705780637ba1a930146106a457600080fd5b8063462c9356146105215780634fbda018146105415780635986f6f2146105615780635cf6ebdd1461058157806360af40fd146105a1578063689018af146105d457600080fd5b806322ffe5f71161024557806322ffe5f714610459578063364bc15a1461047b5780633ccfd60b146104af5780633d1b760b146104c457806343a1bda6146104df578063453dda691461050c57600080fd5b8063056c9989146103a557806307e2cea5146103da57806312065fe01461040e5780631bafc25314610421578063215ef29e1461043d57600080fd5b366103a057600354600160a01b900460ff16156102b95760405162461bcd60e51b81526004016102b0906134d9565b60405180910390fd5b6002546040516336d05bf360e11b8152600080516020613b9283398151915260048201523360248201526001600160a01b0390911690636da0b7e69060440160206040518083038186803b15801561031057600080fd5b505afa158015610324573d6000803e3d6000fd5b505050506040513d601f19601f82011682018060405250810190610348919061350e565b6103645760405162461bcd60e51b81526004016102b090613530565b6040805134815247602082015233917fa28d667a0fe7f4f33601489c23e16c35f05c9191b2a40bb5632ca53ffac586da910160405180910390a2005b600080fd5b3480156103b157600080fd5b506103c7600080516020613b9283398151915281565b6040519081526020015b60405180910390f35b3480156103e657600080fd5b506103c77f68e79a7bf1e0bc45d0a330c573bc367f9cf464fd326078812f301165fbda4ef181565b34801561041a57600080fd5b50476103c7565b34801561042d57600080fd5b506103c7670214e8348c4f000081565b34801561044957600080fd5b506103c767010a741a4627800081565b34801561046557600080fd5b5061047961047436600461357e565b6109a5565b005b34801561048757600080fd5b506103c77ffc8737ab85eb45125971625a9ebdb75cc78e01d5c1fa80c4c6e5203f47bc4fab81565b3480156104bb57600080fd5b5061047961132e565b3480156104d057600080fd5b506103c7662386f26fc1000081565b3480156104eb57600080fd5b506103c76104fa3660046135a8565b60009081526006602052604090205490565b34801561051857600080fd5b50610479611406565b34801561052d57600080fd5b506103c761053c3660046135c1565b611482565b34801561054d57600080fd5b506103c761055c36600461357e565b6114cc565b34801561056d57600080fd5b506103c761057c36600461357e565b61150e565b34801561058d57600080fd5b506103c761059c3660046135c1565b611524565b3480156105ad57600080fd5b506105c16105bc3660046135c1565b611541565b6040516103d19796959493929190613628565b3480156105e057600080fd5b506103c7611583565b3480156105f557600080fd5b506002546001600160a01b03165b6040516001600160a01b0390911681526020016103d1565b34801561062757600080fd5b506103c7610636366004613670565b6115af565b34801561064757600080fd5b506103c761065636600461357e565b611637565b34801561066757600080fd5b50610479611646565b34801561067c57600080fd5b506103c77f10a5d5fcdf1134589e8d07d6f54e37b188b0683cc789901bbcdc48f6d484c17681565b3480156106b057600080fd5b506106c46106bf3660046135c1565b61167a565b6040516103d196959493929190613692565b3480156106e257600080fd5b506106c46106f13660046135a8565b6116b2565b34801561070257600080fd5b506103c76107113660046135a8565b60009081526007602052604090205490565b34801561072f57600080fd5b506000546001600160a01b0316610603565b34801561074d57600080fd5b50600354600160a01b900460ff161560405190151581526020016103d1565b34801561077857600080fd5b506103c7610787366004613670565b611809565b34801561079857600080fd5b506103c77fd9d062b29c8756d894f301c5167d214c34d627724cd7fc859ab9329c9330cf5181565b3480156107cc57600080fd5b506105c16107db3660046135a8565b61187e565b3480156107ec57600080fd5b506003546001600160a01b0316610603565b34801561080a57600080fd5b506103c7600081565b34801561081f57600080fd5b506103c76119c6565b6104796108363660046135c1565b611a48565b34801561084757600080fd5b506103c76108563660046135c1565b6120ab565b6103c76108693660046136d3565b6120c0565b34801561087a57600080fd5b5060405163b579696f60e01b81526020016103d1565b34801561089c57600080fd5b506104796108ab3660046135c1565b612616565b3480156108bc57600080fd5b506103c760085481565b3480156108d257600080fd5b506103c76108e136600461370c565b612b31565b3480156108f257600080fd5b506104796109013660046135a8565b612bb5565b34801561091257600080fd5b506103c760095481565b34801561092857600080fd5b5061047961093736600461370c565b612db4565b34801561094857600080fd5b506103c77f7c6181838a71a779e445600d4c6ecbe16bacf2b3c5bda69c29fada66d1b645d181565b34801561097c57600080fd5b5061047961098b36600461370c565b612e4f565b34801561099c57600080fd5b50610479612fe4565b600354600160a01b900460ff16156109cf5760405162461bcd60e51b81526004016102b0906134d9565b6002546040516336d05bf360e11b81527ffc8737ab85eb45125971625a9ebdb75cc78e01d5c1fa80c4c6e5203f47bc4fab60048201523360248201526001600160a01b0390911690636da0b7e69060440160206040518083038186803b158015610a3857600080fd5b505afa158015610a4c573d6000803e3d6000fd5b505050506040513d601f19601f82011682018060405250810190610a70919061350e565b610ab55760405162461bcd60e51b81526020600482015260166024820152752932b9ba3934b1ba32b2103a379035b2b2b832b9399760511b60448201526064016102b0565b8160026004805460405163495786a760e11b815261ffff8516928101929092526001600160a01b0316906392af0d4e9060240160206040518083038186803b158015610b0057600080fd5b505afa158015610b14573d6000803e3d6000fd5b505050506040513d601f19601f82011682018060405250810190610b389190613735565b6002811115610b4957610b496135f4565b14610b8f5760405162461bcd60e51b815260206004820152601660248201527529b2b0b9b7b71036bab9ba1031329031b637b9b2b21760511b60448201526064016102b0565b60026001541415610bb25760405162461bcd60e51b81526004016102b090613756565b60026001556000610bc384846114cc565b600081815260066020908152604080832080548251818502810185019093528083529495509293909291830182828015610c1c57602002820191906000526020600020905b815481526020019060010190808311610c08575b505050505090506000815111610c9a5760405162461bcd60e51b815260206004820152603d60248201527f4e6f206f70656e20696e737572616e636520636f6e74726163747320746f207060448201527f726f6365737320666f72207468697320736561736f6e2c726567696f6e00000060648201526084016102b0565b600480546040516391e10a1360e01b815261ffff881692810192909252602482018690526000916001600160a01b03909116906391e10a139060440160206040518083038186803b158015610cee57600080fd5b505afa158015610d02573d6000803e3d6000fd5b505050506040513d601f19601f82011682018060405250810190610d26919061378d565b6004805460405163965de0a160e01b815261ffff8a1692810192909252602482018890529192506000916001600160a01b03169063965de0a19060440160206040518083038186803b158015610d7b57600080fd5b505afa158015610d8f573d6000803e3d6000fd5b505050506040513d601f19601f82011682018060405250810190610db391906137ae565b9050600081118015610dd657506000826005811115610dd457610dd46135f4565b145b15610e2f5760405162461bcd60e51b8152602060048201526024808201527f536576657269747920686173206e6f74206265656e2061676772656761746564604482015263081e595d60e21b60648201526084016102b0565b60008360018551610e4091906137dd565b81518110610e5057610e506137f4565b60200260200101519050600060056000838152602001908152602001600020604051806101a001604052908160008201548152602001600182015481526020016002820160009054906101000a900460ff166005811115610eb357610eb36135f4565b6005811115610ec457610ec46135f4565b815260028201546001600160a01b03610100918290048116602084015260038401548116604084015260048401541660608301526005808401546080840152600684015460a0840152600784015461ffff1660c0840152600884015460e0840152600984015491830191909152600a830154610120830152600b8301546101409092019160ff1690811115610f5b57610f5b6135f4565b6005811115610f6c57610f6c6135f4565b90525090506101808101846005811115610f8857610f886135f4565b90816005811115610f9b57610f9b6135f4565b9052506000610fa9826131f6565b600088815260066020526040902080549192509080610fca57610fca61380a565b600082815260208082208301600019908101839055909201909255888252600781526040808320805460018181018355918552838520018790558684526005808452938290208551815592850151838201559084015160028301805486959293919260ff1990911691908490811115611045576110456135f4565b021790555060608201516002820180546001600160a01b03928316610100908102610100600160a81b03199092169190911790915560808401516003840180549184166001600160a01b031992831617905560a08501516004850180549190941691161790915560c083015160058084019190915560e084015160068401559083015160078301805461ffff90921661ffff1990921691909117905561012083015160088301556101408301516009830155610160830151600a830155610180830151600b830180549192909160ff191690600190849081111561112b5761112b6135f4565b02179055509050508060c001516008600082825461114991906137dd565b90915550506009805490600061115e83613820565b9091555050610140810151156111815761118181606001518261014001516133b9565b6101608101511561119f5761119f81608001518261016001516133b9565b6111b033662386f26fc100006133b9565b6005816040015160058111156111c8576111c86135f4565b1415611261578060a001516001600160a01b031681606001516001600160a01b031682610100015161ffff167f50c3451533b5b3b174be1859c0620cf0cf76c494a82b837ed61bfd2e665cc33a8460e0015185602001518660c0015187608001518861012001518961014001518a61018001518b60000151604051611254989796959493929190613837565b60405180910390a46112f7565b8060a001516001600160a01b031681606001516001600160a01b031682610100015161ffff167f2f8ea35021cb1df33059b49ae446a3f72b3ed2fb1587683b71a106b3eb42e9bd8460e0015185602001518660c0015187608001518861012001518961014001518a61016001518b61018001518c600001516040516112ee99989796959493929190613889565b60405180910390a45b505050505050506113066119c6565b4710156113255760405162461bcd60e51b81526004016102b0906138e4565b50506001805550565b600260015414156113515760405162461bcd60e51b81526004016102b090613756565b6002600155600061136133612b31565b116113a35760405162461bcd60e51b81526020600482015260126024820152714e6f7420656e6f7567682062616c616e636560701b60448201526064016102b0565b6003546040516351cff8d960e01b81523360048201526001600160a01b03909116906351cff8d990602401600060405180830381600087803b1580156113e857600080fd5b505af11580156113fc573d6000803e3d6000fd5b5050600180555050565b6000546001600160a01b031633146114305760405162461bcd60e51b81526004016102b09061392d565b600354600160a01b900460ff16611480576003805460ff60a01b1916600160a01b17905560405133907f2c8df3a57558c1da625dac0822756afc39aa81f22772ae7a5b6b37e70feedc9290600090a25b565b6040516001600160f01b031960f085901b16602082015260228101839052604281018290526000906062016040516020818303038152906040528051906020012090509392505050565b6040516001600160f01b031960f084901b1660208201526022810182905260009060420160405160208183030381529060405280519060200120905092915050565b600061151d61071184846114cc565b9392505050565b600061153961153385856114cc565b83611809565b949350505050565b600080600080600080600061155a6107db8b8b8b611482565b809750819850829950839a50849b50859c50869d50505050505050509397509397509397909450565b60008061158e6119c6565b90508047106115a7576115a181476137dd565b91505090565b600091505090565b60008281526007602052604081205482106116045760405162461bcd60e51b815260206004820152601560248201527427baba1037b3103137bab732399030b1b1b2b9b99760591b60448201526064016102b0565b6000838152600760205260409020805483908110611624576116246137f4565b9060005260206000200154905092915050565b600061151d6104fa84846114cc565b6000546001600160a01b031633146116705760405162461bcd60e51b81526004016102b09061392d565b611480600061341e565b60008060008060008060006116908a8a8a611482565b905061169b816116b2565b949f939e50919c509a509850909650945050505050565b600080600080600080600060056000898152602001908152602001600020604051806101a001604052908160008201548152602001600182015481526020016002820160009054906101000a900460ff166005811115611714576117146135f4565b6005811115611725576117256135f4565b815260028201546001600160a01b03610100918290048116602084015260038401548116604084015260048401541660608301526005808401546080840152600684015460a0840152600784015461ffff1660c0840152600884015460e0840152600984015491830191909152600a830154610120830152600b8301546101409092019160ff16908111156117bc576117bc6135f4565b60058111156117cd576117cd6135f4565b90525060e081015161010082015161012083015161014084015161016085015161018090950151939d929c50909a509850919650945092505050565b600082815260066020526040812054821061185e5760405162461bcd60e51b815260206004820152601560248201527427baba1037b3103137bab732399030b1b1b2b9b99760591b60448201526064016102b0565b6000838152600660205260409020805483908110611624576116246137f4565b600081815260056020818152604080842081516101a08101835281548152600182015493810193909352600281015485948594859485948594859485949384019160ff16908111156118d2576118d26135f4565b60058111156118e3576118e36135f4565b815260028201546001600160a01b03610100918290048116602084015260038401548116604084015260048401541660608301526005808401546080840152600684015460a0840152600784015461ffff1660c0840152600884015460e0840152600984015491830191909152600a830154610120830152600b8301546101409092019160ff169081111561197a5761197a6135f4565b600581111561198b5761198b6135f4565b9052508051602082015160408301516060840151608085015160a086015160c090960151949f939e50919c509a509850919650945092505050565b60056000908152600a60208190527ff35035bc2b01d44bd35a1dcdc552315cffb73da35cfd60570b7b777f98036f9f5460085460ff90911690611a1190670214e8348c4f0000613962565b611a1b9190613962565b611a259190613981565b600954611a3990662386f26fc10000613962565b611a4391906139a3565b905090565b600354600160a01b900460ff1615611a725760405162461bcd60e51b81526004016102b0906134d9565b6002546040516336d05bf360e11b81527fd9d062b29c8756d894f301c5167d214c34d627724cd7fc859ab9329c9330cf5160048201523360248201526001600160a01b0390911690636da0b7e69060440160206040518083038186803b158015611adb57600080fd5b505afa158015611aef573d6000803e3d6000fd5b505050506040513d601f19601f82011682018060405250810190611b13919061350e565b611b5f5760405162461bcd60e51b815260206004820152601960248201527f5265737472696374656420746f20676f7665726e6d656e742e0000000000000060448201526064016102b0565b8260016004805460405163495786a760e11b815261ffff8516928101929092526001600160a01b0316906392af0d4e9060240160206040518083038186803b158015611baa57600080fd5b505afa158015611bbe573d6000803e3d6000fd5b505050506040513d601f19601f82011682018060405250810190611be29190613735565b6002811115611bf357611bf36135f4565b14611c105760405162461bcd60e51b81526004016102b0906139bb565b60026001541415611c335760405162461bcd60e51b81526004016102b090613756565b60026001556000611c45858585611482565b600081815260056020818152604080842081516101a08101835281548152600182015493810193909352600281015495965093949193929084019160ff1690811115611c9357611c936135f4565b6005811115611ca457611ca46135f4565b815260028201546001600160a01b03610100918290048116602084015260038401548116604084015260048401541660608301526005808401546080840152600684015460a0840152600784015461ffff1660c0840152600884015460e0840152600984015491830191909152600a830154610120830152600b8301546101409092019160ff1690811115611d3b57611d3b6135f4565b6005811115611d4c57611d4c6135f4565b81525050905083816020015114611d9d5760405162461bcd60e51b815260206004820152601560248201527410dbdb9d1c9858dd08191bc81b9bdd08195e1a5cdd605a1b60448201526064016102b0565b600181604001516005811115611db557611db56135f4565b14611e0e5760405162461bcd60e51b8152602060048201526024808201527f436f6e7472616374206d75737420626520696e207265676973746572656420736044820152637461746560e01b60648201526084016102b0565b60008160c0015167010a741a46278000611e289190613962565b905080341015611e4a5760405162461bcd60e51b81526004016102b0906139e9565b6002604083015233608083015261012082018051829190611e6c9083906139a3565b915081815250508160056000858152602001908152602001600020600082015181600001556020820151816001015560408201518160020160006101000a81548160ff02191690836005811115611ec557611ec56135f4565b021790555060608201516002820180546001600160a01b03928316610100908102610100600160a81b03199092169190911790915560808401516003840180549184166001600160a01b031992831617905560a08501516004850180549190941691161790915560c083015160058084019190915560e084015160068401559083015160078301805461ffff90921661ffff1990921691909117905561012083015160088301556101408301516009830155610160830151600a830155610180830151600b830180549192909160ff1916906001908490811115611fab57611fab6135f4565b02179055509050508034111561202c57600033611fc883346137dd565b604051600081818185875af1925050503d8060008114612004576040519150601f19603f3d011682016040523d82523d6000602084013e612009565b606091505b505090508061202a5760405162461bcd60e51b81526004016102b090613a2c565b505b6101208201516040805188815260208101889052808201929092526060820185905251339161ffff8a16917fa8c4ec570700ef3176556c39b1498263bb47f34cbe62e9c0e2be444155c755c19181900360800190a350505061208c6119c6565b4710156113fc5760405162461bcd60e51b81526004016102b0906138e4565b60006115396120ba85856114cc565b836115af565b600354600090600160a01b900460ff16156120ed5760405162461bcd60e51b81526004016102b0906134d9565b6002546040516336d05bf360e11b81527f7c6181838a71a779e445600d4c6ecbe16bacf2b3c5bda69c29fada66d1b645d160048201523360248201526001600160a01b0390911690636da0b7e69060440160206040518083038186803b15801561215657600080fd5b505afa15801561216a573d6000803e3d6000fd5b505050506040513d601f19601f8201168201806040525081019061218e919061350e565b6121d35760405162461bcd60e51b81526020600482015260166024820152752932b9ba3934b1ba32b2103a37903330b936b2b9399760511b60448201526064016102b0565b8460016004805460405163495786a760e11b815261ffff8516928101929092526001600160a01b0316906392af0d4e9060240160206040518083038186803b15801561221e57600080fd5b505afa158015612232573d6000803e3d6000fd5b505050506040513d601f19601f820116820180604052508101906122569190613735565b6002811115612267576122676135f4565b146122845760405162461bcd60e51b81526004016102b0906139bb565b600260015414156122a75760405162461bcd60e51b81526004016102b090613756565b600260015560006122b9878787611482565b600081815260056020526040902054909150156123045760405162461bcd60e51b81526020600482015260096024820152684475706c696361746560b81b60448201526064016102b0565b60006123188567010a741a46278000613962565b90508034101561233a5760405162461bcd60e51b81526004016102b0906139e9565b61234261346e565b82815260208082018881526001604080850182815233606087015260c086018b905260e086018d905261ffff8e166101008701526101208601879052600088815260059586905291909120855181559251838301555160028301805486959293919260ff1991909116919084908111156123be576123be6135f4565b021790555060608201516002820180546001600160a01b03928316610100908102610100600160a81b03199092169190911790915560808401516003840180549184166001600160a01b031992831617905560a08501516004850180549190941691161790915560c083015160058084019190915560e084015160068401559083015160078301805461ffff90921661ffff1990921691909117905561012083015160088301556101408301516009830155610160830151600a830155610180830151600b830180549192909160ff19169060019084908111156124a4576124a46135f4565b0217905550905050600660006124ba8b8b6114cc565b815260208082019290925260400160009081208054600181018255908252918120909101849055600880548892906124f39084906139a3565b90915550506009805490600061250883613a56565b9190505550813411156125865760003361252284346137dd565b604051600081818185875af1925050503d806000811461255e576040519150601f19603f3d011682016040523d82523d6000602084013e612563565b606091505b50509050806125845760405162461bcd60e51b81526004016102b090613a2c565b505b60408051898152602081018990529081018790526060810183905260808101849052339061ffff8b16907f4c24069ba4f4dd1081b711ca5be96e7f8baef7dddd63a8c769f01304d93ac6e09060a00160405180910390a350909250506125ea6119c6565b4710156126095760405162461bcd60e51b81526004016102b0906138e4565b5060018055949350505050565b600354600160a01b900460ff16156126405760405162461bcd60e51b81526004016102b0906134d9565b6002546040516336d05bf360e11b8152600080516020613b9283398151915260048201523360248201526001600160a01b0390911690636da0b7e69060440160206040518083038186803b15801561269757600080fd5b505afa1580156126ab573d6000803e3d6000fd5b505050506040513d601f19601f820116820180604052508101906126cf919061350e565b6126eb5760405162461bcd60e51b81526004016102b090613530565b8260016004805460405163495786a760e11b815261ffff8516928101929092526001600160a01b0316906392af0d4e9060240160206040518083038186803b15801561273657600080fd5b505afa15801561274a573d6000803e3d6000fd5b505050506040513d601f19601f8201168201806040525081019061276e9190613735565b600281111561277f5761277f6135f4565b1461279c5760405162461bcd60e51b81526004016102b0906139bb565b600260015414156127bf5760405162461bcd60e51b81526004016102b090613756565b600260015560006127d1858585611482565b600081815260056020818152604080842081516101a08101835281548152600182015493810193909352600281015495965093949193929084019160ff169081111561281f5761281f6135f4565b6005811115612830576128306135f4565b815260028201546001600160a01b03610100918290048116602084015260038401548116604084015260048401541660608301526005808401546080840152600684015460a0840152600784015461ffff1660c0840152600884015460e0840152600984015491830191909152600a830154610120830152600b8301546101409092019160ff16908111156128c7576128c76135f4565b60058111156128d8576128d86135f4565b815250509050838160200151146129295760405162461bcd60e51b815260206004820152601560248201527410dbdb9d1c9858dd08191bc81b9bdd08195e1a5cdd605a1b60448201526064016102b0565b600281604001516005811115612941576129416135f4565b1461299a5760405162461bcd60e51b815260206004820152602360248201527f436f6e7472616374206d75737420626520696e2076616c69646174656420737460448201526261746560e81b60648201526084016102b0565b600360408281019182523360a0840152600084815260056020818152929091208451815591840151600180840191909155925160028301805486959293919260ff199091169184908111156129f1576129f16135f4565b021790555060608201516002820180546001600160a01b03928316610100908102610100600160a81b03199092169190911790915560808401516003840180549184166001600160a01b031992831617905560a08501516004850180549190941691161790915560c083015160058084019190915560e084015160068401559083015160078301805461ffff90921661ffff1990921691909117905561012083015160088301556101408301516009830155610160830151600a830155610180830151600b830180549192909160ff1916906001908490811115612ad757612ad76135f4565b021790555050604080518781526020810187905290810184905233915061ffff8816907f447abfe96a3a0f16e8472697ea8064ec660b5646b6d7561cb923cd75b5c759d49060600160405180910390a3505061208c6119c6565b6003546040516371d4ed8d60e11b81526001600160a01b038381166004830152600092169063e3a9db1a9060240160206040518083038186803b158015612b7757600080fd5b505afa158015612b8b573d6000803e3d6000fd5b505050506040513d601f19601f82011682018060405250810190612baf91906137ae565b92915050565b6002546040516336d05bf360e11b8152600080516020613b9283398151915260048201523360248201526001600160a01b0390911690636da0b7e69060440160206040518083038186803b158015612c0c57600080fd5b505afa158015612c20573d6000803e3d6000fd5b505050506040513d601f19601f82011682018060405250810190612c44919061350e565b612c605760405162461bcd60e51b81526004016102b090613530565b60026001541415612c835760405162461bcd60e51b81526004016102b090613756565b600260015547811115612ce35760405162461bcd60e51b815260206004820152602260248201527f4e6f7420656e6f7567682062616c616e636520696e2074686520636f6e74726160448201526118dd60f21b60648201526084016102b0565b604051600090339083908381818185875af1925050503d8060008114612d25576040519150601f19603f3d011682016040523d82523d6000602084013e612d2a565b606091505b5050905080612d4b5760405162461bcd60e51b81526004016102b090613a2c565b6040805183815247602082015233917fff1a6d8bc8d5dfca0cf50f975a74913bb84845935cad64cf1cf2a552a541dd4d910160405180910390a250612d8e6119c6565b471015612dad5760405162461bcd60e51b81526004016102b0906138e4565b5060018055565b6000546001600160a01b03163314612dde5760405162461bcd60e51b81526004016102b09061392d565b6001600160a01b038116612e435760405162461bcd60e51b815260206004820152602660248201527f4f776e61626c653a206e6577206f776e657220697320746865207a65726f206160448201526564647265737360d01b60648201526084016102b0565b612e4c8161341e565b50565b6000546001600160a01b03163314612e795760405162461bcd60e51b81526004016102b09061392d565b60026001541415612e9c5760405162461bcd60e51b81526004016102b090613756565b60026001556040516301ffc9a760e01b815263b579696f60e01b600482015281906001600160a01b038216906301ffc9a79060240160206040518083038186803b158015612ee957600080fd5b505afa158015612efd573d6000803e3d6000fd5b505050506040513d601f19601f82011682018060405250810190612f21919061350e565b612f35826001600160a01b0316601461305a565b612f4463b579696f600461305a565b604051602001612f55929190613aa1565b60405160208183030381529060405290612f825760405162461bcd60e51b81526004016102b09190613b48565b506002546040516001600160a01b038085169216907f8777fa7924fda0bcb032966b349f02744e9fd68c26dc0f80675b86f7a1fdeae190600090a350600280546001600160a01b0319166001600160a01b039290921691909117905560018055565b6000546001600160a01b0316331461300e5760405162461bcd60e51b81526004016102b09061392d565b600354600160a01b900460ff1615611480576003805460ff60a01b1916905560405133907f52defe2736efa030a55e6dec8f4a0eef68bd16c5fe46e817f2ae941919dba3a190600090a2565b60606000613069836002613962565b6130749060026139a3565b67ffffffffffffffff81111561308c5761308c613b7b565b6040519080825280601f01601f1916602001820160405280156130b6576020820181803683370190505b509050600360fc1b816000815181106130d1576130d16137f4565b60200101906001600160f81b031916908160001a905350600f60fb1b81600181518110613100576131006137f4565b60200101906001600160f81b031916908160001a9053506000613124846002613962565b61312f9060016139a3565b90505b60018111156131a7576f181899199a1a9b1b9c1cb0b131b232b360811b85600f1660108110613163576131636137f4565b1a60f81b828281518110613179576131796137f4565b60200101906001600160f81b031916908160001a90535060049490941c936131a081613820565b9050613132565b50831561151d5760405162461bcd60e51b815260206004820181905260248201527f537472696e67733a20686578206c656e67746820696e73756666696369656e7460448201526064016102b0565b6131fe61346e565b5080600060038260400151600581111561321a5761321a6135f4565b141561331b5760018261018001516005811115613239576132396135f4565b14156132545760006101408301819052610160830152613399565b6000826101800151600581111561326d5761326d6135f4565b14156132a85760028261012001516132859190613981565b61014083015261012082015161329d90600290613981565b610160830152613399565b60019050600a826101200151600a600085610180015160058111156132cf576132cf6135f4565b60058111156132e0576132e06135f4565b81526020810191909152604001600020546132fe919060ff16613962565b6133089190613981565b6101408301526000610160830152613399565b600182604001516005811115613333576133336135f4565b141561334a57610120820151610140830152613399565b600282604001516005811115613362576133626135f4565b141561339957600282610120015161337a9190613981565b61014083015261012082015161339290600290613981565b6101608301525b80156133ab57600560408301526133b3565b600460408301525b50919050565b60035460405163f340fa0160e01b81526001600160a01b0384811660048301529091169063f340fa019083906024016000604051808303818588803b15801561340157600080fd5b505af1158015613415573d6000803e3d6000fd5b50505050505050565b600080546001600160a01b038381166001600160a01b0319831681178455604051919092169283917f8be0079c531659141344cd1fd0a4f28419497f9722a3daafe3b4186f6b6457e09190a35050565b604080516101a0810182526000808252602082018190529091820190815260006020820181905260408201819052606082018190526080820181905260a0820181905260c0820181905260e08201819052610100820181905261012082018190526101409091015290565b6020808252818101527f436f6e74726163742069732063757272656e746c792073757370656e6465642e604082015260600190565b60006020828403121561352057600080fd5b8151801515811461151d57600080fd5b60208082526017908201527f5265737472696374656420746f20696e7375726572732e000000000000000000604082015260600190565b803561ffff8116811461357957600080fd5b919050565b6000806040838503121561359157600080fd5b61359a83613567565b946020939093013593505050565b6000602082840312156135ba57600080fd5b5035919050565b6000806000606084860312156135d657600080fd5b6135df84613567565b95602085013595506040909401359392505050565b634e487b7160e01b600052602160045260246000fd5b60068110612e4c57634e487b7160e01b600052602160045260246000fd5b8781526020810187905260e0810161363f8761360a565b60408201969096526001600160a01b0394851660608201529284166080840152921660a082015260c0015292915050565b6000806040838503121561368357600080fd5b50508035926020909101359150565b600060c08201905087825261ffff871660208301528560408301528460608301528360808301526136c28361360a565b8260a0830152979650505050505050565b600080600080608085870312156136e957600080fd5b6136f285613567565b966020860135965060408601359560600135945092505050565b60006020828403121561371e57600080fd5b81356001600160a01b038116811461151d57600080fd5b60006020828403121561374757600080fd5b81516003811061151d57600080fd5b6020808252601f908201527f5265656e7472616e637947756172643a207265656e7472616e742063616c6c00604082015260600190565b60006020828403121561379f57600080fd5b81516006811061151d57600080fd5b6000602082840312156137c057600080fd5b5051919050565b634e487b7160e01b600052601160045260246000fd5b6000828210156137ef576137ef6137c7565b500390565b634e487b7160e01b600052603260045260246000fd5b634e487b7160e01b600052603160045260246000fd5b60008161382f5761382f6137c7565b506000190190565b88815260208101889052604081018790526001600160a01b03861660608201526080810185905260a0810184905261010081016138738461360a565b60c082019390935260e001529695505050505050565b89815260208101899052604081018890526001600160a01b03871660608201526080810186905260a0810185905260c0810184905261012081016138cc8461360a565b60e08201939093526101000152979650505050505050565b60208082526029908201527f4e6f7420656e6f7567682062616c616e6365207374616b656420696e207468656040820152680818dbdb9d1c9858dd60ba1b606082015260800190565b6020808252818101527f4f776e61626c653a2063616c6c6572206973206e6f7420746865206f776e6572604082015260600190565b600081600019048311821515161561397c5761397c6137c7565b500290565b60008261399e57634e487b7160e01b600052601260045260246000fd5b500490565b600082198211156139b6576139b66137c7565b500190565b60208082526014908201527329b2b0b9b7b71036bab9ba1031329037b832b71760611b604082015260600190565b60208082526023908201527f4e6f7420656e6f756768206d6f6e657920746f2070617920666f72207072656d60408201526269756d60e81b606082015260800190565b60208082526010908201526f2a3930b739b332b9103330b4b632b21760811b604082015260600190565b6000600019821415613a6a57613a6a6137c7565b5060010190565b60005b83811015613a8c578181015183820152602001613a74565b83811115613a9b576000848401525b50505050565b7f50726f766964656420676174656b656570657220616464726573732000000000815260008351613ad981601c850160208801613a71565b7f20646f6573206e6f7420696d706c656d656e742049476174654b656570657220601c918401918201527f696e7465726661636520776869636820696e7465726661636549442069732000603c8201528351613b3c81605b840160208801613a71565b01605b01949350505050565b6020815260008251806020840152613b67816040850160208701613a71565b601f01601f19169190910160400192915050565b634e487b7160e01b600052604160045260246000fdfeeb0a07781e3ee843c0d85f7381c2e1a1e1a6ea86bcdcd944ef649d46e7dcd972a26469706673582212209d98026991f81c350fb89e623e4f03f6e2f7abf21922362f2566435e4a1576dc64736f6c63430008090033608060405234801561001057600080fd5b5061001a3361001f565b61006f565b600080546001600160a01b038381166001600160a01b0319831681178455604051919092169283917f8be0079c531659141344cd1fd0a4f28419497f9722a3daafe3b4186f6b6457e09190a35050565b6105748061007e6000396000f3fe6080604052600436106100555760003560e01c806351cff8d91461005a578063715018a61461007c5780638da5cb5b14610091578063e3a9db1a146100be578063f2fde38b14610102578063f340fa0114610122575b600080fd5b34801561006657600080fd5b5061007a6100753660046104bf565b610135565b005b34801561008857600080fd5b5061007a6101d7565b34801561009d57600080fd5b506000546040516001600160a01b0390911681526020015b60405180910390f35b3480156100ca57600080fd5b506100f46100d93660046104bf565b6001600160a01b031660009081526001602052604090205490565b6040519081526020016100b5565b34801561010e57600080fd5b5061007a61011d3660046104bf565b61020d565b61007a6101303660046104bf565b6102a8565b6000546001600160a01b031633146101685760405162461bcd60e51b815260040161015f906104e3565b60405180910390fd5b6001600160a01b0381166000818152600160205260408120805491905590610190908261033c565b816001600160a01b03167f7084f5476618d8e60b11ef0d7d3f06914655adb8793e28ff7f018d4c76d505d5826040516101cb91815260200190565b60405180910390a25050565b6000546001600160a01b031633146102015760405162461bcd60e51b815260040161015f906104e3565b61020b600061045a565b565b6000546001600160a01b031633146102375760405162461bcd60e51b815260040161015f906104e3565b6001600160a01b03811661029c5760405162461bcd60e51b815260206004820152602660248201527f4f776e61626c653a206e6577206f776e657220697320746865207a65726f206160448201526564647265737360d01b606482015260840161015f565b6102a58161045a565b50565b6000546001600160a01b031633146102d25760405162461bcd60e51b815260040161015f906104e3565b6001600160a01b0381166000908152600160205260408120805434928392916102fc908490610518565b90915550506040518181526001600160a01b038316907f2da466a7b24304f47e87fa2e1e5a81b9831ce54fec19055ce277ca2f39ba42c4906020016101cb565b8047101561038c5760405162461bcd60e51b815260206004820152601d60248201527f416464726573733a20696e73756666696369656e742062616c616e6365000000604482015260640161015f565b6000826001600160a01b03168260405160006040518083038185875af1925050503d80600081146103d9576040519150601f19603f3d011682016040523d82523d6000602084013e6103de565b606091505b50509050806104555760405162461bcd60e51b815260206004820152603a60248201527f416464726573733a20756e61626c6520746f2073656e642076616c75652c207260448201527f6563697069656e74206d61792068617665207265766572746564000000000000606482015260840161015f565b505050565b600080546001600160a01b038381166001600160a01b0319831681178455604051919092169283917f8be0079c531659141344cd1fd0a4f28419497f9722a3daafe3b4186f6b6457e09190a35050565b6001600160a01b03811681146102a557600080fd5b6000602082840312156104d157600080fd5b81356104dc816104aa565b9392505050565b6020808252818101527f4f776e61626c653a2063616c6c6572206973206e6f7420746865206f776e6572604082015260600190565b6000821982111561053957634e487b7160e01b600052601160045260246000fd5b50019056fea26469706673582212201e27c14d8c29def61149c3a29e2598f2ba077c3039a23efd36fefd21cac7369064736f6c63430008090033",
  "immutableReferences": {},
  "source": "// SPDX-License-Identifier: MIT\r\npragma solidity 0.8.9;\r\nimport \"../core/Common.sol\";\r\nimport \"../oracle/OracleFacade.sol\";\r\n\r\n/**\r\n * @title Main insurance contract\r\n * @dev Implement main contract for Insurance. contract between insurance and farmers is materialized in here\r\n *\r\n * @notice inhertit  {Common} contract\r\n */\r\ncontract Insurance is Common {\r\n    /// @dev Emitted when a `contract` is activated by an `insurer` for a given `season` + `region` + `farmID`\r\n    event InsuranceActivated(\r\n        uint16 indexed season,\r\n        bytes32 region,\r\n        bytes32 farmID,\r\n        address indexed insurer,\r\n        bytes32 key\r\n    );\r\n\r\n    /// @dev Emitted when a `contract` is submitted by an `farmer` for a given `season` + `region` + `farmID`\r\n    event InsuranceRequested(\r\n        uint16 indexed season,\r\n        bytes32 region,\r\n        bytes32 farmID,\r\n        uint256 size,\r\n        uint256 fee,\r\n        address indexed farmer,\r\n        bytes32 key\r\n    );\r\n\r\n    /// @dev Emitted when a `contract` is validated by a `government` for a given `season` + `region` + `farmID`\r\n    event InsuranceValidated(\r\n        uint16 indexed season,\r\n        bytes32 region,\r\n        bytes32 farmID,\r\n        uint256 totalStaked,\r\n        address indexed government,\r\n        bytes32 key\r\n    );\r\n\r\n    /// @dev Emitted when a `contract` is closed without any compensation\r\n    event InsuranceClosed(\r\n        uint16 indexed season,\r\n        bytes32 region,\r\n        bytes32 farmID,\r\n        uint256 size,\r\n        address indexed farmer,\r\n        address indexed insurer,\r\n        address government,\r\n        uint256 totalStaked,\r\n        uint256 compensation,\r\n        uint256 changeGovernment,\r\n        Severity severity,\r\n        bytes32 key\r\n    );\r\n\r\n    /// @dev Emitted when a `contract` is closed with any compensation\r\n    event InsuranceCompensated(\r\n        uint16 indexed season,\r\n        bytes32 region,\r\n        bytes32 farmID,\r\n        uint256 size,\r\n        address indexed farmer,\r\n        address indexed insurer,\r\n        address government,\r\n        uint256 totalStaked,\r\n        uint256 compensation,\r\n        Severity severity,\r\n        bytes32 key\r\n    );\r\n\r\n    /// @dev Emitted when an `insurer` withdraws `amount` from the contract. remaining contract balance is `balance`\r\n    event WithdrawInsurer(\r\n        address indexed insurer,\r\n        uint256 amount,\r\n        uint256 balance\r\n    );\r\n\r\n    /**\r\n     * @dev transition state of a contract\r\n     *\r\n     * a contract must be in init state (DEFAULT)\r\n     * a contract transition to (REGISTERED) once a farmer registers himself\r\n     * a contract transition to (VALIDATED) once a government employee validates the demand\r\n     * a contract transition to (INSURED) once an insurer approves the contract\r\n     * a contract transition to (CLOSED) once a season is closed without any drought, hence there are no compensations\r\n     * a contract transition to (COMPENSATED) once a season is closed and there were  drought, hence there are  compensations\r\n     */\r\n    enum ContractState {\r\n        DEFAULT,\r\n        REGISTERED,\r\n        VALIDATED,\r\n        INSURED,\r\n        CLOSED,\r\n        COMPENSATED\r\n    }\r\n\r\n    struct Contract {\r\n        bytes32 key;\r\n        bytes32 farmID;\r\n        ContractState state;\r\n        address farmer;\r\n        address government;\r\n        address insurer;\r\n        uint256 size;\r\n        bytes32 region;\r\n        uint16 season;\r\n        uint256 totalStaked;\r\n        uint256 compensation;\r\n        uint256 changeGovernment;\r\n        Severity severity;\r\n    }\r\n\r\n    /// @dev OracleFacade used to get the status of a season(open/closed) and Severity for a given season + region\r\n    OracleFacade private oracleFacade;\r\n\r\n    /// @dev a contract is a unique combination between season,region,farmID\r\n    mapping(bytes32 => Contract) private contracts;\r\n\r\n    /// @dev contracts that must be treated by season,region\r\n    mapping(bytes32 => bytes32[]) private openContracts;\r\n\r\n    /// @dev contracts that have already been closed by season,region\r\n    mapping(bytes32 => bytes32[]) private closedContracts;\r\n\r\n    uint256 public constant KEEPER_FEE = 0.01 ether;\r\n\r\n    /// @dev needed to track worst case scenario -> must have at anytime money to pay for severity/D4 : 2.5*PERMIUM_PER_HA*totalsize\r\n    uint256 public totalOpenSize;\r\n\r\n    /// @dev needed to track amount to be paid for keepers\r\n    uint256 public totalOpenContracts;\r\n\r\n    /**\r\n     * @dev rules to calculate the compensation\r\n     *\r\n     * D1 gives 0.5 times the premium\r\n     * D2 gives 1 times the premium\r\n     * D3 gives 2 times the premium\r\n     * D4 gives 2.5 times the premium\r\n     */\r\n    mapping(Severity => uint8) private rules;\r\n\r\n    /// @dev premium is  0.15ETH/HA\r\n    uint256 public constant PERMIUM_PER_HA = 150000000 gwei;\r\n\r\n    /// @dev used for calculation (farmer must stake half of premium. Same for government)\r\n    uint256 public constant HALF_PERMIUM_PER_HA = 75000000 gwei;\r\n\r\n    /**\r\n     * @dev Initialize `rules` for compensation. Also setup `gatekeeer` and `oracleFacade`\r\n     *\r\n     */\r\n    constructor(address _gatekeeper, address _oracleFacade)\r\n        Common(_gatekeeper)\r\n    {\r\n        rules[Severity.D0] = 0;\r\n        rules[Severity.D1] = 5;\r\n        rules[Severity.D2] = 10;\r\n        rules[Severity.D3] = 20;\r\n        rules[Severity.D4] = 25;\r\n        oracleFacade = OracleFacade(_oracleFacade);\r\n    }\r\n\r\n    /// @dev modifier to check that at any time there will be enough balance in the contract\r\n    modifier minimumCovered() {\r\n        _;\r\n        require(\r\n            address(this).balance >= minimumAmount(),\r\n            \"Not enough balance staked in the contract\"\r\n        );\r\n    }\r\n\r\n    /// @dev season must be closed in order to check compensations\r\n    modifier seasonClosed(uint16 season) {\r\n        require(\r\n            oracleFacade.getSeasonState(season) == SeasonState.CLOSED,\r\n            \"Season must be closed.\"\r\n        );\r\n        _;\r\n    }\r\n\r\n    /// @dev season must be open in order to receive insurance requests\r\n    modifier seasonOpen(uint16 season) {\r\n        require(\r\n            oracleFacade.getSeasonState(season) == SeasonState.OPEN,\r\n            \"Season must be open.\"\r\n        );\r\n        _;\r\n    }\r\n\r\n    /**\r\n     * @dev retrieve contract data part1\r\n     * @param _key keecak combination of season, region & farmID\r\n     *\r\n     * @return key unique id of the contract\r\n     * @return farmID unique ID of a farm\r\n     * @return state of the contract\r\n     * @return farmer address\r\n     * @return government address\r\n     * @return insurer address\r\n     * @return size number of HA of a farmer (minimum: 1 HA)\r\n     */\r\n    function getContract1(bytes32 _key)\r\n        public\r\n        view\r\n        returns (\r\n            bytes32 key,\r\n            bytes32 farmID,\r\n            ContractState state,\r\n            address farmer,\r\n            address government,\r\n            address insurer,\r\n            uint256 size\r\n        )\r\n    {\r\n        Contract memory _contract = contracts[_key];\r\n        key = _contract.key;\r\n        farmID = _contract.farmID;\r\n        state = _contract.state;\r\n        farmer = _contract.farmer;\r\n        government = _contract.government;\r\n        insurer = _contract.insurer;\r\n        size = _contract.size;\r\n    }\r\n\r\n    /**\r\n     * @dev retrieve contract data part2\r\n     * @param _key keecak combination of season, region & farmID\r\n     *\r\n     * @return region ID of a region\r\n     * @return season (year)\r\n     * @return totalStaked eth that were taked in this contract\r\n     * @return compensation for this contract\r\n     * @return changeGovernment money returned to government\r\n     * @return severity Drought severity fetched from oracleFacade when the contract is closed\r\n     */\r\n    function getContract2(bytes32 _key)\r\n        public\r\n        view\r\n        returns (\r\n            bytes32 region,\r\n            uint16 season,\r\n            uint256 totalStaked,\r\n            uint256 compensation,\r\n            uint256 changeGovernment,\r\n            Severity severity\r\n        )\r\n    {\r\n        Contract memory _contract = contracts[_key];\r\n        region = _contract.region;\r\n        season = _contract.season;\r\n        totalStaked = _contract.totalStaked;\r\n        compensation = _contract.compensation;\r\n        changeGovernment = _contract.changeGovernment;\r\n        severity = _contract.severity;\r\n    }\r\n\r\n    /**\r\n     * @dev retrieve contract data (1st part)\r\n     * @param _season farming season(year)\r\n     * @param _region region ID\r\n     * @param _farmID unique ID of a farm\r\n     *\r\n     * @return key unique ID of the contract\r\n     * @return farmID unique ID of a farm\r\n     * @return state of the contract\r\n     * @return farmer address\r\n     * @return government address\r\n     * @return insurer address\r\n     * @return size number of HA of a farmer (minimum: 1 HA)\r\n     */\r\n    function getContractData1(\r\n        uint16 _season,\r\n        bytes32 _region,\r\n        bytes32 _farmID\r\n    )\r\n        public\r\n        view\r\n        returns (\r\n            bytes32 key,\r\n            bytes32 farmID,\r\n            ContractState state,\r\n            address farmer,\r\n            address government,\r\n            address insurer,\r\n            uint256 size\r\n        )\r\n    {\r\n        (key, farmID, state, farmer, government, insurer, size) = getContract1(\r\n            getContractKey(_season, _region, _farmID)\r\n        );\r\n    }\r\n\r\n    /**\r\n     * @dev retrieve contract data (2nd part)\r\n     * @param _season farming season(year)\r\n     * @param _region region ID\r\n     * @param _farmID unique ID of a farm\r\n     *\r\n     * @return region ID of a region\r\n     * @return season (year)\r\n     * @return totalStaked eth that were taked in this contract\r\n     * @return compensation for this contract\r\n     * @return changeGovernment money returned to government\r\n     * @return severity Drought severity when the contract is closed\r\n     */\r\n    function getContractData2(\r\n        uint16 _season,\r\n        bytes32 _region,\r\n        bytes32 _farmID\r\n    )\r\n        public\r\n        view\r\n        returns (\r\n            bytes32 region,\r\n            uint16 season,\r\n            uint256 totalStaked,\r\n            uint256 compensation,\r\n            uint256 changeGovernment,\r\n            Severity severity\r\n        )\r\n    {\r\n        bytes32 _key = getContractKey(_season, _region, _farmID);\r\n        (\r\n            region,\r\n            season,\r\n            totalStaked,\r\n            compensation,\r\n            changeGovernment,\r\n            severity\r\n        ) = getContract2(_key);\r\n    }\r\n\r\n    /**\r\n     * @dev get number of closed contracts for a given key\r\n     *\r\n     * @param key keccak256 of season + region\r\n     * @return number of closed contracts\r\n     *\r\n     */\r\n    function getNumberClosedContractsByKey(bytes32 key)\r\n        public\r\n        view\r\n        returns (uint256)\r\n    {\r\n        return closedContracts[key].length;\r\n    }\r\n\r\n    /**\r\n     * @dev get number of closed contracts for a given season and region\r\n     *\r\n     * @param season id of a season (year)\r\n     * @param region id of region\r\n     * @return number of closed contracts\r\n     *\r\n     */\r\n    function getNumberClosedContracts(uint16 season, bytes32 region)\r\n        public\r\n        view\r\n        returns (uint256)\r\n    {\r\n        return\r\n            getNumberClosedContractsByKey(getSeasonRegionKey(season, region));\r\n    }\r\n\r\n    /**\r\n     * @dev get a specific closed contract\r\n     *\r\n     * @param key  key keccak256 of season + region\r\n     * @param index position in the array\r\n     * @return key of a contract\r\n     *\r\n     */\r\n    function getClosedContractsAtByKey(bytes32 key, uint256 index)\r\n        public\r\n        view\r\n        returns (bytes32)\r\n    {\r\n        require(closedContracts[key].length > index, \"Out of bounds access.\");\r\n        return closedContracts[key][index];\r\n    }\r\n\r\n    /**\r\n     * @dev get a specific closed contract\r\n     *\r\n     * @param season id of a season (year)\r\n     * @param region id of region\r\n     * @param index position in the array\r\n     * @return key of a contract\r\n     *\r\n     */\r\n    function getClosedContractsAt(\r\n        uint16 season,\r\n        bytes32 region,\r\n        uint256 index\r\n    ) public view returns (bytes32) {\r\n        return\r\n            getClosedContractsAtByKey(\r\n                getSeasonRegionKey(season, region),\r\n                index\r\n            );\r\n    }\r\n\r\n    /**\r\n     * @dev calculate contract key\r\n     *\r\n     * @param season season (year)\r\n     * @param region region id\r\n     * @param farmID farm id\r\n     * @return key (hash value of the 3 parameters)\r\n     *\r\n     */\r\n    function getContractKey(\r\n        uint16 season,\r\n        bytes32 region,\r\n        bytes32 farmID\r\n    ) public pure returns (bytes32) {\r\n        return keccak256(abi.encodePacked(season, region, farmID));\r\n    }\r\n\r\n    /**\r\n     * @dev calculate key of `season`, `region`\r\n     *\r\n     * @param season season (year)\r\n     * @param region region id\r\n     * @return key (hash value of the 2 parameters)\r\n     *\r\n     */\r\n    function getSeasonRegionKey(uint16 season, bytes32 region)\r\n        public\r\n        pure\r\n        returns (bytes32)\r\n    {\r\n        return keccak256(abi.encodePacked(season, region));\r\n    }\r\n\r\n    /**\r\n     * @dev get number of open contracts for a given key\r\n     *\r\n     * @param key keccak256 of season + region\r\n     * @return number of open contracts\r\n     *\r\n     */\r\n    function getNumberOpenContractsByKey(bytes32 key)\r\n        public\r\n        view\r\n        returns (uint256)\r\n    {\r\n        return openContracts[key].length;\r\n    }\r\n\r\n    /**\r\n     * @dev get number of open contracts for a given season and region\r\n     *\r\n     * @param season id of a season (year)\r\n     * @param region id of region\r\n     * @return number of open contracts\r\n     *\r\n     */\r\n    function getNumberOpenContracts(uint16 season, bytes32 region)\r\n        public\r\n        view\r\n        returns (uint256)\r\n    {\r\n        return getNumberOpenContractsByKey(getSeasonRegionKey(season, region));\r\n    }\r\n\r\n    /**\r\n     * @dev get a specific open contract\r\n     *\r\n     * @param key  key keccak256 of season + region\r\n     * @param index position in the array\r\n     * @return key of a contract\r\n     *\r\n     */\r\n    function getOpenContractsAtByKey(bytes32 key, uint256 index)\r\n        public\r\n        view\r\n        returns (bytes32)\r\n    {\r\n        require(openContracts[key].length > index, \"Out of bounds access.\");\r\n        return openContracts[key][index];\r\n    }\r\n\r\n    /**\r\n     * @dev get a specific open contract\r\n     *\r\n     * @param season id of a season (year)\r\n     * @param region id of region\r\n     * @param index position in the array\r\n     * @return key of a contract\r\n     *\r\n     */\r\n    function getOpenContractsAt(\r\n        uint16 season,\r\n        bytes32 region,\r\n        uint256 index\r\n    ) public view returns (bytes32) {\r\n        return\r\n            getOpenContractsAtByKey(getSeasonRegionKey(season, region), index);\r\n    }\r\n\r\n    /**\r\n     * @dev insure a request\r\n     * @param season farming season(year)\r\n     * @param region region ID\r\n     * @param farmID unique ID of a farm\r\n     *\r\n     *  Emits a {InsuranceActivated} event.\r\n     *\r\n     * Requirements:\r\n     * - Contract is active (circuit-breaker)\r\n     * - Can only be called by insurer\r\n     * - Check must exist\r\n     * - Season must be open\r\n     * - contract must be in VALIDATED state\r\n     * - Must be enough eth staked within the contract after the operation\r\n     * @notice call nonReentrant to check against Reentrancy\r\n     */\r\n    function activate(\r\n        uint16 season,\r\n        bytes32 region,\r\n        bytes32 farmID\r\n    )\r\n        external\r\n        onlyActive\r\n        onlyInsurer\r\n        seasonOpen(season)\r\n        nonReentrant\r\n        minimumCovered\r\n    {\r\n        // Generate a unique key for storing the request\r\n        bytes32 key = getContractKey(season, region, farmID);\r\n        Contract memory _contract = contracts[key];\r\n        require(_contract.farmID == farmID, \"Contract do not exist\");\r\n        require(\r\n            _contract.state == ContractState.VALIDATED,\r\n            \"Contract must be in validated state\"\r\n        );\r\n\r\n        _contract.state = ContractState.INSURED;\r\n        _contract.insurer = msg.sender;\r\n        contracts[key] = _contract;\r\n\r\n        emit InsuranceActivated(season, region, farmID, msg.sender, key);\r\n    }\r\n\r\n    /**\r\n     * @dev calculate at anytime the minimum liquidity that must be locked within the contract\r\n     *\r\n     * @return ammount\r\n     *\r\n     * Basically , always enough money to pay keepers and compensation in worst case scenarios\r\n     */\r\n    function minimumAmount() public view returns (uint256) {\r\n        return\r\n            (KEEPER_FEE * totalOpenContracts) +\r\n            (PERMIUM_PER_HA * totalOpenSize * rules[Severity.D4]) /\r\n            10;\r\n    }\r\n\r\n    /**\r\n     * @dev submission of an insurance request by a farmer\r\n     * @param season farming season(year)\r\n     * @param region region ID\r\n     * @param farmID unique ID of a farm\r\n     * @param size number of HA of a farmer (minimum: 1 HA)\r\n     *\r\n     * @return key key of the contract\r\n     *  Emits a {InsuranceRequested} event.\r\n     *\r\n     * Requirements:\r\n     * - contract is Active (circuit-breaker)\r\n     * - Can only be called by farmer\r\n     * - Check non duplicate\r\n     * - Seasonmust be open\r\n     * - Sender must pay for premium\r\n     * - Must be enough eth staked within the contract\r\n     * @notice call nonReentrant to check against Reentrancy\r\n     */\r\n    function register(\r\n        uint16 season,\r\n        bytes32 region,\r\n        bytes32 farmID,\r\n        uint256 size\r\n    )\r\n        external\r\n        payable\r\n        onlyActive\r\n        onlyFarmer\r\n        seasonOpen(season)\r\n        nonReentrant\r\n        minimumCovered\r\n        returns (bytes32)\r\n    {\r\n        // Generate a unique key for storing the request\r\n        bytes32 key = getContractKey(season, region, farmID);\r\n        require(contracts[key].key == 0x0, \"Duplicate\");\r\n        uint256 fee = HALF_PERMIUM_PER_HA * size;\r\n        require(msg.value >= fee, \"Not enough money to pay for premium\");\r\n        Contract memory _contract;\r\n        _contract.key = key;\r\n        _contract.farmID = farmID;\r\n        _contract.state = ContractState.REGISTERED;\r\n        _contract.farmer = msg.sender;\r\n        _contract.size = size;\r\n        _contract.region = region;\r\n        _contract.season = season;\r\n        _contract.totalStaked = fee;\r\n\r\n        contracts[key] = _contract;\r\n\r\n        openContracts[getSeasonRegionKey(season, region)].push(key);\r\n        totalOpenSize += size;\r\n        totalOpenContracts++;\r\n        // return change\r\n        if (msg.value > fee) {\r\n            (bool success, ) = msg.sender.call{value: msg.value - fee}(\"\");\r\n            require(success, \"Transfer failed.\");\r\n        }\r\n\r\n        emit InsuranceRequested(\r\n            season,\r\n            region,\r\n            farmID,\r\n            size,\r\n            fee,\r\n            msg.sender,\r\n            key\r\n        );\r\n\r\n        return key;\r\n    }\r\n\r\n    /**\r\n     * @dev validate a request done by a farmer\r\n     * @param season farming season(year)\r\n     * @param region region ID\r\n     * @param farmID unique ID of a farm\r\n     *\r\n     *  Emits a {InsuranceValidated} event.\r\n     *\r\n     * Requirements:\r\n     * - Contract is active (circuit-breaker)\r\n     * - Can only be called by government\r\n     * - Check contract must exist\r\n     * - Season must be open\r\n     * - Sender must pay for premium\r\n     * - Must be enough eth staked within the contract\r\n     * @notice call nonReentrant to check against Reentrancy\r\n     */\r\n    function validate(\r\n        uint16 season,\r\n        bytes32 region,\r\n        bytes32 farmID\r\n    )\r\n        external\r\n        payable\r\n        onlyActive\r\n        onlyGovernment\r\n        seasonOpen(season)\r\n        nonReentrant\r\n        minimumCovered\r\n    {\r\n        // Generate a unique key for storing the request\r\n        bytes32 key = getContractKey(season, region, farmID);\r\n        Contract memory _contract = contracts[key];\r\n        require(_contract.farmID == farmID, \"Contract do not exist\");\r\n        require(\r\n            _contract.state == ContractState.REGISTERED,\r\n            \"Contract must be in registered state\"\r\n        );\r\n        uint256 fee = HALF_PERMIUM_PER_HA * _contract.size;\r\n        require(msg.value >= fee, \"Not enough money to pay for premium\");\r\n\r\n        _contract.state = ContractState.VALIDATED;\r\n        _contract.government = msg.sender;\r\n        _contract.totalStaked += fee;\r\n\r\n        contracts[key] = _contract;\r\n        // return change\r\n        if (msg.value > fee) {\r\n            (bool success, ) = msg.sender.call{value: msg.value - fee}(\"\");\r\n            require(success, \"Transfer failed.\");\r\n        }\r\n\r\n        emit InsuranceValidated(\r\n            season,\r\n            region,\r\n            farmID,\r\n            _contract.totalStaked,\r\n            msg.sender,\r\n            key\r\n        );\r\n    }\r\n\r\n    /**\r\n     * @dev process an insurance file. triggered by a `keeper`\r\n     * @dev as a combination of `season`,`region` can have several open insurances files, a keeper will have to loop over this function until there are no more open insurances files. looping is done offchain rather than onchain in order to avoid any out of gas exception\r\n     * @param season farming season(year)\r\n     * @param region region ID\r\n     *\r\n     *  Emits a {InsuranceClosed} event in case an insurance file has been closed without any compensation (e.g.: Drought severity <= D1) or returned back becase government has not staked 1/2 of the premium\r\n     *  Emits a {InsuranceCompensated} event in case an insurance file has been processed with compensation (e.g.: Drought severity >= D2)\r\n     *\r\n     * Requirements:\r\n     * - Contract is active (circuit-breaker)\r\n     * - Can only be called by keeper\r\n     * - Check contract must exist\r\n     * - Season must be closed\r\n     * - Must be open contracts to process\r\n     * - Must be enough eth staked within the contract\r\n     * @notice call nonReentrant to check against Reentrancy\r\n     */\r\n    function process(uint16 season, bytes32 region)\r\n        external\r\n        onlyActive\r\n        onlyKeeper\r\n        seasonClosed(season)\r\n        nonReentrant\r\n        minimumCovered\r\n    {\r\n        bytes32 seasonRegionKey = getSeasonRegionKey(season, region);\r\n        bytes32[] memory _openContracts = openContracts[seasonRegionKey];\r\n        require(\r\n            _openContracts.length > 0,\r\n            \"No open insurance contracts to process for this season,region\"\r\n        );\r\n\r\n        Severity severity = oracleFacade.getRegionSeverity(season, region);\r\n        uint256 numberSubmissions = oracleFacade.getSubmissionTotal(\r\n            season,\r\n            region\r\n        );\r\n        require(\r\n            !((numberSubmissions > 0) && (severity == Severity.D)),\r\n            \"Severity has not been aggregated yet\"\r\n        );\r\n        // get last element\r\n        bytes32 key = _openContracts[_openContracts.length - 1];\r\n        Contract memory _contract = contracts[key];\r\n        _contract.severity = severity;\r\n        Contract memory newContract = _process(_contract);\r\n\r\n        // Update internal state\r\n        openContracts[seasonRegionKey].pop();\r\n        closedContracts[seasonRegionKey].push(key);\r\n        contracts[key] = newContract;\r\n        totalOpenSize -= newContract.size;\r\n        totalOpenContracts--;\r\n\r\n        // pay back\r\n        if (newContract.compensation > 0) {\r\n            _deposit(newContract.farmer, newContract.compensation);\r\n        }\r\n        if (newContract.changeGovernment > 0) {\r\n            _deposit(newContract.government, newContract.changeGovernment);\r\n        }\r\n\r\n        // pay keeper for its work\r\n        _deposit(msg.sender, KEEPER_FEE);\r\n\r\n        // emit events\r\n        if (newContract.state == ContractState.COMPENSATED) {\r\n            emit InsuranceCompensated(\r\n                newContract.season,\r\n                newContract.region,\r\n                newContract.farmID,\r\n                newContract.size,\r\n                newContract.farmer,\r\n                newContract.insurer,\r\n                newContract.government,\r\n                newContract.totalStaked,\r\n                newContract.compensation,\r\n                newContract.severity,\r\n                newContract.key\r\n            );\r\n        } else {\r\n            emit InsuranceClosed(\r\n                newContract.season,\r\n                newContract.region,\r\n                newContract.farmID,\r\n                newContract.size,\r\n                newContract.farmer,\r\n                newContract.insurer,\r\n                newContract.government,\r\n                newContract.totalStaked,\r\n                newContract.compensation,\r\n                newContract.changeGovernment,\r\n                newContract.severity,\r\n                newContract.key\r\n            );\r\n        }\r\n    }\r\n\r\n    /**\r\n     * @dev private function to calculate the new version of the insurance contract after processing\r\n     * @param _contract current contract before processing\r\n     * @return newContract new contract after processing\r\n     *\r\n     */\r\n    function _process(Contract memory _contract)\r\n        private\r\n        view\r\n        returns (Contract memory newContract)\r\n    {\r\n        bool isCompensated = false;\r\n        newContract = _contract;\r\n\r\n        if (newContract.state == ContractState.INSURED) {\r\n            if (newContract.severity == Severity.D0) {\r\n                // no compensation if D0\r\n                newContract.compensation = 0;\r\n                newContract.changeGovernment = 0;\r\n            } else if (newContract.severity == Severity.D) {\r\n                // if season closed but oracles didn't do their job by providing data then return the change\r\n                newContract.compensation = newContract.totalStaked / 2;\r\n                newContract.changeGovernment = newContract.totalStaked / 2;\r\n            } else {\r\n                isCompensated = true;\r\n                // calculate compensation\r\n                newContract.compensation =\r\n                    (rules[newContract.severity] * newContract.totalStaked) /\r\n                    10;\r\n                newContract.changeGovernment = 0;\r\n            }\r\n        } else if (newContract.state == ContractState.REGISTERED) {\r\n            // return money back if season closed validation before approval of government\r\n            newContract.compensation = newContract.totalStaked;\r\n        } else if (newContract.state == ContractState.VALIDATED) {\r\n            newContract.compensation = newContract.totalStaked / 2;\r\n            newContract.changeGovernment = newContract.totalStaked / 2;\r\n        }\r\n\r\n        //Update contract state\r\n        if (isCompensated) {\r\n            newContract.state = ContractState.COMPENSATED;\r\n        } else {\r\n            newContract.state = ContractState.CLOSED;\r\n        }\r\n    }\r\n\r\n    /**\r\n     * @dev an insurer can withdraw any excess of liquidity\r\n     * @param amount to be withdrawed\r\n     *\r\n     *  Emits a {WithdrawInsurer} event.\r\n     *\r\n     * Requirements:\r\n     * - Can only be called by insurer\r\n     * - Check non duplicate\r\n     * - Must be enough eth staked within the contract after operation\r\n     * @notice call nonReentrant to check against Reentrancy\r\n     */\r\n    function withdrawInsurer(uint256 amount)\r\n        external\r\n        onlyInsurer\r\n        nonReentrant\r\n        minimumCovered\r\n    {\r\n        require(\r\n            address(this).balance >= amount,\r\n            \"Not enough balance in the contract\"\r\n        );\r\n        (bool success, ) = msg.sender.call{value: amount}(\"\");\r\n        require(success, \"Transfer failed.\");\r\n        emit WithdrawInsurer(msg.sender, amount, address(this).balance);\r\n    }\r\n\r\n    /**\r\n     * @dev check anytime amount that can be withdrawed by insurer\r\n     * @return amount to be withdrawed\r\n     *\r\n     * @notice call nonReentrant to check against Reentrancy\r\n     */\r\n    function withdrawableInsurer() external view returns (uint256) {\r\n        uint256 minimum = minimumAmount();\r\n        if (address(this).balance >= minimum) {\r\n            return address(this).balance - minimum;\r\n        } else {\r\n            return 0;\r\n        }\r\n    }\r\n\r\n    /**\r\n     * @dev function to receive ETH in order to pay keepers and oracles\r\n     *\r\n     * Emits a {ReceivedETH} event.\r\n     *\r\n     * Requirements:\r\n     * - Contract mus be active (circuit-breaker)\r\n     * - the caller must be insurer\r\n     */\r\n    receive() external payable onlyActive onlyInsurer {\r\n        emit ReceivedETH(msg.value, address(this).balance, msg.sender);\r\n    }\r\n}\r\n",
  "sourcePath": "/home/aelmanaa/playground/blockchain-developer-bootcamp-final-project/contracts/insurance/Insurance.sol",
  "compiler": {
    "name": "solc",
    "version": "0.8.9+commit.e5eed63a.Emscripten.clang"
  },
  "schemaVersion": "3.4.3",
  "updatedAt": "2021-11-07T22:44:20.983Z",
  "networkType": "ethereum",
  "devdoc": {
    "details": "Implement main contract for Insurance. contract between insurance and farmers is materialized in here",
    "events": {
      "InsuranceActivated(uint16,bytes32,bytes32,address,bytes32)": {
        "details": "Emitted when a `contract` is activated by an `insurer` for a given `season` + `region` + `farmID`"
      },
      "InsuranceClosed(uint16,bytes32,bytes32,uint256,address,address,address,uint256,uint256,uint256,uint8,bytes32)": {
        "details": "Emitted when a `contract` is closed without any compensation"
      },
      "InsuranceCompensated(uint16,bytes32,bytes32,uint256,address,address,address,uint256,uint256,uint8,bytes32)": {
        "details": "Emitted when a `contract` is closed with any compensation"
      },
      "InsuranceRequested(uint16,bytes32,bytes32,uint256,uint256,address,bytes32)": {
        "details": "Emitted when a `contract` is submitted by an `farmer` for a given `season` + `region` + `farmID`"
      },
      "InsuranceValidated(uint16,bytes32,bytes32,uint256,address,bytes32)": {
        "details": "Emitted when a `contract` is validated by a `government` for a given `season` + `region` + `farmID`"
      },
      "WithdrawInsurer(address,uint256,uint256)": {
        "details": "Emitted when an `insurer` withdraws `amount` from the contract. remaining contract balance is `balance`"
      }
    },
    "kind": "dev",
    "methods": {
      "activate(uint16,bytes32,bytes32)": {
        "details": "insure a request",
        "params": {
          "farmID": "unique ID of a farm  Emits a {InsuranceActivated} event. Requirements: - Contract is active (circuit-breaker) - Can only be called by insurer - Check must exist - Season must be open - contract must be in VALIDATED state - Must be enough eth staked within the contract after the operation",
          "region": "region ID",
          "season": "farming season(year)"
        }
      },
      "constructor": {
        "details": "Initialize `rules` for compensation. Also setup `gatekeeer` and `oracleFacade`"
      },
      "depositsOf(address)": {
        "params": {
          "payee": "The payee address"
        },
        "returns": {
          "_0": "escrow"
        }
      },
      "getBalance()": {
        "details": "retrieve balance of account",
        "returns": {
          "_0": "balance"
        }
      },
      "getClosedContractsAt(uint16,bytes32,uint256)": {
        "details": "get a specific closed contract",
        "params": {
          "index": "position in the array",
          "region": "id of region",
          "season": "id of a season (year)"
        },
        "returns": {
          "_0": "key of a contract"
        }
      },
      "getClosedContractsAtByKey(bytes32,uint256)": {
        "details": "get a specific closed contract",
        "params": {
          "index": "position in the array",
          "key": "key keccak256 of season + region"
        },
        "returns": {
          "_0": "key of a contract"
        }
      },
      "getContract1(bytes32)": {
        "details": "retrieve contract data part1",
        "params": {
          "_key": "keecak combination of season, region & farmID"
        },
        "returns": {
          "farmID": "unique ID of a farm",
          "farmer": "address",
          "government": "address",
          "insurer": "address",
          "key": "unique id of the contract",
          "size": "number of HA of a farmer (minimum: 1 HA)",
          "state": "of the contract"
        }
      },
      "getContract2(bytes32)": {
        "details": "retrieve contract data part2",
        "params": {
          "_key": "keecak combination of season, region & farmID"
        },
        "returns": {
          "changeGovernment": "money returned to government",
          "compensation": "for this contract",
          "region": "ID of a region",
          "season": "(year)",
          "severity": "Drought severity fetched from oracleFacade when the contract is closed",
          "totalStaked": "eth that were taked in this contract"
        }
      },
      "getContractData1(uint16,bytes32,bytes32)": {
        "details": "retrieve contract data (1st part)",
        "params": {
          "_farmID": "unique ID of a farm",
          "_region": "region ID",
          "_season": "farming season(year)"
        },
        "returns": {
          "farmID": "unique ID of a farm",
          "farmer": "address",
          "government": "address",
          "insurer": "address",
          "key": "unique ID of the contract",
          "size": "number of HA of a farmer (minimum: 1 HA)",
          "state": "of the contract"
        }
      },
      "getContractData2(uint16,bytes32,bytes32)": {
        "details": "retrieve contract data (2nd part)",
        "params": {
          "_farmID": "unique ID of a farm",
          "_region": "region ID",
          "_season": "farming season(year)"
        },
        "returns": {
          "changeGovernment": "money returned to government",
          "compensation": "for this contract",
          "region": "ID of a region",
          "season": "(year)",
          "severity": "Drought severity when the contract is closed",
          "totalStaked": "eth that were taked in this contract"
        }
      },
      "getContractKey(uint16,bytes32,bytes32)": {
        "details": "calculate contract key",
        "params": {
          "farmID": "farm id",
          "region": "region id",
          "season": "season (year)"
        },
        "returns": {
          "_0": "key (hash value of the 3 parameters)"
        }
      },
      "getEscrow()": {
        "details": "retrieve the address of the escrow contract",
        "returns": {
          "_0": "address"
        }
      },
      "getGateKeeper()": {
        "details": "retrieve the address of the gateKeeper contract",
        "returns": {
          "_0": "address"
        }
      },
      "getGateKeeperSupportedInterface()": {
        "details": "retrieve the supported interfaceID",
        "returns": {
          "_0": "interfaceId bytes4"
        }
      },
      "getNumberClosedContracts(uint16,bytes32)": {
        "details": "get number of closed contracts for a given season and region",
        "params": {
          "region": "id of region",
          "season": "id of a season (year)"
        },
        "returns": {
          "_0": "number of closed contracts"
        }
      },
      "getNumberClosedContractsByKey(bytes32)": {
        "details": "get number of closed contracts for a given key",
        "params": {
          "key": "keccak256 of season + region"
        },
        "returns": {
          "_0": "number of closed contracts"
        }
      },
      "getNumberOpenContracts(uint16,bytes32)": {
        "details": "get number of open contracts for a given season and region",
        "params": {
          "region": "id of region",
          "season": "id of a season (year)"
        },
        "returns": {
          "_0": "number of open contracts"
        }
      },
      "getNumberOpenContractsByKey(bytes32)": {
        "details": "get number of open contracts for a given key",
        "params": {
          "key": "keccak256 of season + region"
        },
        "returns": {
          "_0": "number of open contracts"
        }
      },
      "getOpenContractsAt(uint16,bytes32,uint256)": {
        "details": "get a specific open contract",
        "params": {
          "index": "position in the array",
          "region": "id of region",
          "season": "id of a season (year)"
        },
        "returns": {
          "_0": "key of a contract"
        }
      },
      "getOpenContractsAtByKey(bytes32,uint256)": {
        "details": "get a specific open contract",
        "params": {
          "index": "position in the array",
          "key": "key keccak256 of season + region"
        },
        "returns": {
          "_0": "key of a contract"
        }
      },
      "getSeasonRegionKey(uint16,bytes32)": {
        "details": "calculate key of `season`, `region`",
        "params": {
          "region": "region id",
          "season": "season (year)"
        },
        "returns": {
          "_0": "key (hash value of the 2 parameters)"
        }
      },
      "isContractActive()": {
        "details": "Returns `true` if contract is active (circuit-breaker).",
        "returns": {
          "_0": "bool `true` if contract is active."
        }
      },
      "minimumAmount()": {
        "details": "calculate at anytime the minimum liquidity that must be locked within the contract",
        "returns": {
          "_0": "ammount Basically , always enough money to pay keepers and compensation in worst case scenarios"
        }
      },
      "owner()": {
        "details": "Returns the address of the current owner."
      },
      "process(uint16,bytes32)": {
        "details": "process an insurance file. triggered by a `keeper`as a combination of `season`,`region` can have several open insurances files, a keeper will have to loop over this function until there are no more open insurances files. looping is done offchain rather than onchain in order to avoid any out of gas exception",
        "params": {
          "region": "region ID  Emits a {InsuranceClosed} event in case an insurance file has been closed without any compensation (e.g.: Drought severity <= D1) or returned back becase government has not staked 1/2 of the premium  Emits a {InsuranceCompensated} event in case an insurance file has been processed with compensation (e.g.: Drought severity >= D2) Requirements: - Contract is active (circuit-breaker) - Can only be called by keeper - Check contract must exist - Season must be closed - Must be open contracts to process - Must be enough eth staked within the contract",
          "season": "farming season(year)"
        }
      },
      "register(uint16,bytes32,bytes32,uint256)": {
        "details": "submission of an insurance request by a farmer",
        "params": {
          "farmID": "unique ID of a farm",
          "region": "region ID",
          "season": "farming season(year)",
          "size": "number of HA of a farmer (minimum: 1 HA)"
        },
        "returns": {
          "_0": "key key of the contract  Emits a {InsuranceRequested} event. Requirements: - contract is Active (circuit-breaker) - Can only be called by farmer - Check non duplicate - Seasonmust be open - Sender must pay for premium - Must be enough eth staked within the contract"
        }
      },
      "renounceOwnership()": {
        "details": "Leaves the contract without owner. It will not be possible to call `onlyOwner` functions anymore. Can only be called by the current owner. NOTE: Renouncing ownership will leave the contract without an owner, thereby removing any functionality that is only available to the owner."
      },
      "setGateKeeper(address)": {
        "details": "Allow to change dynamically access control contract (GateKeeper)",
        "params": {
          "_gateKeeper": "gateKeeper address Requirements: - only owner can change the reference of GateKeeper - ensure that it impelments the right interface"
        }
      },
      "switchContractOff()": {
        "details": "If the contract is active then stop it and emit a {ContractOff} event. Requirements: - the caller must be root admin."
      },
      "switchContractOn()": {
        "details": "If the contract is stopped then active it and emit a {ContractOn} event. Requirements: - the caller must be root admin."
      },
      "transferOwnership(address)": {
        "details": "Transfers ownership of the contract to a new account (`newOwner`). Can only be called by the current owner."
      },
      "validate(uint16,bytes32,bytes32)": {
        "details": "validate a request done by a farmer",
        "params": {
          "farmID": "unique ID of a farm  Emits a {InsuranceValidated} event. Requirements: - Contract is active (circuit-breaker) - Can only be called by government - Check contract must exist - Season must be open - Sender must pay for premium - Must be enough eth staked within the contract",
          "region": "region ID",
          "season": "farming season(year)"
        }
      },
      "withdraw()": {
        "details": "Withdraw accumulated balance for a payee Requirements: - msg.sender must have enough balance in the escrow"
      },
      "withdrawInsurer(uint256)": {
        "details": "an insurer can withdraw any excess of liquidity",
        "params": {
          "amount": "to be withdrawed  Emits a {WithdrawInsurer} event. Requirements: - Can only be called by insurer - Check non duplicate - Must be enough eth staked within the contract after operation"
        }
      },
      "withdrawableInsurer()": {
        "details": "check anytime amount that can be withdrawed by insurer",
        "returns": {
          "_0": "amount to be withdrawed"
        }
      }
    },
    "stateVariables": {
      "HALF_PERMIUM_PER_HA": {
        "details": "used for calculation (farmer must stake half of premium. Same for government)"
      },
      "PERMIUM_PER_HA": {
        "details": "premium is  0.15ETH/HA"
      },
      "closedContracts": {
        "details": "contracts that have already been closed by season,region"
      },
      "contracts": {
        "details": "a contract is a unique combination between season,region,farmID"
      },
      "openContracts": {
        "details": "contracts that must be treated by season,region"
      },
      "oracleFacade": {
        "details": "OracleFacade used to get the status of a season(open/closed) and Severity for a given season + region"
      },
      "rules": {
        "details": "rules to calculate the compensation D1 gives 0.5 times the premium D2 gives 1 times the premium D3 gives 2 times the premium D4 gives 2.5 times the premium"
      },
      "totalOpenContracts": {
        "details": "needed to track amount to be paid for keepers"
      },
      "totalOpenSize": {
        "details": "needed to track worst case scenario -> must have at anytime money to pay for severity/D4 : 2.5*PERMIUM_PER_HA*totalsize"
      }
    },
    "title": "Main insurance contract",
    "version": 1
  },
  "userdoc": {
    "kind": "user",
    "methods": {
      "activate(uint16,bytes32,bytes32)": {
        "notice": "call nonReentrant to check against Reentrancy"
      },
      "process(uint16,bytes32)": {
        "notice": "call nonReentrant to check against Reentrancy"
      },
      "register(uint16,bytes32,bytes32,uint256)": {
        "notice": "call nonReentrant to check against Reentrancy"
      },
      "setGateKeeper(address)": {
        "notice": "call nonReentrant to check against Reentrancy"
      },
      "validate(uint16,bytes32,bytes32)": {
        "notice": "call nonReentrant to check against Reentrancy"
      },
      "withdraw()": {
        "notice": "call nonReentrant to check against Reentrancy"
      },
      "withdrawInsurer(uint256)": {
        "notice": "call nonReentrant to check against Reentrancy"
      },
      "withdrawableInsurer()": {
        "notice": "call nonReentrant to check against Reentrancy"
      }
    },
    "notice": "inhertit  {Common} contract",
    "version": 1
  }
}