{
  "contractName": "OracleFacade",
  "abi": [
    {
      "inputs": [
        {
          "internalType": "address",
          "name": "_oracleCore",
          "type": "address"
        }
      ],
      "stateMutability": "nonpayable",
      "type": "constructor"
    },
    {
      "anonymous": false,
      "inputs": [
        {
          "indexed": true,
          "internalType": "address",
          "name": "oldOracleCore",
          "type": "address"
        },
        {
          "indexed": true,
          "internalType": "address",
          "name": "newOracleCore",
          "type": "address"
        }
      ],
      "name": "NewOracleCore",
      "type": "event"
    },
    {
      "anonymous": false,
      "inputs": [
        {
          "indexed": true,
          "internalType": "address",
          "name": "previousOwner",
          "type": "address"
        },
        {
          "indexed": true,
          "internalType": "address",
          "name": "newOwner",
          "type": "address"
        }
      ],
      "name": "OwnershipTransferred",
      "type": "event"
    },
    {
      "inputs": [],
      "name": "owner",
      "outputs": [
        {
          "internalType": "address",
          "name": "",
          "type": "address"
        }
      ],
      "stateMutability": "view",
      "type": "function",
      "constant": true
    },
    {
      "inputs": [],
      "name": "renounceOwnership",
      "outputs": [],
      "stateMutability": "nonpayable",
      "type": "function"
    },
    {
      "inputs": [
        {
          "internalType": "address",
          "name": "newOwner",
          "type": "address"
        }
      ],
      "name": "transferOwnership",
      "outputs": [],
      "stateMutability": "nonpayable",
      "type": "function"
    },
    {
      "inputs": [],
      "name": "getOracleCore",
      "outputs": [
        {
          "internalType": "address",
          "name": "",
          "type": "address"
        }
      ],
      "stateMutability": "view",
      "type": "function",
      "constant": true
    },
    {
      "inputs": [],
      "name": "getOracleCoreSupportedInterface",
      "outputs": [
        {
          "internalType": "bytes4",
          "name": "",
          "type": "bytes4"
        }
      ],
      "stateMutability": "pure",
      "type": "function",
      "constant": true
    },
    {
      "inputs": [
        {
          "internalType": "uint16",
          "name": "season",
          "type": "uint16"
        },
        {
          "internalType": "bytes32",
          "name": "region",
          "type": "bytes32"
        }
      ],
      "name": "getRegionSeverity",
      "outputs": [
        {
          "internalType": "enum Common.Severity",
          "name": "",
          "type": "uint8"
        }
      ],
      "stateMutability": "view",
      "type": "function",
      "constant": true
    },
    {
      "inputs": [
        {
          "internalType": "uint16",
          "name": "season",
          "type": "uint16"
        },
        {
          "internalType": "bytes32",
          "name": "region",
          "type": "bytes32"
        }
      ],
      "name": "getSubmissionTotal",
      "outputs": [
        {
          "internalType": "uint256",
          "name": "",
          "type": "uint256"
        }
      ],
      "stateMutability": "view",
      "type": "function",
      "constant": true
    },
    {
      "inputs": [
        {
          "internalType": "uint16",
          "name": "season",
          "type": "uint16"
        }
      ],
      "name": "getSeasonState",
      "outputs": [
        {
          "internalType": "enum Common.SeasonState",
          "name": "",
          "type": "uint8"
        }
      ],
      "stateMutability": "view",
      "type": "function",
      "constant": true
    },
    {
      "inputs": [
        {
          "internalType": "address",
          "name": "_oracleCore",
          "type": "address"
        }
      ],
      "name": "setOracle",
      "outputs": [],
      "stateMutability": "nonpayable",
      "type": "function"
    }
  ],
  "bytecode": "0x60806040523480156200001157600080fd5b506040516200118638038062001186833981016040819052620000349162000491565b6200003f3362000055565b600180556200004e81620000a5565b506200068c565b600080546001600160a01b038381166001600160a01b0319831681178455604051919092169283917f8be0079c531659141344cd1fd0a4f28419497f9722a3daafe3b4186f6b6457e09190a35050565b6000546001600160a01b03163314620001055760405162461bcd60e51b815260206004820181905260248201527f4f776e61626c653a2063616c6c6572206973206e6f7420746865206f776e657260448201526064015b60405180910390fd5b600260015414156200015a5760405162461bcd60e51b815260206004820152601f60248201527f5265656e7472616e637947756172643a207265656e7472616e742063616c6c006044820152606401620000fc565b60026001556040516301ffc9a760e01b8152631a149b3760e01b600482015281906001600160a01b038216906301ffc9a79060240160206040518083038186803b158015620001a857600080fd5b505afa158015620001bd573d6000803e3d6000fd5b505050506040513d601f19601f82011682018060405250810190620001e39190620004bc565b62000204826001600160a01b03166014620002d160201b620005b31760201c565b6200022c631a149b3760e01b60e01c63ffffffff166004620002d160201b620005b31760201c565b6040516020016200023f92919062000513565b604051602081830303815290604052906200026f5760405162461bcd60e51b8152600401620000fc9190620005be565b506002546040516001600160a01b038085169216907fb67b8ba570a2dff11bdb3013bd1dcd8e53c6899ef0ec2f8d4d43198977dfec0b90600090a350600280546001600160a01b0319166001600160a01b039290921691909117905560018055565b60606000620002e283600262000609565b620002ef9060026200062b565b6001600160401b0381111562000309576200030962000646565b6040519080825280601f01601f19166020018201604052801562000334576020820181803683370190505b509050600360fc1b816000815181106200035257620003526200065c565b60200101906001600160f81b031916908160001a905350600f60fb1b816001815181106200038457620003846200065c565b60200101906001600160f81b031916908160001a9053506000620003aa84600262000609565b620003b79060016200062b565b90505b600181111562000439576f181899199a1a9b1b9c1cb0b131b232b360811b85600f1660108110620003ef57620003ef6200065c565b1a60f81b8282815181106200040857620004086200065c565b60200101906001600160f81b031916908160001a90535060049490941c93620004318162000672565b9050620003ba565b5083156200048a5760405162461bcd60e51b815260206004820181905260248201527f537472696e67733a20686578206c656e67746820696e73756666696369656e746044820152606401620000fc565b9392505050565b600060208284031215620004a457600080fd5b81516001600160a01b03811681146200048a57600080fd5b600060208284031215620004cf57600080fd5b815180151581146200048a57600080fd5b60005b83811015620004fd578181015183820152602001620004e3565b838111156200050d576000848401525b50505050565b7f50726f7669646564206f7261636c65636f7265206164647265737320000000008152600083516200054d81601c850160208801620004e0565b7f20646f6573206e6f7420696d706c656d656e7420494f7261636c6520696e7465601c918401918201527f726661636520776869636820696e746572666163654944206973200000000000603c8201528351620005b2816057840160208801620004e0565b01605701949350505050565b6020815260008251806020840152620005df816040850160208701620004e0565b601f01601f19169190910160400192915050565b634e487b7160e01b600052601160045260246000fd5b6000816000190483118215151615620006265762000626620005f3565b500290565b60008219821115620006415762000641620005f3565b500190565b634e487b7160e01b600052604160045260246000fd5b634e487b7160e01b600052603260045260246000fd5b600081620006845762000684620005f3565b506000190190565b610aea806200069c6000396000f3fe608060405234801561001057600080fd5b50600436106100935760003560e01c80638da5cb5b116100665780638da5cb5b146100f457806391e10a131461010557806392af0d4e14610125578063965de0a114610145578063f2fde38b1461016657600080fd5b80630f7cc12d146100985780633c5a887b146100c2578063715018a6146100d75780637adbf973146100e1575b600080fd5b6002546001600160a01b03165b6040516001600160a01b0390911681526020015b60405180910390f35b604051631a149b3760e01b81526020016100b9565b6100df610179565b005b6100df6100ef36600461079f565b6101b8565b6000546001600160a01b03166100a5565b6101186101133660046107df565b61037d565b6040516100b9919061081f565b610138610133366004610839565b61040b565b6040516100b99190610854565b6101586101533660046107df565b610491565b6040519081526020016100b9565b6100df61017436600461079f565b610518565b6000546001600160a01b031633146101ac5760405162461bcd60e51b81526004016101a390610868565b60405180910390fd5b6101b6600061074f565b565b6000546001600160a01b031633146101e25760405162461bcd60e51b81526004016101a390610868565b600260015414156102355760405162461bcd60e51b815260206004820152601f60248201527f5265656e7472616e637947756172643a207265656e7472616e742063616c6c0060448201526064016101a3565b60026001556040516301ffc9a760e01b8152631a149b3760e01b600482015281906001600160a01b038216906301ffc9a79060240160206040518083038186803b15801561028257600080fd5b505afa158015610296573d6000803e3d6000fd5b505050506040513d601f19601f820116820180604052508101906102ba919061089d565b6102ce826001600160a01b031660146105b3565b6102dd631a149b3760046105b3565b6040516020016102ee9291906108ef565b6040516020818303038152906040529061031b5760405162461bcd60e51b81526004016101a39190610996565b506002546040516001600160a01b038085169216907fb67b8ba570a2dff11bdb3013bd1dcd8e53c6899ef0ec2f8d4d43198977dfec0b90600090a350600280546001600160a01b0319166001600160a01b039290921691909117905560018055565b6002546040516391e10a1360e01b815261ffff84166004820152602481018390526000916001600160a01b0316906391e10a139060440160206040518083038186803b1580156103cc57600080fd5b505afa1580156103e0573d6000803e3d6000fd5b505050506040513d601f19601f8201168201806040525081019061040491906109c9565b9392505050565b60025460405163495786a760e11b815261ffff831660048201526000916001600160a01b0316906392af0d4e9060240160206040518083038186803b15801561045357600080fd5b505afa158015610467573d6000803e3d6000fd5b505050506040513d601f19601f8201168201806040525081019061048b91906109ea565b92915050565b60025460405163965de0a160e01b815261ffff84166004820152602481018390526000916001600160a01b03169063965de0a19060440160206040518083038186803b1580156104e057600080fd5b505afa1580156104f4573d6000803e3d6000fd5b505050506040513d601f19601f820116820180604052508101906104049190610a0b565b6000546001600160a01b031633146105425760405162461bcd60e51b81526004016101a390610868565b6001600160a01b0381166105a75760405162461bcd60e51b815260206004820152602660248201527f4f776e61626c653a206e6577206f776e657220697320746865207a65726f206160448201526564647265737360d01b60648201526084016101a3565b6105b08161074f565b50565b606060006105c2836002610a3a565b6105cd906002610a59565b67ffffffffffffffff8111156105e5576105e5610a71565b6040519080825280601f01601f19166020018201604052801561060f576020820181803683370190505b509050600360fc1b8160008151811061062a5761062a610a87565b60200101906001600160f81b031916908160001a905350600f60fb1b8160018151811061065957610659610a87565b60200101906001600160f81b031916908160001a905350600061067d846002610a3a565b610688906001610a59565b90505b6001811115610700576f181899199a1a9b1b9c1cb0b131b232b360811b85600f16601081106106bc576106bc610a87565b1a60f81b8282815181106106d2576106d2610a87565b60200101906001600160f81b031916908160001a90535060049490941c936106f981610a9d565b905061068b565b5083156104045760405162461bcd60e51b815260206004820181905260248201527f537472696e67733a20686578206c656e67746820696e73756666696369656e7460448201526064016101a3565b600080546001600160a01b038381166001600160a01b0319831681178455604051919092169283917f8be0079c531659141344cd1fd0a4f28419497f9722a3daafe3b4186f6b6457e09190a35050565b6000602082840312156107b157600080fd5b81356001600160a01b038116811461040457600080fd5b803561ffff811681146107da57600080fd5b919050565b600080604083850312156107f257600080fd5b6107fb836107c8565b946020939093013593505050565b634e487b7160e01b600052602160045260246000fd5b602081016006831061083357610833610809565b91905290565b60006020828403121561084b57600080fd5b610404826107c8565b602081016003831061083357610833610809565b6020808252818101527f4f776e61626c653a2063616c6c6572206973206e6f7420746865206f776e6572604082015260600190565b6000602082840312156108af57600080fd5b8151801515811461040457600080fd5b60005b838110156108da5781810151838201526020016108c2565b838111156108e9576000848401525b50505050565b7f50726f7669646564206f7261636c65636f72652061646472657373200000000081526000835161092781601c8501602088016108bf565b7f20646f6573206e6f7420696d706c656d656e7420494f7261636c6520696e7465601c918401918201527f726661636520776869636820696e746572666163654944206973200000000000603c820152835161098a8160578401602088016108bf565b01605701949350505050565b60208152600082518060208401526109b58160408501602087016108bf565b601f01601f19169190910160400192915050565b6000602082840312156109db57600080fd5b81516006811061040457600080fd5b6000602082840312156109fc57600080fd5b81516003811061040457600080fd5b600060208284031215610a1d57600080fd5b5051919050565b634e487b7160e01b600052601160045260246000fd5b6000816000190483118215151615610a5457610a54610a24565b500290565b60008219821115610a6c57610a6c610a24565b500190565b634e487b7160e01b600052604160045260246000fd5b634e487b7160e01b600052603260045260246000fd5b600081610aac57610aac610a24565b50600019019056fea26469706673582212205842d9f1a193500187894069fe478795f7121e1f398d026ac28a5c10e460fa5064736f6c63430008090033",
  "immutableReferences": {},
  "source": "// SPDX-License-Identifier: MIT\r\npragma solidity 0.8.9;\r\nimport \"../core/Common.sol\";\r\nimport \"./IOracle.sol\";\r\nimport \"@openzeppelin/contracts/interfaces/IERC165.sol\";\r\nimport \"@openzeppelin/contracts/access/Ownable.sol\";\r\nimport \"@openzeppelin/contracts/security/ReentrancyGuard.sol\";\r\n\r\n/**\r\n * @title Oracle interface\r\n * @dev Define what's important for a OracleCore contract to implement. In fact, there can be different versions of a OracleCore contract\r\n *\r\n */\r\ncontract OracleFacade is Ownable, ReentrancyGuard {\r\n    /**\r\n     * @dev Emitted when new oracleCore setup by `owner`.\r\n     */\r\n    event NewOracleCore(\r\n        address indexed oldOracleCore,\r\n        address indexed newOracleCore\r\n    );\r\n\r\n    /// @dev reference to oracle contract\r\n    IOracle private oracleCore;\r\n\r\n    /**\r\n     * @dev Setup `oracleCore`\r\n     *\r\n     */\r\n    constructor(address _oracleCore) {\r\n        setOracle(_oracleCore);\r\n    }\r\n\r\n    /// @dev check interface compliancy. (IERC165)\r\n    modifier checkOracleInterface(address _oracleCore) {\r\n        require(\r\n            IERC165(_oracleCore).supportsInterface(type(IOracle).interfaceId),\r\n            string(\r\n                abi.encodePacked(\r\n                    \"Provided oraclecore address \",\r\n                    Strings.toHexString(uint160(_oracleCore), 20),\r\n                    \" does not implement IOracle interface which interfaceID is \",\r\n                    Strings.toHexString(uint32(type(IOracle).interfaceId), 4)\r\n                )\r\n            )\r\n        );\r\n        _;\r\n    }\r\n\r\n    /// @dev return the current OracleCore address\r\n    function getOracleCore() public view returns (address) {\r\n        return address(oracleCore);\r\n    }\r\n\r\n    /// @dev return the current OracleCore address\r\n    function getOracleCoreSupportedInterface() public pure returns (bytes4) {\r\n        return type(IOracle).interfaceId;\r\n    }\r\n\r\n    /**\r\n     * @dev Retrieve  `severity` of a `region` + `season`.\r\n     *\r\n     * @param season year (e.g. 2021).\r\n     * @param region region code in bytes32\r\n     * @return Common.Severity\r\n     *\r\n     * @notice caller must check Severity. In fact, final severity is calculated after aggregation. if aggregation not triggered yet then Severity will have the default value\r\n     */\r\n    function getRegionSeverity(uint16 season, bytes32 region)\r\n        public\r\n        view\r\n        returns (Common.Severity)\r\n    {\r\n        return oracleCore.getRegionSeverity(season, region);\r\n    }\r\n\r\n    /**\r\n     * @dev Retrieve total submissions for a given `region` and `season`.\r\n     *\r\n     * @param season year (e.g. 2021).\r\n     * @param region region code in bytes32\r\n     *\r\n     * @return number of submissions\r\n     *\r\n     */\r\n    function getSubmissionTotal(uint16 season, bytes32 region)\r\n        public\r\n        view\r\n        returns (uint256)\r\n    {\r\n        return oracleCore.getSubmissionTotal(season, region);\r\n    }\r\n\r\n    /**\r\n     * @dev Retrieve a `season` state.\r\n     *\r\n     * @param season year (e.g. 2021).\r\n     * @return Common.SeasonState .\r\n     */\r\n    function getSeasonState(uint16 season)\r\n        public\r\n        view\r\n        returns (Common.SeasonState)\r\n    {\r\n        return oracleCore.getSeasonState(season);\r\n    }\r\n\r\n    /**\r\n     * @dev Allow to change dynamically oracle\r\n     *\r\n     * @param _oracleCore oracleCore address\r\n     * Requirements:\r\n     * - only owner can change the reference of OracleCore\r\n     * - ensure that it impelments the right interface\r\n     *\r\n     * @notice call nonReentrant to check against Reentrancy\r\n     */\r\n    function setOracle(address _oracleCore)\r\n        public\r\n        onlyOwner\r\n        nonReentrant\r\n        checkOracleInterface(_oracleCore)\r\n    {\r\n        emit NewOracleCore(address(oracleCore), _oracleCore);\r\n        oracleCore = IOracle(_oracleCore);\r\n    }\r\n}\r\n",
  "sourcePath": "/home/aelmanaa/playground/blockchain-developer-bootcamp-final-project/contracts/oracle/OracleFacade.sol",
  "compiler": {
    "name": "solc",
    "version": "0.8.9+commit.e5eed63a.Emscripten.clang"
  },
  "schemaVersion": "3.4.3",
  "updatedAt": "2021-11-07T22:44:20.959Z",
  "networkType": "ethereum",
  "devdoc": {
    "details": "Define what's important for a OracleCore contract to implement. In fact, there can be different versions of a OracleCore contract",
    "events": {
      "NewOracleCore(address,address)": {
        "details": "Emitted when new oracleCore setup by `owner`."
      }
    },
    "kind": "dev",
    "methods": {
      "constructor": {
        "details": "Setup `oracleCore`"
      },
      "getOracleCore()": {
        "details": "return the current OracleCore address"
      },
      "getOracleCoreSupportedInterface()": {
        "details": "return the current OracleCore address"
      },
      "getRegionSeverity(uint16,bytes32)": {
        "details": "Retrieve  `severity` of a `region` + `season`.",
        "params": {
          "region": "region code in bytes32",
          "season": "year (e.g. 2021)."
        },
        "returns": {
          "_0": "Common.Severity"
        }
      },
      "getSeasonState(uint16)": {
        "details": "Retrieve a `season` state.",
        "params": {
          "season": "year (e.g. 2021)."
        },
        "returns": {
          "_0": "Common.SeasonState ."
        }
      },
      "getSubmissionTotal(uint16,bytes32)": {
        "details": "Retrieve total submissions for a given `region` and `season`.",
        "params": {
          "region": "region code in bytes32",
          "season": "year (e.g. 2021)."
        },
        "returns": {
          "_0": "number of submissions"
        }
      },
      "owner()": {
        "details": "Returns the address of the current owner."
      },
      "renounceOwnership()": {
        "details": "Leaves the contract without owner. It will not be possible to call `onlyOwner` functions anymore. Can only be called by the current owner. NOTE: Renouncing ownership will leave the contract without an owner, thereby removing any functionality that is only available to the owner."
      },
      "setOracle(address)": {
        "details": "Allow to change dynamically oracle",
        "params": {
          "_oracleCore": "oracleCore address Requirements: - only owner can change the reference of OracleCore - ensure that it impelments the right interface"
        }
      },
      "transferOwnership(address)": {
        "details": "Transfers ownership of the contract to a new account (`newOwner`). Can only be called by the current owner."
      }
    },
    "stateVariables": {
      "oracleCore": {
        "details": "reference to oracle contract"
      }
    },
    "title": "Oracle interface",
    "version": 1
  },
  "userdoc": {
    "kind": "user",
    "methods": {
      "getRegionSeverity(uint16,bytes32)": {
        "notice": "caller must check Severity. In fact, final severity is calculated after aggregation. if aggregation not triggered yet then Severity will have the default value"
      },
      "setOracle(address)": {
        "notice": "call nonReentrant to check against Reentrancy"
      }
    },
    "version": 1
  }
}