{
  "contractName": "OracleCore",
  "abi": [
    {
      "inputs": [
        {
          "internalType": "address",
          "name": "_gatekeeper",
          "type": "address"
        }
      ],
      "stateMutability": "nonpayable",
      "type": "constructor"
    },
    {
      "anonymous": false,
      "inputs": [
        {
          "indexed": true,
          "internalType": "address",
          "name": "rootAdmin",
          "type": "address"
        }
      ],
      "name": "ContractOff",
      "type": "event"
    },
    {
      "anonymous": false,
      "inputs": [
        {
          "indexed": true,
          "internalType": "address",
          "name": "rootAdmin",
          "type": "address"
        }
      ],
      "name": "ContractOn",
      "type": "event"
    },
    {
      "anonymous": false,
      "inputs": [
        {
          "indexed": true,
          "internalType": "address",
          "name": "oldGateKeeper",
          "type": "address"
        },
        {
          "indexed": true,
          "internalType": "address",
          "name": "newGateKeeper",
          "type": "address"
        }
      ],
      "name": "NewGateKeeper",
      "type": "event"
    },
    {
      "anonymous": false,
      "inputs": [
        {
          "indexed": true,
          "internalType": "address",
          "name": "previousOwner",
          "type": "address"
        },
        {
          "indexed": true,
          "internalType": "address",
          "name": "newOwner",
          "type": "address"
        }
      ],
      "name": "OwnershipTransferred",
      "type": "event"
    },
    {
      "anonymous": false,
      "inputs": [
        {
          "indexed": false,
          "internalType": "uint256",
          "name": "value",
          "type": "uint256"
        },
        {
          "indexed": false,
          "internalType": "uint256",
          "name": "balance",
          "type": "uint256"
        },
        {
          "indexed": true,
          "internalType": "address",
          "name": "sender",
          "type": "address"
        }
      ],
      "name": "ReceivedETH",
      "type": "event"
    },
    {
      "anonymous": false,
      "inputs": [
        {
          "indexed": true,
          "internalType": "uint16",
          "name": "season",
          "type": "uint16"
        },
        {
          "indexed": true,
          "internalType": "address",
          "name": "keeper",
          "type": "address"
        }
      ],
      "name": "SeasonClosed",
      "type": "event"
    },
    {
      "anonymous": false,
      "inputs": [
        {
          "indexed": true,
          "internalType": "uint16",
          "name": "season",
          "type": "uint16"
        },
        {
          "indexed": true,
          "internalType": "address",
          "name": "keeper",
          "type": "address"
        }
      ],
      "name": "SeasonOpen",
      "type": "event"
    },
    {
      "anonymous": false,
      "inputs": [
        {
          "indexed": true,
          "internalType": "uint16",
          "name": "season",
          "type": "uint16"
        },
        {
          "indexed": false,
          "internalType": "bytes32",
          "name": "region",
          "type": "bytes32"
        },
        {
          "indexed": false,
          "internalType": "enum Common.Severity",
          "name": "severity",
          "type": "uint8"
        },
        {
          "indexed": true,
          "internalType": "address",
          "name": "keeper",
          "type": "address"
        }
      ],
      "name": "SeverityAggregated",
      "type": "event"
    },
    {
      "anonymous": false,
      "inputs": [
        {
          "indexed": true,
          "internalType": "uint16",
          "name": "season",
          "type": "uint16"
        },
        {
          "indexed": false,
          "internalType": "bytes32",
          "name": "region",
          "type": "bytes32"
        },
        {
          "indexed": false,
          "internalType": "enum Common.Severity",
          "name": "severity",
          "type": "uint8"
        },
        {
          "indexed": true,
          "internalType": "address",
          "name": "oracle",
          "type": "address"
        }
      ],
      "name": "SeveritySubmitted",
      "type": "event"
    },
    {
      "inputs": [],
      "name": "ADMIN_ROLE",
      "outputs": [
        {
          "internalType": "bytes32",
          "name": "",
          "type": "bytes32"
        }
      ],
      "stateMutability": "view",
      "type": "function",
      "constant": true
    },
    {
      "inputs": [],
      "name": "DEFAULT_ADMIN_ROLE",
      "outputs": [
        {
          "internalType": "bytes32",
          "name": "",
          "type": "bytes32"
        }
      ],
      "stateMutability": "view",
      "type": "function",
      "constant": true
    },
    {
      "inputs": [],
      "name": "FARMER_ROLE",
      "outputs": [
        {
          "internalType": "bytes32",
          "name": "",
          "type": "bytes32"
        }
      ],
      "stateMutability": "view",
      "type": "function",
      "constant": true
    },
    {
      "inputs": [],
      "name": "GOVERNMENT_ROLE",
      "outputs": [
        {
          "internalType": "bytes32",
          "name": "",
          "type": "bytes32"
        }
      ],
      "stateMutability": "view",
      "type": "function",
      "constant": true
    },
    {
      "inputs": [],
      "name": "INSURER_ROLE",
      "outputs": [
        {
          "internalType": "bytes32",
          "name": "",
          "type": "bytes32"
        }
      ],
      "stateMutability": "view",
      "type": "function",
      "constant": true
    },
    {
      "inputs": [],
      "name": "KEEPER_FEE",
      "outputs": [
        {
          "internalType": "uint256",
          "name": "",
          "type": "uint256"
        }
      ],
      "stateMutability": "view",
      "type": "function",
      "constant": true
    },
    {
      "inputs": [],
      "name": "KEEPER_ROLE",
      "outputs": [
        {
          "internalType": "bytes32",
          "name": "",
          "type": "bytes32"
        }
      ],
      "stateMutability": "view",
      "type": "function",
      "constant": true
    },
    {
      "inputs": [],
      "name": "ORACLE_FEE",
      "outputs": [
        {
          "internalType": "uint256",
          "name": "",
          "type": "uint256"
        }
      ],
      "stateMutability": "view",
      "type": "function",
      "constant": true
    },
    {
      "inputs": [],
      "name": "ORACLE_ROLE",
      "outputs": [
        {
          "internalType": "bytes32",
          "name": "",
          "type": "bytes32"
        }
      ],
      "stateMutability": "view",
      "type": "function",
      "constant": true
    },
    {
      "inputs": [
        {
          "internalType": "address",
          "name": "payee",
          "type": "address"
        }
      ],
      "name": "depositsOf",
      "outputs": [
        {
          "internalType": "uint256",
          "name": "",
          "type": "uint256"
        }
      ],
      "stateMutability": "view",
      "type": "function",
      "constant": true
    },
    {
      "inputs": [],
      "name": "getBalance",
      "outputs": [
        {
          "internalType": "uint256",
          "name": "",
          "type": "uint256"
        }
      ],
      "stateMutability": "view",
      "type": "function",
      "constant": true
    },
    {
      "inputs": [],
      "name": "getEscrow",
      "outputs": [
        {
          "internalType": "address",
          "name": "",
          "type": "address"
        }
      ],
      "stateMutability": "view",
      "type": "function",
      "constant": true
    },
    {
      "inputs": [],
      "name": "getGateKeeper",
      "outputs": [
        {
          "internalType": "address",
          "name": "",
          "type": "address"
        }
      ],
      "stateMutability": "view",
      "type": "function",
      "constant": true
    },
    {
      "inputs": [],
      "name": "getGateKeeperSupportedInterface",
      "outputs": [
        {
          "internalType": "bytes4",
          "name": "",
          "type": "bytes4"
        }
      ],
      "stateMutability": "pure",
      "type": "function",
      "constant": true
    },
    {
      "inputs": [],
      "name": "isContractActive",
      "outputs": [
        {
          "internalType": "bool",
          "name": "",
          "type": "bool"
        }
      ],
      "stateMutability": "view",
      "type": "function",
      "constant": true
    },
    {
      "inputs": [],
      "name": "owner",
      "outputs": [
        {
          "internalType": "address",
          "name": "",
          "type": "address"
        }
      ],
      "stateMutability": "view",
      "type": "function",
      "constant": true
    },
    {
      "inputs": [],
      "name": "renounceOwnership",
      "outputs": [],
      "stateMutability": "nonpayable",
      "type": "function"
    },
    {
      "inputs": [
        {
          "internalType": "address",
          "name": "_gateKeeper",
          "type": "address"
        }
      ],
      "name": "setGateKeeper",
      "outputs": [],
      "stateMutability": "nonpayable",
      "type": "function"
    },
    {
      "inputs": [],
      "name": "switchContractOff",
      "outputs": [],
      "stateMutability": "nonpayable",
      "type": "function"
    },
    {
      "inputs": [],
      "name": "switchContractOn",
      "outputs": [],
      "stateMutability": "nonpayable",
      "type": "function"
    },
    {
      "inputs": [
        {
          "internalType": "address",
          "name": "newOwner",
          "type": "address"
        }
      ],
      "name": "transferOwnership",
      "outputs": [],
      "stateMutability": "nonpayable",
      "type": "function"
    },
    {
      "inputs": [],
      "name": "withdraw",
      "outputs": [],
      "stateMutability": "nonpayable",
      "type": "function"
    },
    {
      "stateMutability": "payable",
      "type": "receive",
      "payable": true
    },
    {
      "inputs": [
        {
          "internalType": "uint16",
          "name": "season",
          "type": "uint16"
        },
        {
          "internalType": "bytes32",
          "name": "region",
          "type": "bytes32"
        }
      ],
      "name": "aggregate",
      "outputs": [],
      "stateMutability": "nonpayable",
      "type": "function"
    },
    {
      "inputs": [
        {
          "internalType": "uint16",
          "name": "season",
          "type": "uint16"
        }
      ],
      "name": "closeSeason",
      "outputs": [],
      "stateMutability": "nonpayable",
      "type": "function"
    },
    {
      "inputs": [
        {
          "internalType": "uint16",
          "name": "season",
          "type": "uint16"
        },
        {
          "internalType": "bytes32",
          "name": "region",
          "type": "bytes32"
        }
      ],
      "name": "getRegionSeverity",
      "outputs": [
        {
          "internalType": "enum Common.Severity",
          "name": "",
          "type": "uint8"
        }
      ],
      "stateMutability": "view",
      "type": "function",
      "constant": true
    },
    {
      "inputs": [],
      "name": "getSeasonsNumber",
      "outputs": [
        {
          "internalType": "uint256",
          "name": "",
          "type": "uint256"
        }
      ],
      "stateMutability": "view",
      "type": "function",
      "constant": true
    },
    {
      "inputs": [
        {
          "internalType": "uint256",
          "name": "index",
          "type": "uint256"
        }
      ],
      "name": "getSeasonAt",
      "outputs": [
        {
          "internalType": "uint16",
          "name": "",
          "type": "uint16"
        }
      ],
      "stateMutability": "view",
      "type": "function",
      "constant": true
    },
    {
      "inputs": [
        {
          "internalType": "uint16",
          "name": "season",
          "type": "uint16"
        }
      ],
      "name": "getSeasonState",
      "outputs": [
        {
          "internalType": "enum Common.SeasonState",
          "name": "",
          "type": "uint8"
        }
      ],
      "stateMutability": "view",
      "type": "function",
      "constant": true
    },
    {
      "inputs": [
        {
          "internalType": "uint16",
          "name": "season",
          "type": "uint16"
        },
        {
          "internalType": "bytes32",
          "name": "region",
          "type": "bytes32"
        },
        {
          "internalType": "address",
          "name": "oracle",
          "type": "address"
        }
      ],
      "name": "getSubmission",
      "outputs": [
        {
          "internalType": "enum Common.Severity",
          "name": "",
          "type": "uint8"
        }
      ],
      "stateMutability": "view",
      "type": "function",
      "constant": true
    },
    {
      "inputs": [
        {
          "internalType": "uint16",
          "name": "season",
          "type": "uint16"
        },
        {
          "internalType": "bytes32",
          "name": "region",
          "type": "bytes32"
        },
        {
          "internalType": "enum Common.Severity",
          "name": "severity",
          "type": "uint8"
        }
      ],
      "name": "getSubmissionNumberForSeverity",
      "outputs": [
        {
          "internalType": "uint256",
          "name": "",
          "type": "uint256"
        }
      ],
      "stateMutability": "view",
      "type": "function",
      "constant": true
    },
    {
      "inputs": [
        {
          "internalType": "uint16",
          "name": "season",
          "type": "uint16"
        },
        {
          "internalType": "bytes32",
          "name": "region",
          "type": "bytes32"
        }
      ],
      "name": "getSubmissionTotal",
      "outputs": [
        {
          "internalType": "uint256",
          "name": "",
          "type": "uint256"
        }
      ],
      "stateMutability": "view",
      "type": "function",
      "constant": true
    },
    {
      "inputs": [
        {
          "internalType": "uint16",
          "name": "season",
          "type": "uint16"
        },
        {
          "internalType": "bytes32",
          "name": "region",
          "type": "bytes32"
        },
        {
          "internalType": "uint256",
          "name": "index",
          "type": "uint256"
        }
      ],
      "name": "getSubmitterAt",
      "outputs": [
        {
          "internalType": "address",
          "name": "",
          "type": "address"
        }
      ],
      "stateMutability": "view",
      "type": "function",
      "constant": true
    },
    {
      "inputs": [
        {
          "internalType": "uint16",
          "name": "season",
          "type": "uint16"
        }
      ],
      "name": "openSeason",
      "outputs": [],
      "stateMutability": "nonpayable",
      "type": "function"
    },
    {
      "inputs": [
        {
          "internalType": "uint16",
          "name": "season",
          "type": "uint16"
        },
        {
          "internalType": "bytes32",
          "name": "region",
          "type": "bytes32"
        },
        {
          "internalType": "enum Common.Severity",
          "name": "severity",
          "type": "uint8"
        }
      ],
      "name": "submit",
      "outputs": [],
      "stateMutability": "nonpayable",
      "type": "function"
    },
    {
      "inputs": [
        {
          "internalType": "bytes4",
          "name": "interfaceId",
          "type": "bytes4"
        }
      ],
      "name": "supportsInterface",
      "outputs": [
        {
          "internalType": "bool",
          "name": "",
          "type": "bool"
        }
      ],
      "stateMutability": "pure",
      "type": "function",
      "constant": true
    }
  ],
  "bytecode": "0x60806040526003805460ff60a01b191690553480156200001e57600080fd5b506040516200303c3803806200303c8339810160408190526200004191620004fb565b806200004d33620000b1565b600180556200005c8162000101565b6040516200006a90620004ed565b604051809103906000f08015801562000087573d6000803e3d6000fd5b50600380546001600160a01b0319166001600160a01b039290921691909117905550620006f69050565b600080546001600160a01b038381166001600160a01b0319831681178455604051919092169283917f8be0079c531659141344cd1fd0a4f28419497f9722a3daafe3b4186f6b6457e09190a35050565b6000546001600160a01b03163314620001615760405162461bcd60e51b815260206004820181905260248201527f4f776e61626c653a2063616c6c6572206973206e6f7420746865206f776e657260448201526064015b60405180910390fd5b60026001541415620001b65760405162461bcd60e51b815260206004820152601f60248201527f5265656e7472616e637947756172643a207265656e7472616e742063616c6c00604482015260640162000158565b60026001556040516301ffc9a760e01b815263b579696f60e01b600482015281906001600160a01b038216906301ffc9a79060240160206040518083038186803b1580156200020457600080fd5b505afa15801562000219573d6000803e3d6000fd5b505050506040513d601f19601f820116820180604052508101906200023f919062000526565b62000260826001600160a01b031660146200032d60201b62001b791760201c565b6200028863b579696f60e01b60e01c63ffffffff1660046200032d60201b62001b791760201c565b6040516020016200029b9291906200057d565b60405160208183030381529060405290620002cb5760405162461bcd60e51b815260040162000158919062000628565b506002546040516001600160a01b038085169216907f8777fa7924fda0bcb032966b349f02744e9fd68c26dc0f80675b86f7a1fdeae190600090a350600280546001600160a01b0319166001600160a01b039290921691909117905560018055565b606060006200033e83600262000673565b6200034b90600262000695565b6001600160401b03811115620003655762000365620006b0565b6040519080825280601f01601f19166020018201604052801562000390576020820181803683370190505b509050600360fc1b81600081518110620003ae57620003ae620006c6565b60200101906001600160f81b031916908160001a905350600f60fb1b81600181518110620003e057620003e0620006c6565b60200101906001600160f81b031916908160001a90535060006200040684600262000673565b6200041390600162000695565b90505b600181111562000495576f181899199a1a9b1b9c1cb0b131b232b360811b85600f16601081106200044b576200044b620006c6565b1a60f81b828281518110620004645762000464620006c6565b60200101906001600160f81b031916908160001a90535060049490941c936200048d81620006dc565b905062000416565b508315620004e65760405162461bcd60e51b815260206004820181905260248201527f537472696e67733a20686578206c656e67746820696e73756666696369656e74604482015260640162000158565b9392505050565b6105f28062002a4a83390190565b6000602082840312156200050e57600080fd5b81516001600160a01b0381168114620004e657600080fd5b6000602082840312156200053957600080fd5b81518015158114620004e657600080fd5b60005b83811015620005675781810151838201526020016200054d565b8381111562000577576000848401525b50505050565b7f50726f766964656420676174656b656570657220616464726573732000000000815260008351620005b781601c8501602088016200054a565b7f20646f6573206e6f7420696d706c656d656e742049476174654b656570657220601c918401918201527f696e7465726661636520776869636820696e7465726661636549442069732000603c82015283516200061c81605b8401602088016200054a565b01605b01949350505050565b6020815260008251806020840152620006498160408501602087016200054a565b601f01601f19169190910160400192915050565b634e487b7160e01b600052601160045260246000fd5b60008160001904831182151516156200069057620006906200065d565b500290565b60008219821115620006ab57620006ab6200065d565b500190565b634e487b7160e01b600052604160045260246000fd5b634e487b7160e01b600052603260045260246000fd5b600081620006ee57620006ee6200065d565b506000190190565b61234480620007066000396000f3fe6080604052600436106102085760003560e01c806375b238fc11610118578063a208ae38116100a0578063e3a9db1a1161006f578063e3a9db1a146107e3578063f2fde38b14610803578063f394397014610823578063f4887f1514610857578063f57eed281461087757600080fd5b8063a208ae381461075b578063a217fddf14610779578063c46b4b041461078e578063c68dd037146107c157600080fd5b80638f5949f9116100e75780638f5949f91461066657806391e10a131461068657806392af0d4e146106a6578063965de0a1146106e75780639cbed5821461072757600080fd5b806375b238fc146105d457806381f407fa1461060857806388784105146106285780638da5cb5b1461064857600080fd5b8063364bc15a1161019b578063453dda691161016a578063453dda6914610557578063586d993c1461056c5780635d3c917e146105815780636a7d943c146105a1578063715018a6146105bf57600080fd5b8063364bc15a146104e45780633ccfd60b146105065780633d1b760b1461051b578063415b4bf21461053757600080fd5b80631385d05d116101d75780631385d05d1461040f57806325bb90141461044757806330d472c9146104a657806331d8a985146104c857600080fd5b806301ffc9a714610340578063056c99891461038657806307e2cea5146103c857806312065fe0146103fc57600080fd5b3661033b576002546040516336d05bf360e11b81527feb0a07781e3ee843c0d85f7381c2e1a1e1a6ea86bcdcd944ef649d46e7dcd97260048201523360248201526001600160a01b0390911690636da0b7e69060440160206040518083038186803b15801561027657600080fd5b505afa15801561028a573d6000803e3d6000fd5b505050506040513d601f19601f820116820180604052508101906102ae9190611e13565b6102ff5760405162461bcd60e51b815260206004820152601760248201527f5265737472696374656420746f20696e7375726572732e00000000000000000060448201526064015b60405180910390fd5b6040805134815247602082015233917fa28d667a0fe7f4f33601489c23e16c35f05c9191b2a40bb5632ca53ffac586da910160405180910390a2005b600080fd5b34801561034c57600080fd5b5061037161035b366004611e35565b6001600160e01b031916631a149b3760e01b1490565b60405190151581526020015b60405180910390f35b34801561039257600080fd5b506103ba7feb0a07781e3ee843c0d85f7381c2e1a1e1a6ea86bcdcd944ef649d46e7dcd97281565b60405190815260200161037d565b3480156103d457600080fd5b506103ba7f68e79a7bf1e0bc45d0a330c573bc367f9cf464fd326078812f301165fbda4ef181565b34801561040857600080fd5b50476103ba565b34801561041b57600080fd5b5061042f61042a366004611e76565b61088c565b6040516001600160a01b03909116815260200161037d565b34801561045357600080fd5b50610499610462366004611ec0565b600091825260056020908152604080842061ffff9590951684529381528383206001600160a01b0392909216835252205460ff1690565b60405161037d9190611f26565b3480156104b257600080fd5b506104c66104c1366004611f34565b610944565b005b3480156104d457600080fd5b506103ba6706f05b59d3b2000081565b3480156104f057600080fd5b506103ba6000805160206122ef83398151915281565b34801561051257600080fd5b506104c6610b6f565b34801561052757600080fd5b506103ba67016345785d8a000081565b34801561054357600080fd5b506104c6610552366004611f4f565b610c47565b34801561056357600080fd5b506104c66110b6565b34801561057857600080fd5b506007546103ba565b34801561058d57600080fd5b506104c661059c366004611f34565b611132565b3480156105ad57600080fd5b506002546001600160a01b031661042f565b3480156105cb57600080fd5b506104c6611309565b3480156105e057600080fd5b506103ba7f10a5d5fcdf1134589e8d07d6f54e37b188b0683cc789901bbcdc48f6d484c17681565b34801561061457600080fd5b506103ba610623366004611f4f565b61133d565b34801561063457600080fd5b506104c6610643366004611f93565b61139a565b34801561065457600080fd5b506000546001600160a01b031661042f565b34801561067257600080fd5b50600354600160a01b900460ff1615610371565b34801561069257600080fd5b506104996106a1366004611f93565b6117a3565b3480156106b257600080fd5b506106da6106c1366004611f34565b61ffff1660009081526006602052604090205460ff1690565b60405161037d9190611fbd565b3480156106f357600080fd5b506103ba610702366004611f93565b600090815260056020908152604080832061ffff949094168352929052206002015490565b34801561073357600080fd5b506103ba7fd9d062b29c8756d894f301c5167d214c34d627724cd7fc859ab9329c9330cf5181565b34801561076757600080fd5b506003546001600160a01b031661042f565b34801561078557600080fd5b506103ba600081565b34801561079a57600080fd5b506107ae6107a9366004611fd7565b6117cb565b60405161ffff909116815260200161037d565b3480156107cd57600080fd5b5060405163b579696f60e01b815260200161037d565b3480156107ef57600080fd5b506103ba6107fe366004611ff0565b611855565b34801561080f57600080fd5b506104c661081e366004611ff0565b6118d3565b34801561082f57600080fd5b506103ba7f7c6181838a71a779e445600d4c6ecbe16bacf2b3c5bda69c29fada66d1b645d181565b34801561086357600080fd5b506104c6610872366004611ff0565b61196e565b34801561088357600080fd5b506104c6611b03565b600082815260056020908152604080832061ffff8716845290915281206002015482106108f35760405162461bcd60e51b815260206004820152601560248201527427baba1037b3103137bab732399030b1b1b2b9b99760591b60448201526064016102f6565b600083815260056020908152604080832061ffff8816845290915290206002018054839081106109255761092561200b565b6000918252602090912001546001600160a01b031690505b9392505050565b6002546040516336d05bf360e11b81526000805160206122ef83398151915260048201523360248201526001600160a01b0390911690636da0b7e69060440160206040518083038186803b15801561099b57600080fd5b505afa1580156109af573d6000803e3d6000fd5b505050506040513d601f19601f820116820180604052508101906109d39190611e13565b6109ef5760405162461bcd60e51b81526004016102f690612021565b80600061ffff821660009081526006602052604090205460ff166002811115610a1a57610a1a611efc565b14610a675760405162461bcd60e51b815260206004820181905260248201527f536561736f6e206d75737420626520696e20696e697469616c2073746174652e60448201526064016102f6565b67016345785d8a000080471015610a905760405162461bcd60e51b81526004016102f690612051565b60026001541415610ab35760405162461bcd60e51b81526004016102f690612093565b6002600181815561ffff8581166000818152600660205260408120805460ff1916851790556007805494850181559052601083047fa66cc928b5edb82af9bd49922954155ab7b0942694bea4ce44661d9a8736c688018054600f9094169094026101000a908102910219909116179055610b353367016345785d8a0000611d15565b604051339061ffff8516907ff1c0d331aebe93ac1ac92312e51b2094c75219084d7a2c97fecbe82eb32b9aa090600090a350506001805550565b60026001541415610b925760405162461bcd60e51b81526004016102f690612093565b60026001556000610ba233611855565b11610be45760405162461bcd60e51b81526020600482015260126024820152714e6f7420656e6f7567682062616c616e636560701b60448201526064016102f6565b6003546040516351cff8d960e01b81523360048201526001600160a01b03909116906351cff8d990602401600060405180830381600087803b158015610c2957600080fd5b505af1158015610c3d573d6000803e3d6000fd5b5050600180555050565b6002546040516336d05bf360e11b81527f68e79a7bf1e0bc45d0a330c573bc367f9cf464fd326078812f301165fbda4ef160048201523360248201526001600160a01b0390911690636da0b7e69060440160206040518083038186803b158015610cb057600080fd5b505afa158015610cc4573d6000803e3d6000fd5b505050506040513d601f19601f82011682018060405250810190610ce89190611e13565b610d2d5760405162461bcd60e51b81526020600482015260166024820152752932b9ba3934b1ba32b2103a379037b930b1b632b99760511b60448201526064016102f6565b82600161ffff821660009081526006602052604090205460ff166002811115610d5857610d58611efc565b14610d9c5760405162461bcd60e51b815260206004820152601460248201527329b2b0b9b7b71036bab9ba1031329037b832b71760611b60448201526064016102f6565b6706f05b59d3b2000080471015610dc55760405162461bcd60e51b81526004016102f690612051565b60026001541415610de85760405162461bcd60e51b81526004016102f690612093565b6002600155600084815260056020818152604080842061ffff8a168552825280842033855290915282205460ff1690811115610e2657610e26611efc565b14610e995760405162461bcd60e51b815260206004820152603760248201527f4f7261636c652068617320616c7265616479207375626d697474656420666f7260448201527f207468697320736561736f6e20616e6420726567696f6e00000000000000000060648201526084016102f6565b6001836005811115610ead57610ead611efc565b1480610eca57506002836005811115610ec857610ec8611efc565b145b80610ee657506003836005811115610ee457610ee4611efc565b145b80610f0257506004836005811115610f0057610f00611efc565b145b80610f1e57506005836005811115610f1c57610f1c611efc565b145b610f5f5760405162461bcd60e51b815260206004820152601260248201527114d95d995c9a5d1e481b9bdd081d985b1a5960721b60448201526064016102f6565b600084815260056020818152604080842061ffff8a16855282528084203385529091529091208054859260ff19909116906001908490811115610fa457610fa4611efc565b0217905550600084815260056020818152604080842061ffff8a1685529091528220600192908301918690811115610fde57610fde611efc565b6005811115610fef57610fef611efc565b8152602001908152602001600020600082825461100c91906120e0565b9091555050600084815260056020908152604080832061ffff8916845282528220600201805460018101825590835291200180546001600160a01b03191633908117909155611063906706f05b59d3b20000611d15565b336001600160a01b03168561ffff167f21a1481f3391453e0c81205d0c55fadd3ad41c497ed0ceafaab054dc8ee153a386866040516110a39291906120f8565b60405180910390a3505060018055505050565b6000546001600160a01b031633146110e05760405162461bcd60e51b81526004016102f69061210c565b600354600160a01b900460ff16611130576003805460ff60a01b1916600160a01b17905560405133907f2c8df3a57558c1da625dac0822756afc39aa81f22772ae7a5b6b37e70feedc9290600090a25b565b6002546040516336d05bf360e11b81526000805160206122ef83398151915260048201523360248201526001600160a01b0390911690636da0b7e69060440160206040518083038186803b15801561118957600080fd5b505afa15801561119d573d6000803e3d6000fd5b505050506040513d601f19601f820116820180604052508101906111c19190611e13565b6111dd5760405162461bcd60e51b81526004016102f690612021565b80600161ffff821660009081526006602052604090205460ff16600281111561120857611208611efc565b1461124c5760405162461bcd60e51b815260206004820152601460248201527329b2b0b9b7b71036bab9ba1031329037b832b71760611b60448201526064016102f6565b67016345785d8a0000804710156112755760405162461bcd60e51b81526004016102f690612051565b600260015414156112985760405162461bcd60e51b81526004016102f690612093565b6002600181905561ffff84166000908152600660205260409020805460ff191690911790556112cf3367016345785d8a0000611d15565b604051339061ffff8516907f7d2797fdf1b9f35ccf52e7b904a608332c1db1d8c7f2ff7f28ea7f2d6f87996c90600090a350506001805550565b6000546001600160a01b031633146113335760405162461bcd60e51b81526004016102f69061210c565b6111306000611d7a565b600082815260056020818152604080842061ffff881685529091528220600101908290849081111561137157611371611efc565b600581111561138257611382611efc565b81526020019081526020016000205490509392505050565b6002546040516336d05bf360e11b81526000805160206122ef83398151915260048201523360248201526001600160a01b0390911690636da0b7e69060440160206040518083038186803b1580156113f157600080fd5b505afa158015611405573d6000803e3d6000fd5b505050506040513d601f19601f820116820180604052508101906114299190611e13565b6114455760405162461bcd60e51b81526004016102f690612021565b81600261ffff821660009081526006602052604090205460ff16600281111561147057611470611efc565b146114b65760405162461bcd60e51b815260206004820152601660248201527529b2b0b9b7b71036bab9ba1031329031b637b9b2b21760511b60448201526064016102f6565b67016345785d8a0000804710156114df5760405162461bcd60e51b81526004016102f690612051565b600260015414156115025760405162461bcd60e51b81526004016102f690612093565b6002600155600083815260046020908152604080832061ffff8816845290915281205460ff16600581111561153957611539611efc565b146115865760405162461bcd60e51b815260206004820152601b60248201527f536576657269747920616c72656164792061676772656761746564000000000060448201526064016102f6565b600083815260056020908152604080832061ffff88168452909152902060020154801561179857600084815260056020818152604080842061ffff8a16855282528084206001808652019091528083205460028452818420546003855282852054600486528386205494865292909420549093929085818385611609888a6120e0565b61161391906120e0565b61161d91906120e0565b61162791906120e0565b146116655760405162461bcd60e51b815260206004820152600e60248201526d11185d184818dbdc9c9d5c1d195960921b60448201526064016102f6565b600061167d6064611677896032612141565b90611dca565b8261168885876120e0565b61169291906120e0565b106116db57816116ac6116a58587611dfc565b8490611dfc565b14156116ba575060056116f8565b826116c58186611dfc565b14156116d3575060046116f8565b5060036116f8565b846116e68188611dfc565b14156116f4575060026116f8565b5060015b60008a815260046020908152604080832061ffff8f1684529091529020805482919060ff1916600183600581111561173257611732611efc565b02179055506117493367016345785d8a0000611d15565b336001600160a01b03168b61ffff167fb61a49c9f5991902a18e24b349ed9e76bd3bfd20ef95cb7344a767375efe63738c846040516117899291906120f8565b60405180910390a35050505050505b505060018055505050565b600081815260046020908152604080832061ffff8616845290915290205460ff165b92915050565b60075460009082106118175760405162461bcd60e51b815260206004820152601560248201527427baba1037b3103137bab732399030b1b1b2b9b99760591b60448201526064016102f6565b6007828154811061182a5761182a61200b565b90600052602060002090601091828204019190066002029054906101000a900461ffff169050919050565b6003546040516371d4ed8d60e11b81526001600160a01b038381166004830152600092169063e3a9db1a9060240160206040518083038186803b15801561189b57600080fd5b505afa1580156118af573d6000803e3d6000fd5b505050506040513d601f19601f820116820180604052508101906117c59190612160565b6000546001600160a01b031633146118fd5760405162461bcd60e51b81526004016102f69061210c565b6001600160a01b0381166119625760405162461bcd60e51b815260206004820152602660248201527f4f776e61626c653a206e6577206f776e657220697320746865207a65726f206160448201526564647265737360d01b60648201526084016102f6565b61196b81611d7a565b50565b6000546001600160a01b031633146119985760405162461bcd60e51b81526004016102f69061210c565b600260015414156119bb5760405162461bcd60e51b81526004016102f690612093565b60026001556040516301ffc9a760e01b815263b579696f60e01b600482015281906001600160a01b038216906301ffc9a79060240160206040518083038186803b158015611a0857600080fd5b505afa158015611a1c573d6000803e3d6000fd5b505050506040513d601f19601f82011682018060405250810190611a409190611e13565b611a54826001600160a01b03166014611b79565b611a6363b579696f6004611b79565b604051602001611a749291906121a9565b60405160208183030381529060405290611aa15760405162461bcd60e51b81526004016102f69190612250565b506002546040516001600160a01b038085169216907f8777fa7924fda0bcb032966b349f02744e9fd68c26dc0f80675b86f7a1fdeae190600090a350600280546001600160a01b0319166001600160a01b039290921691909117905560018055565b6000546001600160a01b03163314611b2d5760405162461bcd60e51b81526004016102f69061210c565b600354600160a01b900460ff1615611130576003805460ff60a01b1916905560405133907f52defe2736efa030a55e6dec8f4a0eef68bd16c5fe46e817f2ae941919dba3a190600090a2565b60606000611b88836002612141565b611b939060026120e0565b67ffffffffffffffff811115611bab57611bab612283565b6040519080825280601f01601f191660200182016040528015611bd5576020820181803683370190505b509050600360fc1b81600081518110611bf057611bf061200b565b60200101906001600160f81b031916908160001a905350600f60fb1b81600181518110611c1f57611c1f61200b565b60200101906001600160f81b031916908160001a9053506000611c43846002612141565b611c4e9060016120e0565b90505b6001811115611cc6576f181899199a1a9b1b9c1cb0b131b232b360811b85600f1660108110611c8257611c8261200b565b1a60f81b828281518110611c9857611c9861200b565b60200101906001600160f81b031916908160001a90535060049490941c93611cbf81612299565b9050611c51565b50831561093d5760405162461bcd60e51b815260206004820181905260248201527f537472696e67733a20686578206c656e67746820696e73756666696369656e7460448201526064016102f6565b60035460405163f340fa0160e01b81526001600160a01b0384811660048301529091169063f340fa019083906024016000604051808303818588803b158015611d5d57600080fd5b505af1158015611d71573d6000803e3d6000fd5b50505050505050565b600080546001600160a01b038381166001600160a01b0319831681178455604051919092169283917f8be0079c531659141344cd1fd0a4f28419497f9722a3daafe3b4186f6b6457e09190a35050565b6000611dd682846122c6565b15611de2576001611de5565b60005b60ff16611df283856122da565b61093d91906120e0565b600081831015611e0c578161093d565b5090919050565b600060208284031215611e2557600080fd5b8151801515811461093d57600080fd5b600060208284031215611e4757600080fd5b81356001600160e01b03198116811461093d57600080fd5b803561ffff81168114611e7157600080fd5b919050565b600080600060608486031215611e8b57600080fd5b611e9484611e5f565b95602085013595506040909401359392505050565b80356001600160a01b0381168114611e7157600080fd5b600080600060608486031215611ed557600080fd5b611ede84611e5f565b925060208401359150611ef360408501611ea9565b90509250925092565b634e487b7160e01b600052602160045260246000fd5b60068110611f2257611f22611efc565b9052565b602081016117c58284611f12565b600060208284031215611f4657600080fd5b61093d82611e5f565b600080600060608486031215611f6457600080fd5b611f6d84611e5f565b925060208401359150604084013560068110611f8857600080fd5b809150509250925092565b60008060408385031215611fa657600080fd5b611faf83611e5f565b946020939093013593505050565b6020810160038310611fd157611fd1611efc565b91905290565b600060208284031215611fe957600080fd5b5035919050565b60006020828403121561200257600080fd5b61093d82611ea9565b634e487b7160e01b600052603260045260246000fd5b6020808252601690820152752932b9ba3934b1ba32b2103a379035b2b2b832b9399760511b604082015260600190565b60208082526022908201527f4e6f7420656e6f7567682062616c616e636520696e2074686520636f6e74726160408201526118dd60f21b606082015260800190565b6020808252601f908201527f5265656e7472616e637947756172643a207265656e7472616e742063616c6c00604082015260600190565b634e487b7160e01b600052601160045260246000fd5b600082198211156120f3576120f36120ca565b500190565b8281526040810161093d6020830184611f12565b6020808252818101527f4f776e61626c653a2063616c6c6572206973206e6f7420746865206f776e6572604082015260600190565b600081600019048311821515161561215b5761215b6120ca565b500290565b60006020828403121561217257600080fd5b5051919050565b60005b8381101561219457818101518382015260200161217c565b838111156121a3576000848401525b50505050565b7f50726f766964656420676174656b6565706572206164647265737320000000008152600083516121e181601c850160208801612179565b7f20646f6573206e6f7420696d706c656d656e742049476174654b656570657220601c918401918201527f696e7465726661636520776869636820696e7465726661636549442069732000603c820152835161224481605b840160208801612179565b01605b01949350505050565b602081526000825180602084015261226f816040850160208701612179565b601f01601f19169190910160400192915050565b634e487b7160e01b600052604160045260246000fd5b6000816122a8576122a86120ca565b506000190190565b634e487b7160e01b600052601260045260246000fd5b6000826122d5576122d56122b0565b500690565b6000826122e9576122e96122b0565b50049056fefc8737ab85eb45125971625a9ebdb75cc78e01d5c1fa80c4c6e5203f47bc4faba264697066735822122061543bbacde7b9156dda1698de794180960820113a3a1f04ed32883f77e46fca64736f6c63430008090033608060405234801561001057600080fd5b5061001a3361001f565b61006f565b600080546001600160a01b038381166001600160a01b0319831681178455604051919092169283917f8be0079c531659141344cd1fd0a4f28419497f9722a3daafe3b4186f6b6457e09190a35050565b6105748061007e6000396000f3fe6080604052600436106100555760003560e01c806351cff8d91461005a578063715018a61461007c5780638da5cb5b14610091578063e3a9db1a146100be578063f2fde38b14610102578063f340fa0114610122575b600080fd5b34801561006657600080fd5b5061007a6100753660046104bf565b610135565b005b34801561008857600080fd5b5061007a6101d7565b34801561009d57600080fd5b506000546040516001600160a01b0390911681526020015b60405180910390f35b3480156100ca57600080fd5b506100f46100d93660046104bf565b6001600160a01b031660009081526001602052604090205490565b6040519081526020016100b5565b34801561010e57600080fd5b5061007a61011d3660046104bf565b61020d565b61007a6101303660046104bf565b6102a8565b6000546001600160a01b031633146101685760405162461bcd60e51b815260040161015f906104e3565b60405180910390fd5b6001600160a01b0381166000818152600160205260408120805491905590610190908261033c565b816001600160a01b03167f7084f5476618d8e60b11ef0d7d3f06914655adb8793e28ff7f018d4c76d505d5826040516101cb91815260200190565b60405180910390a25050565b6000546001600160a01b031633146102015760405162461bcd60e51b815260040161015f906104e3565b61020b600061045a565b565b6000546001600160a01b031633146102375760405162461bcd60e51b815260040161015f906104e3565b6001600160a01b03811661029c5760405162461bcd60e51b815260206004820152602660248201527f4f776e61626c653a206e6577206f776e657220697320746865207a65726f206160448201526564647265737360d01b606482015260840161015f565b6102a58161045a565b50565b6000546001600160a01b031633146102d25760405162461bcd60e51b815260040161015f906104e3565b6001600160a01b0381166000908152600160205260408120805434928392916102fc908490610518565b90915550506040518181526001600160a01b038316907f2da466a7b24304f47e87fa2e1e5a81b9831ce54fec19055ce277ca2f39ba42c4906020016101cb565b8047101561038c5760405162461bcd60e51b815260206004820152601d60248201527f416464726573733a20696e73756666696369656e742062616c616e6365000000604482015260640161015f565b6000826001600160a01b03168260405160006040518083038185875af1925050503d80600081146103d9576040519150601f19603f3d011682016040523d82523d6000602084013e6103de565b606091505b50509050806104555760405162461bcd60e51b815260206004820152603a60248201527f416464726573733a20756e61626c6520746f2073656e642076616c75652c207260448201527f6563697069656e74206d61792068617665207265766572746564000000000000606482015260840161015f565b505050565b600080546001600160a01b038381166001600160a01b0319831681178455604051919092169283917f8be0079c531659141344cd1fd0a4f28419497f9722a3daafe3b4186f6b6457e09190a35050565b6001600160a01b03811681146102a557600080fd5b6000602082840312156104d157600080fd5b81356104dc816104aa565b9392505050565b6020808252818101527f4f776e61626c653a2063616c6c6572206973206e6f7420746865206f776e6572604082015260600190565b6000821982111561053957634e487b7160e01b600052601160045260246000fd5b50019056fea26469706673582212201e27c14d8c29def61149c3a29e2598f2ba077c3039a23efd36fefd21cac7369064736f6c63430008090033",
  "immutableReferences": {},
  "source": "// SPDX-License-Identifier: MIT\r\npragma solidity 0.8.9;\r\nimport \"../core/Common.sol\";\r\nimport \"./IOracle.sol\";\r\nimport \"@openzeppelin/contracts/utils/math/Math.sol\";\r\nimport \"@openzeppelin/contracts/interfaces/IERC165.sol\";\r\n\r\n/**\r\n * @title Oracle contract\r\n * @dev Implement functionalities of Oracle. Other functionalities (e.g.: open/close seaosn) are implemented by keepers\r\n *\r\n * @notice inhertit  {Common} contract, implement {IOracle} interface & {IERC165} interface. the latter is important to make sure that an OracleCore implements the right interface\r\n */\r\ncontract OracleCore is Common, IOracle, IERC165 {\r\n    using Math for uint256;\r\n\r\n    /// @dev keep track of every region and its history\r\n    /// `region` in bytes32 => season => severity\r\n    mapping(bytes32 => mapping(uint16 => Severity)) private regions;\r\n\r\n    /// @dev keep track of submissions\r\n    /// `region` in bytes32 => year(season) => Submission (struct defined above)\r\n    mapping(bytes32 => mapping(uint16 => Submission)) private submissions;\r\n\r\n    /// @dev keep track of seasons\r\n    // season must be in OPEN state in order to accept submissions\r\n    mapping(uint16 => SeasonState) private seasons;\r\n\r\n    /// @dev placeholder to retrieve seasons\r\n    uint16[] private seasonsArray;\r\n\r\n    uint256 public constant KEEPER_FEE = 0.1 ether;\r\n    uint256 public constant ORACLE_FEE = 0.5 ether;\r\n\r\n    /**\r\n     * @dev Setup `gatekeeer` by calling constructor of parent contract `Common`\r\n     *\r\n     */\r\n    constructor(address _gatekeeper) Common(_gatekeeper) {}\r\n\r\n    /// @dev called when to check that a season is in initial state\r\n    modifier seasonDefault(uint16 season) {\r\n        require(\r\n            seasons[season] == SeasonState.DEFAULT,\r\n            \"Season must be in initial state.\"\r\n        );\r\n        _;\r\n    }\r\n\r\n    /// @dev called when to check that a season is in open state\r\n    modifier seasonOpen(uint16 season) {\r\n        require(seasons[season] == SeasonState.OPEN, \"Season must be open.\");\r\n        _;\r\n    }\r\n\r\n    /// @dev called when to check that a season is in closed state\r\n    modifier seasonClosed(uint16 season) {\r\n        require(\r\n            seasons[season] == SeasonState.CLOSED,\r\n            \"Season must be closed.\"\r\n        );\r\n        _;\r\n    }\r\n\r\n    /**\r\n     * @inheritdoc IOracle\r\n     */\r\n    function aggregate(uint16 season, bytes32 region)\r\n        external\r\n        override\r\n        onlyKeeper\r\n        seasonClosed(season)\r\n        checkContractBalance(KEEPER_FEE)\r\n        nonReentrant\r\n    {\r\n        require(\r\n            regions[region][season] == Severity.D,\r\n            \"Severity already aggregated\"\r\n        );\r\n        uint256 totalAnswers = submissions[region][season].submitters.length;\r\n        if (totalAnswers > 0) {\r\n            uint256 totalD0 = submissions[region][season].numberAnswers[\r\n                Severity.D0\r\n            ];\r\n            uint256 totalD1 = submissions[region][season].numberAnswers[\r\n                Severity.D1\r\n            ];\r\n            uint256 totalD2 = submissions[region][season].numberAnswers[\r\n                Severity.D2\r\n            ];\r\n            uint256 totalD3 = submissions[region][season].numberAnswers[\r\n                Severity.D3\r\n            ];\r\n            uint256 totalD4 = submissions[region][season].numberAnswers[\r\n                Severity.D4\r\n            ];\r\n            require(\r\n                (totalD0 + totalD1 + totalD2 + totalD3 + totalD4) ==\r\n                    totalAnswers,\r\n                \"Data corrupted\"\r\n            );\r\n            Severity severity;\r\n            if (\r\n                (totalD2 + totalD3 + totalD4) >=\r\n                (50 * totalAnswers).ceilDiv(100)\r\n            ) {\r\n                if (totalD4.max(totalD3.max(totalD2)) == totalD4) {\r\n                    severity = Severity.D4;\r\n                } else if (totalD3.max(totalD2) == totalD3) {\r\n                    severity = Severity.D3;\r\n                } else {\r\n                    severity = Severity.D2;\r\n                }\r\n            } else {\r\n                if (totalD1.max(totalD0) == totalD1) {\r\n                    severity = Severity.D1;\r\n                } else {\r\n                    severity = Severity.D0;\r\n                }\r\n            }\r\n\r\n            regions[region][season] = severity;\r\n            _deposit(msg.sender, KEEPER_FEE);\r\n            emit SeverityAggregated(season, region, severity, msg.sender);\r\n        }\r\n    }\r\n\r\n    /**\r\n     * @inheritdoc IOracle\r\n     */\r\n    function closeSeason(uint16 season)\r\n        public\r\n        override\r\n        onlyKeeper\r\n        seasonOpen(season)\r\n        checkContractBalance(KEEPER_FEE)\r\n        nonReentrant\r\n    {\r\n        seasons[season] = SeasonState.CLOSED;\r\n        _deposit(msg.sender, KEEPER_FEE);\r\n        emit SeasonClosed(season, msg.sender);\r\n    }\r\n\r\n    /**\r\n     * @inheritdoc IOracle\r\n     */\r\n    function getRegionSeverity(uint16 season, bytes32 region)\r\n        public\r\n        view\r\n        override\r\n        returns (Severity)\r\n    {\r\n        return regions[region][season];\r\n    }\r\n\r\n    /**\r\n     * @inheritdoc IOracle\r\n     */\r\n    function getSeasonsNumber() public view override returns (uint256) {\r\n        return seasonsArray.length;\r\n    }\r\n\r\n    /**\r\n     * @inheritdoc IOracle\r\n     */\r\n    function getSeasonAt(uint256 index) public view returns (uint16) {\r\n        require(seasonsArray.length > index, \"Out of bounds access.\");\r\n        return seasonsArray[index];\r\n    }\r\n\r\n    /**\r\n     * @inheritdoc IOracle\r\n     */\r\n    function getSeasonState(uint16 season)\r\n        public\r\n        view\r\n        override\r\n        returns (SeasonState)\r\n    {\r\n        return seasons[season];\r\n    }\r\n\r\n    /**\r\n     * @inheritdoc IOracle\r\n     */\r\n    function getSubmission(\r\n        uint16 season,\r\n        bytes32 region,\r\n        address oracle\r\n    ) public view override returns (Severity) {\r\n        return submissions[region][season].oracles[oracle];\r\n    }\r\n\r\n    /**\r\n     * @inheritdoc IOracle\r\n     */\r\n    function getSubmissionNumberForSeverity(\r\n        uint16 season,\r\n        bytes32 region,\r\n        Severity severity\r\n    ) public view override returns (uint256) {\r\n        return submissions[region][season].numberAnswers[severity];\r\n    }\r\n\r\n    /**\r\n     * @inheritdoc IOracle\r\n     */\r\n    function getSubmissionTotal(uint16 season, bytes32 region)\r\n        public\r\n        view\r\n        override\r\n        returns (uint256)\r\n    {\r\n        return submissions[region][season].submitters.length;\r\n    }\r\n\r\n    /**\r\n     * @inheritdoc IOracle\r\n     */\r\n    function getSubmitterAt(\r\n        uint16 season,\r\n        bytes32 region,\r\n        uint256 index\r\n    ) public view override returns (address) {\r\n        require(submissions[region][season].submitters.length > index, \"Out of bounds access.\");\r\n        return submissions[region][season].submitters[index];\r\n    }\r\n\r\n    /**\r\n     * @inheritdoc IOracle\r\n     */\r\n    function openSeason(uint16 season)\r\n        public\r\n        override\r\n        onlyKeeper\r\n        seasonDefault(season)\r\n        checkContractBalance(KEEPER_FEE)\r\n        nonReentrant\r\n    {\r\n        seasons[season] = SeasonState.OPEN;\r\n        seasonsArray.push(season);\r\n        _deposit(msg.sender, KEEPER_FEE);\r\n        emit SeasonOpen(season, msg.sender);\r\n    }\r\n\r\n    /**\r\n     * @dev function to receive ETH in order to pay keepers and oracles\r\n     *\r\n     * Emits a {ReceivedETH} event.\r\n     *\r\n     * Requirements:\r\n     *\r\n     * - the caller must be insurer\r\n     */\r\n    receive() external payable onlyInsurer {\r\n        emit ReceivedETH(msg.value, address(this).balance, msg.sender);\r\n    }\r\n\r\n    /**\r\n     * @inheritdoc IOracle\r\n     */\r\n    function submit(\r\n        uint16 season,\r\n        bytes32 region,\r\n        Severity severity\r\n    )\r\n        external\r\n        override\r\n        onlyOracle\r\n        seasonOpen(season)\r\n        checkContractBalance(ORACLE_FEE)\r\n        nonReentrant\r\n    {\r\n        require(\r\n            submissions[region][season].oracles[msg.sender] == Severity.D,\r\n            \"Oracle has already submitted for this season and region\"\r\n        );\r\n        require(\r\n            (severity == Severity.D0 ||\r\n                severity == Severity.D1 ||\r\n                severity == Severity.D2 ||\r\n                severity == Severity.D3 ||\r\n                severity == Severity.D4),\r\n            \"Severity not valid\"\r\n        );\r\n\r\n        submissions[region][season].oracles[msg.sender] = severity;\r\n        submissions[region][season].numberAnswers[severity] += 1;\r\n        submissions[region][season].submitters.push(msg.sender);\r\n        _deposit(msg.sender, ORACLE_FEE);\r\n        emit SeveritySubmitted(season, region, severity, msg.sender);\r\n    }\r\n\r\n    /**\r\n     * @dev See {IERC165-supportsInterface}.\r\n     */\r\n    function supportsInterface(bytes4 interfaceId)\r\n        public\r\n        pure\r\n        override\r\n        returns (bool)\r\n    {\r\n        return interfaceId == type(IOracle).interfaceId;\r\n    }\r\n}\r\n",
  "sourcePath": "/home/aelmanaa/playground/blockchain-developer-bootcamp-final-project/contracts/oracle/OracleCore.sol",
  "compiler": {
    "name": "solc",
    "version": "0.8.9+commit.e5eed63a.Emscripten.clang"
  },
  "schemaVersion": "3.4.3",
  "updatedAt": "2021-11-01T21:03:42.437Z",
  "networkType": "ethereum",
  "devdoc": {
    "details": "Implement functionalities of Oracle. Other functionalities (e.g.: open/close seaosn) are implemented by keepers",
    "kind": "dev",
    "methods": {
      "aggregate(uint16,bytes32)": {
        "details": "Aggregate a `severity` from all submissions. Rule benefit insurees: if 50% (roundup) of total submissions is >= totD2 + totD3 + totD4 then severity is severity which got the most number of submissions between D2,D3 & D4 Else severity which got most number of submissions between D0 & D1 Emits a {SeverityAggregated} event. Pays out the keeper for its job Requirements: - the caller must be keeper. - the season must be in closed state - contract must have enough balance to pay oracle - the keeper cannot trigger aggregation twice for this `season` + `region`",
        "params": {
          "region": "region in bytes32",
          "season": "year (e.g. 2021)."
        }
      },
      "closeSeason(uint16)": {
        "details": "Close a `season`. Emits a {SeasonClosed} event. Pays out the keeper for its job Requirements: - the caller must be keeper - the season must be opened - contract must have enough balance to pay keepers",
        "params": {
          "season": "year (e.g. 2021)."
        }
      },
      "constructor": {
        "details": "Setup `gatekeeer` by calling constructor of parent contract `Common`"
      },
      "depositsOf(address)": {
        "params": {
          "payee": "The payee address"
        },
        "returns": {
          "_0": "escrow"
        }
      },
      "getBalance()": {
        "details": "retrieve balance of account",
        "returns": {
          "_0": "balance"
        }
      },
      "getEscrow()": {
        "details": "retrieve the address of the escrow contract",
        "returns": {
          "_0": "address"
        }
      },
      "getGateKeeper()": {
        "details": "retrieve the address of the gateKeeper contract",
        "returns": {
          "_0": "address"
        }
      },
      "getGateKeeperSupportedInterface()": {
        "details": "retrieve the supported interfaceID",
        "returns": {
          "_0": "interfaceId bytes4"
        }
      },
      "getRegionSeverity(uint16,bytes32)": {
        "details": "Retrieve  `severity` of a `region` + `season`.",
        "params": {
          "region": "region code in bytes32",
          "season": "year (e.g. 2021)."
        },
        "returns": {
          "_0": "Severity"
        }
      },
      "getSeasonAt(uint256)": {
        "details": "Retrieve season at `index`",
        "returns": {
          "_0": "`season`"
        }
      },
      "getSeasonState(uint16)": {
        "details": "Retrieve a `season` state.",
        "params": {
          "season": "year (e.g. 2021)."
        },
        "returns": {
          "_0": "SeasonState ."
        }
      },
      "getSeasonsNumber()": {
        "details": "Retrieve number of seasons",
        "returns": {
          "_0": "number of seasons defined so far"
        }
      },
      "getSubmission(uint16,bytes32,address)": {
        "details": "Retrieve a `severity` for a given `region` and `season` , provided by `oracle`.",
        "params": {
          "oracle": "oracle address",
          "region": "region code in bytes32",
          "season": "year (e.g. 2021)."
        },
        "returns": {
          "_0": "Severity ."
        }
      },
      "getSubmissionNumberForSeverity(uint16,bytes32,uint8)": {
        "details": "Retrieve number of submissions for a given `region` and `season` and `severity`.",
        "params": {
          "region": "region code in bytes32",
          "season": "year (e.g. 2021).",
          "severity": "Severity code"
        },
        "returns": {
          "_0": "number of submissions."
        }
      },
      "getSubmissionTotal(uint16,bytes32)": {
        "details": "Retrieve total submissions for a given `region` and `season`.",
        "params": {
          "region": "region code in bytes32",
          "season": "year (e.g. 2021)."
        },
        "returns": {
          "_0": "number of submissions"
        }
      },
      "getSubmitterAt(uint16,bytes32,uint256)": {
        "details": "Retrieve submitter  for a given `region` and `season` at a given `index`.",
        "params": {
          "region": "region code in bytes32",
          "season": "year (e.g. 2021)."
        },
        "returns": {
          "_0": "address of oracle"
        }
      },
      "isContractActive()": {
        "details": "Returns `true` if contract is active (circuit-breaker).",
        "returns": {
          "_0": "bool `true` if contract is active."
        }
      },
      "openSeason(uint16)": {
        "details": "Open a `season`. Emits a {SeasonOpen} event. Pays out the keeper for its job Requirements: - the caller must be keeper. - the season must be in default state - contract must have enough balance to pay keepers",
        "params": {
          "season": "year (e.g. 2021)."
        }
      },
      "owner()": {
        "details": "Returns the address of the current owner."
      },
      "renounceOwnership()": {
        "details": "Leaves the contract without owner. It will not be possible to call `onlyOwner` functions anymore. Can only be called by the current owner. NOTE: Renouncing ownership will leave the contract without an owner, thereby removing any functionality that is only available to the owner."
      },
      "setGateKeeper(address)": {
        "details": "Allow to change dynamically access control contract (GateKeeper)",
        "params": {
          "_gateKeeper": "gateKeeper address Requirements: - only owner can change the reference of GateKeeper - ensure that it impelments the right interface"
        }
      },
      "submit(uint16,bytes32,uint8)": {
        "details": "Submit a `severity` for a given `season` + `region`. Emits a {SeveritySubmitted} event. Pays out the oracle for its job Requirements: - the caller must be oracle. - the season must be in open state - contract must have enough balance to pay oracle - the oracle cannot submit twice for this `season` + `region` - severity code must be valid",
        "params": {
          "region": "region in bytes32",
          "season": "year (e.g. 2021).",
          "severity": "must be valid (between 1 and 5)"
        }
      },
      "supportsInterface(bytes4)": {
        "details": "See {IERC165-supportsInterface}."
      },
      "switchContractOff()": {
        "details": "If the contract is active then stop it and emit a {ContractOff} event. Requirements: - the caller must be root admin."
      },
      "switchContractOn()": {
        "details": "If the contract is stopped then active it and emit a {ContractOn} event. Requirements: - the caller must be root admin."
      },
      "transferOwnership(address)": {
        "details": "Transfers ownership of the contract to a new account (`newOwner`). Can only be called by the current owner."
      },
      "withdraw()": {
        "details": "Withdraw accumulated balance for a payee Requirements: - msg.sender must have enough balance in the escrow"
      }
    },
    "stateVariables": {
      "regions": {
        "details": "keep track of every region and its history `region` in bytes32 => season => severity"
      },
      "seasons": {
        "details": "keep track of seasons"
      },
      "seasonsArray": {
        "details": "placeholder to retrieve seasons"
      },
      "submissions": {
        "details": "keep track of submissions `region` in bytes32 => year(season) => Submission (struct defined above)"
      }
    },
    "title": "Oracle contract",
    "version": 1
  },
  "userdoc": {
    "kind": "user",
    "methods": {
      "aggregate(uint16,bytes32)": {
        "notice": "call nonReentrant to check against Reentrancy"
      },
      "closeSeason(uint16)": {
        "notice": "call nonReentrant to check against Reentrancy"
      },
      "getRegionSeverity(uint16,bytes32)": {
        "notice": "caller must check Severity. In fact, final severity is calculated after aggregation. if aggregation not triggered yet then Severity will have the default value"
      },
      "getSeasonAt(uint256)": {
        "notice": "must check not out of bound exception"
      },
      "getSubmission(uint16,bytes32,address)": {
        "notice": "If Severity is the default value then it means that the oracle didn't provide any submission for `region` and `season`"
      },
      "getSubmitterAt(uint16,bytes32,uint256)": {
        "notice": "caller must call getSubmissionTotal before in order to ensure no out of bounds array access"
      },
      "openSeason(uint16)": {
        "notice": "call nonReentrant to check against Reentrancy"
      },
      "setGateKeeper(address)": {
        "notice": "call nonReentrant to check against Reentrancy"
      },
      "submit(uint16,bytes32,uint8)": {
        "notice": "call nonReentrant to check against Reentrancy"
      },
      "withdraw()": {
        "notice": "call nonReentrant to check against Reentrancy"
      }
    },
    "notice": "inhertit  {Common} contract, implement {IOracle} interface & {IERC165} interface. the latter is important to make sure that an OracleCore implements the right interface",
    "version": 1
  }
}